:020000040800F2
:1000000000B80020B9020008A11D0008471C000824
:100010009D1D0008A91900088B260008000000009B
:10002000000000000000000000000000811F000828
:10003000151B000800000000291E0008952000087C
:10004000D3020008D3020008D3020008D30200083C
:10005000D3020008D3020008D3020008D30200082C
:10006000D3020008D3020008D3020008D30200081C
:10007000D3020008D3020008D3020008D30200080C
:10008000D3020008D3020008D3020008D3020008FC
:10009000D3020008D3020008D3020008D3020008EC
:1000A000D3020008D3020008D3020008D3020008DC
:1000B000D3020008D3020008F9200008D302000888
:1000C000D3020008D3020008D3020008D3020008BC
:1000D000D30200083D230008D3020008C52300080E
:1000E000D3020008D3020008D3020008D30200089C
:1000F000D3020008D3020008D3020008D30200088C
:10010000D3020008D3020008D3020008D30200087B
:10011000D3020008D3020008D302000831210008EE
:10012000D3020008D3020008D3020008D30200085B
:1001300000F002F800F0B0F80AA090E8000C824449
:100140008344AAF10107DA4501D100F0A5F8AFF226
:10015000090EBAE80F0013F0010F18BFFB1A43F0A5
:10016000010318472C4C00004C4C00000A444FF08F
:10017000000C10F8013B13F0070408BF10F8014B06
:100180001D1108BF10F8015B641E05D010F8016B4B
:10019000641E01F8016BF9D113F0080F1EBF10F8AF
:1001A000014BAD1C0C1B09D16D1E58BF01F801CBD2
:1001B000FAD505E014F8016B01F8016B6D1EF9D555
:1001C0009142D6D37047000000230024002500266A
:1001D000103A28BF78C1FBD8520728BF30C148BFAA
:1001E0000B6070476E2900F05E83702900F08581F6
:1001F000662904F08184652904F07E84672904F06F
:100200007B846129AFF3008003681B0A28BF41F09B
:100210008001692900F0F680642900F0F3807529D7
:1002200000F0F0806F2900F05684782900F05181A9
:10023000E92900F0F183E42900F0EE83F52900F0CC
:10024000EB83EF2900F05384F82900F05081036814
:10025000DB0928BF41F08001632900F06083732926
:1002600000F06583E32900F0A986F32900F0AE864B
:10027000002070471FB500F0FFFE040000200021A1
:1002800004F024FC401C60600020002104F008FC05
:10029000E0601FBD10B510BD00F0C0FE1146FFF7B5
:1002A000E9FF03F017F800F099FF03B4FFF7F2FF3E
:1002B00003BC02F007FA00000948804709480047DC
:1002C000FEE7FEE7FEE7FEE7FEE7FEE7FEE7FEE706
:1002D000FEE7FEE704480549054A064B7047000063
:1002E000992000083101000800B2002000B8002069
:1002F00000B4002000B40020704700001CB50C467C
:10030000064B7B4469460090204600F0E6FA04461E
:100310000020694600F0F4FA20461CBDFB050000F1
:100320000FB4044910B503AA029800F005FB10BCF5
:100330005DF814FB180000200FB41CB5084B06AA8A
:100340007B4469460090059800F0C7FA04460020F7
:10035000694600F0D5FA20461CBC5DF814FB00008D
:10036000BD05000070B5044685690068C10601D569
:10037000302600E02026C00707D070BDD4E9012157
:1003800030469047206A401C20626D1EF6D570BD35
:1003900070B5044685690078C00707D170BDD4E9FF
:1003A000012120209047206A401C20626D1EF6D556
:1003B00070BD70B50C460546012A05D02878800628
:1003C00000D5EA69002302E0012305E05B1C9342AB
:1003D00002D2E05C0028F9D1A869E618C01AA86129
:1003E000286A184428622846FFF7BCFF04E0D5E9D4
:1003F000012114F8010B9047B442F8D32846FFF7C7
:10040000C7FF70BD2DE9F04106460024106875292C
:10041000314616A510D000F0DBF9002802DA404280
:1004200013A507E031688A0701D512A502E0490744
:1004300004D511A5012401E000F0D3F900210A221E
:1004400006F1240709E0B0FBF2FCB0FBF2F302FB7B
:100450001C00303078541846491C0028F3D123463C
:100460002A463046BDE8F04100F0C4B90000000063
:100470002D0000002B00000020000000F0B40D460D
:100480000188090502D5214C7C4402E01F4C7C44C4
:100490000E34002100F1240608E002F00F071209D3
:1004A000E75D42EA03721B097754491C52EA0307CD
:1004B000F3D102780023120704D5702D06D009B1BC
:1004C000022311342246F0BC00F094B90123103409
:1004D000F8E770B504460D462146106800F081F932
:1004E000024629462046BDE870400023C6E7D21DDB
:1004F00022F00703D3E90023C0E70368126843F042
:10050000200303600823C3610023B7E79846000077
:100510002DE9F05F894604464FF0000ADFF874B118
:10052000FB44C0F820A02046E1688847002874D02A
:10053000252806D0D4E901219047206A401C20627A
:10054000F1E700265F462046E168884720280546F7
:1005500007DB312D05D2781910F8200C08B10643BD
:10056000F1E7B00701D526F00406C4F81CA0002767
:10057000C4F818A02A2D09D0284602F09CF838B3F8
:1005800004EB8708303DC8F8185019E059F8041BEF
:10059000204604EB87029161E1688847012F0546F8
:1005A00018D1E069002820DA26F020061DE0D8F8EE
:1005B000180000EB800005EB40003038C8F8180048
:1005C0002046E1688847054602F075F80028EED11C
:1005D000012F0AD02E2D08D12046E16888477F1CC4
:1005E0000546022F46F02006C4DBA069002803DA86
:1005F000404246F00106A061F00701D026F0100647
:100600006C2D0BD0682D09D04C2D39D06A2D35D0EA
:10061000742D35D07A2D33D016E038E0E1682F46BE
:1006200020468847B842054609D16C2F26D04FF4A2
:100630008060E168064320468847054604E06C2F49
:100640001AD04FF4807006430DB3A5F1410019286C
:1006500002D8203546F400664A46294620462660E0
:100660004E46FFF7BFFD80B101280BD0F61D26F0E6
:10067000070000F1080956E74020E4E78020D8E7AA
:100680000020D6E706F104094DE7284652E7206A24
:10069000BDE8F09F2846000030B505460B462A46C7
:1006A00013F8014B12F8010B08B1A042F8D01CB1AD
:1006B000002802D06D1CF1E7284630BD10B5431C60
:1006C00002E010F8011B71B18107FAD14FF001323D
:1006D00002C88C1A8C4314EAC211F9D0C01A0A0657
:1006E00003D0C01E10BDC01A10BD0A0401D0801E68
:1006F00010BD0902FCD0401E10BD4FF0000200B535
:10070000134694469646203922BFA0E80C50A0E834
:100710000C50B1F12001BFF4F7AF090728BFA0E8E2
:100720000C5048BF0CC05DF804EB890028BF40F8AE
:10073000042B08BF704748BF20F8022B11F0804FF0
:1007400018BF00F8012B70474FF0013C50F8042B04
:1007500051F8043B9A4221D1A2EB0C03934313EAD4
:10076000CC1317D150F8042B51F8043B9A4215D101
:10077000A2EB0C03934313EACC130BD150F8042BD8
:1007800051F8043B9A4209D1A2EB0C03934313EABC
:10079000CC13DBD04FF00000704700BFD01A01BA75
:1007A000B1FA81F101F0180122FA01F0CB40C1F158
:1007B0002001DBB2C0B2C01A2CFA01F3D11A914366
:1007C00011EAC311E6D17047704770477047704710
:1007D00009684A0501D540B27047C905FCD500B289
:1007E000704709684A0501D5C0B27047C905FCD5F4
:1007F00080B270472DE9F0470D469946924604466F
:1008000000F124080168880604D5E06921F0100190
:10081000216000E00120A84201DD471B00E0002725
:10082000A1697A1902EB0900081AA0612078C006B4
:1008300002D42046FFF796FD002608E0D4E9012106
:100840001AF806009047206A401C761C20624E452C
:10085000F4DB2078C0060AD52046FFF783FD06E0CA
:10086000D4E9012130209047206A401C2062381EC4
:10087000A7F10107F4DC07E0D4E9012118F805002D
:100880009047206A401C2062281EA5F10105F3DC78
:100890002046FFF77DFD2078000602D50220BDE846
:1008A000F0870120FBE711680268006A530501D553
:1008B00008700AE0D30501D5088006E0130603D5C9
:1008C000C217C1E9000200E0086001207047000083
:1008D00001694A1C02610878704700B58FB0CDE904
:1008E00001310021059105497944CDE903101146F4
:1008F0006846FFF70DFE0FB000BD0000E5FFFFFFEB
:100900000A6802F8010B0A60704710B5436913B119
:10091000AFF3008001E0FFF74CFD012010BD12781D
:1009200000F124010A7000224A700122EDE71168EB
:100930004FF0FF32E9E70000074B70B50D467B44EE
:10094000FFF7CBFF0446284600F044FB10B14FF000
:10095000FF3070BD204670BD772900002DE9FF5F94
:1009600015468A460446DFF8AC80F8440027D8E9EB
:1009700000103E46CDE9001010E03AF816106A4625
:1009800002A800F02BFB411C07D02178890603D573
:10099000E269391891420DD80744761C2078800608
:1009A00002D5E069B84205DDAE42E6DB3AF8160052
:1009B0000028E2D1A069C01BA0612046FFF7D2FC4D
:1009C000D8E90010CDE90010002017E03AF818101F
:1009D0006A4602A800F002FBB0F1FF3F81460BD04F
:1009E00000250DF1080B05E0D4E901211BF80500F5
:1009F00090476D1C4D45F7D308F10100B042804689
:100A0000E4DB206A384420622046FFF7C1FCBDE8E1
:100A1000FF9F0000F24100002DE9F0418046D21D09
:100A200022F007020025D2E90002F52915A614D00C
:100A3000011E72F1000106DA0023D0EB030063EB24
:100A4000020211A608E0D8F800108B0701D50FA606
:100A500002E0490701D50EA601251146002408F140
:100A6000240704E000F04EF830323A55641C50EA96
:100A70000102F7D12B46324621464046BDE8F041FF
:100A8000FFF7B8BE000000002D0000002B000000A2
:100A90002000000030B4002100F1240408E002F03E
:100AA0000705D208303542EA4372DB086554491C19
:100AB00052EA0305F3D10468002310A2250707D5E5
:100AC000A40600D421B1C46901230DA2641EC4612F
:100AD00030BCFFF78FBE10B5044621461068FFF703
:100AE00080FE02462046BDE810400023D2E7D21D1A
:100AF00022F00701D1E90023CCE70000000000004C
:100B00003000000030B5B0F10A024FEA900E71F1EA
:100B100000034EEA817EB0EB0E0061EB91014FEADB
:100B2000101E4EEA017E10EB0E0041EB11114FEA50
:100B3000102E4EEA016E10EB0E0041EB11214FEA30
:100B4000104E4EEA014E10EB0E0041EB11414018E1
:100B500041F100014FEAD00040EA41704FEAD10173
:100B600010EB80054FEA810444EA907444EB0104E1
:100B70006D1944EB0404521BA3414FF0000348BF1E
:100B80000A3200D530BD401C41F1000130BD704734
:100B90002DE9FF4F0C461E464FF0FF378BB0D2E9D0
:100BA0000001DDF860800A908A46C1F30A5505B954
:100BB0003D46002108464FF00000BAF1000F00F456
:100BC000400005DA00EB80004FF4400101EA5000DC
:100BD0004FEA9059B9F1010F00DDB9460A9850EA81
:100BE0004A000ED044F61050A5F2FF3545432F14AD
:100BF000B8F1000F1ED07542291E1EDDC9F100029A
:100C00001CE0B8F1010F4FF0000001D0302103E0EB
:100C1000F24305E02154401CB042FBDB3046002289
:100C2000002121540B99C1F80880C1E900200FB0C0
:100C3000BDE8F08FBD1B6D1CDEE74A4600DA694255
:100C400006A800F05DFA06AB93E8070003AB83E863
:100C5000070050460A9900F0CFFA8DE80700A0F58A
:100C600000501F3800900398002D09DD42F21F014B
:100C70004A46084403A90390684600F02EFD08E0A8
:100C8000A0F500504A461F3803A90390684600F0BB
:100C900038FD8DE807000004000C03D04FF0FF3052
:100CA000410800E01046B8F1000F03D00022009286
:100CB00015461EE0751E05D4FFF724FF303262553D
:100CC0006D1EF9D5B3460122084302D000227F1CD5
:100CD00004E02078302801D100227F1E002A0997E5
:100CE00086D01DE0112D07DAFFF70CFF3032625578
:100CF0006D1C50EA0102F5D1084302D00098C8B13A
:100D00000EE00021681E05E0235C625C63542254FF
:100D1000401E491C8142F7DBAB46A81B401E0990D0
:100D2000002004F80B000B98099AC0F80880C0E96D
:100D3000002B7CE711264FF0000859E72DE9F04F12
:100D400088460446D21D22F0070191B0D1E9000186
:100D5000CDE90A0101F09BFC02460B98C00F01D0BF
:100D60002D2007E02068810701D52B2002E02021FB
:100D700001EAC000032A099001D0072A05DB0346D7
:100D80004146204600F07CF90BE12078800601D531
:100D9000E06900E00620B8F1650F814606D0B8F1A1
:100DA000660F18D0B8F1670F70D131E00020B9F1AB
:100DB000110F009001DB112301E009F101030AAAE0
:100DC00001A90CA8FFF7E4FEDDE90C70002609F18B
:100DD0000105834647E001204B4600904FF0004755
:100DE0000AAA01A90CA8FFF7D3FEDDE90DB00C9902
:100DF0005D46002610B909F101000D18B9EB050098
:100E000003D4C0F1FF3609F10105A5EB09002BE081
:100E1000B9F1010F01DA4FF001090020B9F1110F0A
:100E20000090484601DD112300E003460AAA01A90B
:100E30000CA8FFF7ADFEDDE90C704D460026834699
:100E4000207800070AD4AB4500DA5D4601A8012DE1
:100E500004DD411911F8011C302907D04F4502DA91
:100E600017F1040F04DA012082460FE06D1EEEE751
:100E7000002F02DCED1B3E4403E0781CA84200DD9D
:100E80007D1CB81B00F1010A4FF0004720780007D5
:100E900003D4AA4501DB4FF0FF3A0021B7F1004F20
:100EA0000DF143088DF8431024D002202B23002F8E
:100EB00001DA7F422D230A21021EA0F1010000DC8D
:100EC0005FB197FBF1FC97FBF1F201FB1C7C17462D
:100ED0000CF1300C08F801CDEEE7A8F10100037029
:100EE0002188090501D5452100E06521A0F101080F
:100EF00000F8011C09980FA9A1EB0807FF1D00B11C
:100F00000120411901EBEA70A1693844081A401E1A
:100F1000A0612078C00602D42046FFF723FA099882
:100F200028B1D4E901219047206A401C2062207832
:100F3000C00622D52046FFF715FA1EE0002E04DB7E
:100F4000B34502DD01A8805D00E03020D4E9012135
:100F50009047206A401C2062761CAAF101005FEADB
:100F6000000A0AD100F088F8C0680168405CD4E942
:100F700001219047206A401C2062281EA5F101052E
:100F8000DCDC07E0D4E9012118F8010B9047206A66
:100F9000401C2062381EA7F10107F3DC2046FFF752
:100FA000F7F9032011B043E610B5436913B1AFF36D
:100FB000008001E0FFF7D2FC012010BD128800F193
:100FC000240182840022C2840122EDE711684FF0DF
:100FD000FF32E9E7007B00F08000704770B51646ED
:100FE0000C46054600F040F8036893F8010101281B
:100FF00006D0FF2C0FD8185D68B101202C7070BD91
:10100000D3F807013246214603F20713034428466A
:10101000BDE8704018474FF0FF3070BD754600F0D6
:10102000E7F8AE4605006946534620F007008546BE
:1010300018B020B5FFF74EF9BDE820404FF000068C
:101040004FF000074FF000084FF0000B21F00701B0
:10105000AC46ACE8C009ACE8C009ACE8C009ACE8F3
:10106000C0098D467047000010B500F005F8001D5E
:1010700010BD00BF593A000000487047C0B10020C1
:101080002DE9F0411F46044603260168072A01F4B2
:10109000006004DB08B116A505E016A503E008B161
:1010A00015A500E015A521F010002060A069C01E64
:1010B000A0610FB1401EA0612046FFF753F94FB168
:1010C000D4E9012138469047206A401C2062C01CA8
:1010D000206206E0206AFAE7D4E9012115F8010B45
:1010E0009047761EF8D22046FFF752F9BDE8F0810E
:1010F0004E414E006E616E00494E4600696E6600BC
:101100002DE9F047814616468AB0334878440DC829
:101110008DE80D0030487844801C03AC0DC884E88D
:101120000D0041F69B300844372190FBF1F290FB13
:10113000F1F5A5F1800501FB12041B3C02D56442C8
:10114000012000E00020DFF890A080460027FA444C
:10115000AAF1BE0A0DE0E00709D03246684607EB67
:1011600047010AEB810100F0CCFA8DE8070064101A
:101170007F1C002CEFD1184F7F44AC3F18E0E807EC
:1011800014D007EB04100DF1180A90E80E008AE85D
:101190000E00C068F04201D198190890324606A9A5
:1011A00003A800F0AEFA03AB83E807006D10641CDF
:1011B000002DE4D132466946B8F1000F03A802D0F1
:1011C00000F08BFA01E000F09CFAC9E90001C9F8CF
:1011D00008200AB0BDE8F087D43A000010B50446F4
:1011E000AFF300802046BDE81040FFF75EB8000076
:1011F00000487047A0B100205FEA400C08BF91F0A2
:10120000000F4FEA8C234FEAC12243EA51514FEAC3
:101210001C5018BF00F5F0404FEA300018BF41F0F5
:1012200000415FEA6C5C00F02980BCF1FF3F08BF21
:1012300040F080407047130C06BF12044FF0100CB2
:101240004FF0000C130E04BF12020CF1080C130F28
:1012500004BF12010CF1040C930F04BF92000CF1B7
:10126000020CD30F04BF52000CF1010C11464FF0D9
:101270000002A0F11F00A0EB0C00704711F0004F1E
:1012800008BF704731F000413FF4D5AF0B0C06BFEB
:1012900009044FF0100C4FF0000C0B0E04BF0902B4
:1012A0000CF1080C0B0F04BF09010CF1040C8B0F9F
:1012B00004BF89000CF1020CCB0F04BF49000CF1F4
:1012C000010CCCF12003A0EB0C0022FA03F302FA8C
:1012D0000CF241EA030100F10100704720F07F4C5D
:1012E00080EA030023F07F47ACEB070303F57C5350
:1012F00000F0004003F1FF032DE980494FEA154B50
:1013000009B44FEA144325EA0B4E24EA03480FF2CE
:10131000042606EB132749083E785FEA320203FBF6
:101320000667C7F5000707FB06F64FEA54374FEA92
:10133000D64606F1020607FB066CCCF1005C4FEACC
:101340001C472CEA074C07FB06F40CFB06F504EBE4
:1013500015464FEA961634BF00204FF000404FEA82
:10136000D13706FB07FC4FEA1C4C0CFB0BF7D21BDA
:1013700003FB0CF761EB07010CFB0EF7B0EB07402A
:1013800072EB17420CFB08F734BFA2EB0742B2EB3B
:10139000074261EB17414FEA0C444FEA910706FB05
:1013A00007FC4FEA1C4C0CFB0BF7B0EBC74072EB91
:1013B000573203FB0CF734BFA2EBC742B2EBC74274
:1013C00061EB57310CFB0EF7B0EBC70072EB5772B5
:1013D0000CFB08F734BFA2EBC702B2EBC70261EB0C
:1013E0005771039F4FEA816141EA921104EBCC04EB
:1013F0004FEAD1374FEA826206FB07FC42EA9012BD
:101400004FEA80604FEA1C4C0CFB0BF7D21B03FB2E
:101410000CF761EB07010CFB0EF7B0EB074072EB2A
:1014200017420CFB08F734BFA2EB0742B2EB0742AE
:1014300061EB17414FEA8C554FEA910704EB9C246E
:1014400006FB07FC4FEA1C4C0CFB0BF7B0EBC7404C
:1014500072EB573203FB0CF734BFA2EBC742B2EB7F
:10146000C74261EB57310CFB0EF7B0EBC70072EBD4
:1014700057720CFB08F734BFA2EBC702B2EBC702EE
:1014800061EB577115EB4C254FEA816141EA9211EE
:101490004FEA82624FEAD13742EA901206FB07FC1C
:1014A00044F100044FEA80604FEA1C4C0CFB0BF740
:1014B000D21B03FB0CF761EB07010CFB0EF7B0EB43
:1014C000074072EB17420CFB08F734BFA2EB074250
:1014D000B2EB074261EB174115EB1C154FEA813166
:1014E00041EA92414FEA823242EA90424FEA80302A
:1014F0004FEA0C7644F1000448EA03434EEA0B48F5
:101500004FF0000EB2EB080C71EB030724BF6246EC
:1015100039464EEB0E0E4FF0000B00185241494178
:101520004BEB0B0BB2EB080C71EB03077BF1000BE1
:1015300024BF624639464EEB0E0E4FF0000B0018EA
:10154000524149414BEB0B0BB2EB080C71EB03071B
:101550007BF1000B24BF624639464EEB0E0E51EA7A
:10156000020718BF46F0010616EB0E7655F1000291
:1015700054F1000103D5BDE88901BDE80088BDE84C
:101580008901BDE80048B619524141EB0101A3F1C0
:101590000103704780807F7E7D7C7B7A79787776C7
:1015A00076757473727171706F6E6E6D6C6C6B6A40
:1015B0006A696868676666656464636362616160DE
:1015C000605F5F5E5E5D5D5C5C5B5B5A5A5959585B
:1015D00058575756565555555454535352525251C5
:1015E000515050504F4F4F4E4E4D4D4D4C4C4C4B1B
:1015F0004B4B4A4A4A494949484848474747474662
:10160000464645454544444444434343434242429D
:1016100042414141002B26D4770021D01CB54FEA2E
:10162000370703B44FF010004FF010014FF00000E7
:101630000FBCBDE810400BF1010BBBF1010F08BF5F
:101640005FEA170722BF12F1010211F101014FF009
:10165000004143F1000300F0004043EA00007047FE
:10166000F9D35708DAE746EA064613F1400F4FEA86
:1016700016461FDD13F1200FDFBF16430A46002177
:1016800020335B42C8D0C3F1200746EA064602FA7F
:1016900007F74FEA164646EA0706C3F1200722FA83
:1016A00003F201FA07F721FA03F14FF0000342EACF
:1016B0000702B1E746EA020646EA06464FEA164640
:1016C00046EA0106BCBF46EA0646360C4FF0000368
:1016D0004FF000024FF000019EE72DE9C04893460D
:1016E00030B491E8380007C831EA400C48BF34EA0A
:1016F000430C03D5FFF7F2FDFFF78CFFF0BCBDE80C
:1017000000882DE9C048934630B491E8380007C8F6
:1017100010F0804F08BF13F0804F03D100F005F8A0
:10172000FFF778FFF0BCBDE8008820F07F4780EA33
:10173000030023F07F4C07EB0C03A3F57C5300F070
:101740000040A3F1FE0392F0000F00F0B38095F08B
:10175000000F00F077802DE901494FEA11404FEA70
:10176000144621EA004800FB06FC24EA064708FB71
:1017700006F607FB08F800FB07F718EB06484CEBEA
:10178000164C4FEA124B18EB07484FEA15464CEB44
:10179000174022EA0B4E0BFB06FC25EA06470EFB20
:1017A00006F607FB0EFE0BFB07F71EEB064E4CEB97
:1017B000164C4FF000061EEB074E4CEB174B18EB88
:1017C0000B0840F1000018EB0E0B58EB000840F13D
:1017D00000008F1A4FF000013CBFC943661B14BFC5
:1017E000B5EB040C00213CBFC943F61B4FEA17447C
:1017F0004EEA8E0E27EA04454FEA1C4704FB0762B7
:101800002CEA074C05FB07F70CFB05F604FB0CFC68
:1018100016EB074642EB174216EB0C4642EB1C4216
:101820001BEB060658EB0202414146EA9E0601D533
:10183000BDE80189B619524141EB0101A3F1010351
:10184000BDE801894FEA14454FEA114724EA0546ED
:1018500021EA074C05FB07F406FB07F70CFB06F132
:1018600005FB0CFC11EB074144EB17444FEA124710
:1018700011EB0C4144EB1C4422EA074C05FB07F238
:1018800006FB07F70CFB06F605FB0CFC16EB074600
:1018900042EB174216EB0C4642EB1C456A1854F11A
:1018A000000148BF7047B619524141EB0101A3F155
:1018B0000103704795F0000F37D04FEA11424FEA0D
:1018C000144721EA024624EA074C02FB07F106FB13
:1018D00007F70CFB06F402FB0CFC14EB074441EB8E
:1018E00017414FEA154714EB0C4441EB1C4125EA24
:1018F000074C02FB07F506FB07F70CFB06F602FB9D
:101900000CFC16EB074645EB174516EB0C4645EB72
:101910001C42121951F1000148BF7047B6195241DB
:1019200041EB0101A3F1010370474FEA14454FEA6F
:10193000114724EA054621EA074C05FB07F106FB9F
:1019400007F70CFB06F24FF0000605FB0CFC12EB50
:10195000074241EB174112EB0C4251EB1C4148BFCF
:101960007047921841EB0101A3F101037047000099
:1019700008B50121082000F079FA4FF48070ADF825
:10198000000010208DF8030003208DF80200694646
:10199000044800F0C0F84FF48071024800F04FF99D
:1019A00008BD0000000C014000BFFEE710B5002498
:1019B0001548406820F47040134948600846406864
:1019C00040F40040486004E0601CC4B2012001F013
:1019D0004DFC0E48006808B1642CF5DB642C01DB7B
:1019E000012010BD002404E0601CC4B2012001F0FD
:1019F0003DFC0648006808B9642CF5DB642C01DB6B
:101A00000120EEE70020ECE7002001402C012442F9
:101A100010B5002404E0601CC4B2012001F026FCD3
:101A20000D48006808B1642CF5DB002404E0601C5C
:101A3000C4B2012001F01AFC0748006808B9642C00
:101A4000F5DB282001F012FC0348006808B10120F2
:101A500010BD0020FCE700002C01244270B50024DA
:101A6000002506E06006040EFFF7D2FF0443681C61
:101A7000C5B2082DF6DB204670BD7CB505460E4686
:101A800000F028F8FFF792FFF8B9002405E0FFF70F
:101A9000E5FF0DF80400601CC4B2052CF7DB9DF8CF
:101AA00000009DF8011008449DF8021008449DF8BC
:101AB000031008449DF80410884208D19DF80000E6
:101AC00030709DF80200287001E001207CBD0020EC
:101AD000FCE7000010B50C48406820F470400A494B
:101AE00048600846406840F440504860002007497C
:101AF0000860142001F094FB01200549C1F8AC01F5
:101B00001E2001F0B3FB10BD00200140AC012442B7
:101B10000000244270472DE9F041024600250026CE
:101B2000002000230024002791F803C00CF00F05CB
:101B300091F803C00CF0100CBCF1000F03D091F829
:101B400002C04CEA050591F800C0BCF1000F31D08D
:101B5000146800202BE04FF0010C0CFA00F3B1F8F0
:101B600000C00CEA03069E4220D183004FF00F0C08
:101B70000CFA03F7BC4305FA03FC4CEA040491F8A1
:101B800003C0BCF1280F06D14FF0010C0CFA00FC89
:101B9000C2F814C00AE091F803C0BCF1480F05D1A7
:101BA0004FF0010C0CFA00FCC2F810C0401C0828D1
:101BB000D1D31460B1F800C0BCF1FF0F34DD54681C
:101BC00000202EE000F1080C4FF0010808FA0CF399
:101BD000B1F800C00CEA03069E4221D183004FF009
:101BE0000F0C0CFA03F7BC4305FA03FC4CEA04049F
:101BF00091F803C0BCF1280F05D100F1080C08FAD8
:101C00000CF8C2F8148091F803C0BCF1480F07D15A
:101C100000F1080C4FF0010808FA0CF8C2F8108027
:101C2000401C0828CED35460BDE8F0810246002055
:101C300093680B400BB1012000E000207047416128
:101C400070470161704700BFFEE7000008B5012141
:101C5000442000F00BF91C20ADF8000048208DF85E
:101C6000030069460648FFF756FF0120ADF8000063
:101C700028208DF8030069460248FFF74CFF08BD95
:101C8000001801400008014010B5044614B10120BD
:101C90002C4908702B480078002837D010212A489A
:101CA000FFF7C4FF78B108212748FFF7BFFF50B105
:101CB00004212548FFF7BAFF28B101212348FFF787
:101CC000B5FF012822D10A2001F0AAFA00201D49FF
:101CD000087010211C48FFF7A9FF08B9012010BDAA
:101CE00008211948FFF7A2FF08B90220F7E70421ED
:101CF0001548FFF79BFF08B90320F0E701211348BF
:101D0000FFF794FF01281BD10420E8E710210E48BB
:101D1000FFF78CFF012813D108210B48FFF786FF3E
:101D200001280DD104210848FFF780FF012807D1C1
:101D300001210648FFF77AFF10B901200149087018
:101D40000020CCE71E0000200018014000080140E0
:101D500008B50121482000F089F82020ADF80000E6
:101D600010208DF8030003208DF802006946094811
:101D7000FFF7D1FE20210748FFF763FF2020ADF8D1
:101D8000000069460448FFF7C6FE20210248FFF71D
:101D900058FF08BD000C01400018014000BFFEE7DD
:101DA0007047000070B5002100230F22C47804B3EF
:101DB000154C246804F4E064C4F5E064210AC1F120
:101DC0000403CA40447804FA03F1847814402143A0
:101DD00009010E4C0678A155047804F01F05012472
:101DE000AC4005786D11AD0005F1E025C5F8004166
:101DF00009E0047804F01F050124AC40044D067886
:101E0000761145F8264070BD0CED00E000E400E0DE
:101E100080E100E002490143024A1160704700007E
:101E20000000FA050CED00E07047000029B1064AF9
:101E3000D2690243044BDA6104E0034AD269824367
:101E4000014BDA61704700000010024029B1064AD8
:101E500012690243044B1A6104E0034A1269824387
:101E6000014B1A61704700000010024029B1064A78
:101E700092690243044B9A6104E0034A92698243E7
:101E8000014B9A61704700000010024029B1064AD8
:101E9000D2680243044BDA6004E0034AD26882430A
:101EA000014BDA60704700000010024030B500219D
:101EB0000022002400232D4D6D6805F00C0121B196
:101EC000042905D0082923D105E0294D056022E029
:101ED000274D05601FE0254D6D6805F47012234DF8
:101EE0006D6805F48034022505EB92421CB9214D42
:101EF000554305600BE01D4D6D6805F400351DB1BF
:101F00001C4D5543056002E0194D5543056002E044
:101F1000174D056000BF00BF144D6D6805F0F0015E
:101F20000909154D6B5C0568DD4045600F4D6D6816
:101F300005F4E061090A104D6B5C4568DD40856081
:101F40000A4D6D6805F46051C90A0B4D6B5C45681C
:101F5000DD40C560054D6D6805F44041890B074DB6
:101F60006B5CC568B5FBF3F5056130BD0010024040
:101F700000127A0000093D002600002036000020F3
:101F8000704710B500F002F810BD00000CB500203D
:101F9000019000903348006840F480303149086077
:101FA00000BF3048006800F4003000900198401CE9
:101FB0000190009818B90198B0F5A06FF1D12948A7
:101FC000006800F4003010B10120009001E0002012
:101FD00000900098012843D12348006840F0100089
:101FE000214908600846006820F0030008600846A0
:101FF000006840F0020008601A48406819494860CB
:102000000846406848600846406840F48060486080
:102010000846406820F47C1048600846406840F458
:10202000E81048600846006840F08070086000BF13
:102030000C48006800F000700028F9D0094840689A
:1020400020F00300074948600846406840F002005D
:10205000486000BF0348406800F00C000828F9D130
:102060000CBD00000010024000200240042808D1EE
:102070004FF0E021096941F004014FF0E0221161C5
:1020800007E04FF0E021096921F004014FF0E02260
:10209000116170477047000010B51348006840F0A8
:1020A00001001149086008464068104908400E497F
:1020B0004860084600680E4908400B490860084619
:1020C000006820F4802008600846406820F4FE0084
:1020D00048604FF41F008860FFF753FF4FF0006027
:1020E0000449086010BD0000001002400000FFF825
:1020F000FFFFF6FE08ED00E010B501210A4800F0F0
:102100007FF801280AD1094908698047002106485B
:1021100000F092F86421044800F08CF80121024894
:1021200000F053F810BD00000008004094000020AB
:1021300010B50121094800F063F868B1084800882B
:1021400040F40040064908800121044800F03DF8B1
:102150000021024800F03CF810BD000000140040CF
:10216000240000207FB505460C4601212020FFF702
:102170005DFEADF80450ADF800400020ADF806005B
:10218000ADF8020069460E4800F058F801221146E9
:102190000B4800F046F80121094800F019F83720F3
:1021A0008DF80C0000208DF80D0002208DF80E0037
:1021B00001208DF80F0003A8FFF7F4FD7FBD00009C
:1021C00000140040CA4302827047CA43028270472B
:1021D00021B1028842F00102028004E002884FF639
:1021E000FE731A40028070470146888C7047024691
:1021F0000020138A0B400BB1012000E00020704743
:1022000030B50246002000230024158A05EA0103A8
:10221000958905EA010413B10CB1012000E000200A
:1022200030BD1AB183890B43838102E083898B43DC
:1022300083817047818570478184704700220288BE
:102240001D4B98420ED01D4B98420BD0B0F1804FE1
:1022500008D01B4B984205D01A4B984202D01A4B1B
:10226000984204D14FF68F731A404B881A43174B8C
:10227000984207D0164B984204D04FF6FF431A40BD
:10228000CB881A4302808B8883850B8803850A4B91
:1022900098420BD0094B984208D00E4B984205D07B
:1022A0000D4B984202D00D4B984201D10B7A038618
:1022B0000123838270470000002C0140003401405C
:1022C0000004004000080040000C004000100040E6
:1022D000001400400040014000440140004801401B
:1022E0007FB505460C4601210420FFF79FFDADF8A0
:1022F0000850ADF804400020ADF80A00ADF8060023
:1023000001A90D48FFF79AFF012241210A48FFF772
:1023100088FF1E208DF8000003208DF801008DF845
:10232000020001208DF803006846FFF73BFD012104
:102330000148FFF74DFF7FBD0008004010B540F297
:1023400025511D4800F0DDF810B31B4800F094F94A
:10235000C4B21A48008800F40040C8B91748008881
:1023600000F4804060B10A2C03D00020134908809B
:1023700020E01248008840F400401049088019E02D
:102380000D2C06D10D48008840F480400B49088090
:1023900010E00A480088C0F30D0009490C540748B2
:1023A0000088401C0549088008460088C72801DDD0
:1023B0000020088010BD0000003801401C000020F3
:1023C0000C02002010B540F22551164800F099F893
:1023D000F8B1144800F050F9C4B21348008800F472
:1023E0000040B0B910480088B0F5167F12DA00211D
:1023F0000E48FFF721FF0C48008818B901210B484F
:10240000FFF7E6FE08490888411C074A1180084981
:102410000C5405E00448008840F40040024908805C
:1024200010BD0000004800402400002000140040BF
:10243000D402002021B1828942F40052828104E05A
:1024400082894DF6FF731A408281704710B50446A9
:102450002048844209D101218803FFF717FD00219C
:102460004FF48040FFF712FD32E01B48844209D14F
:1024700001214804FFF7EAFC00214FF40030FFF788
:10248000E5FC25E01548844209D101218804FFF7C5
:10249000DDFC00214FF48020FFF7D8FC18E0104845
:1024A000844209D10121C804FFF7D0FC00214FF478
:1024B0000020FFF7CBFC0BE00A48844208D1012141
:1024C0000805FFF7C3FC00214FF48010FFF7BEFCA6
:1024D00010BD0000003801400044004000480040AA
:1024E000004C00400050004002460020B1F5007F43
:1024F00000D100BF13880B400BB1012000E0002089
:10250000704770B50246002400230025002040F6E5
:102510006A16B14200D100BFC1F3421501F01F039A
:10252000012606FA03F3012D02D19689334006E015
:10253000022D02D1168A334001E0968A33400C12F4
:10254000012606FA04F41688344013B10CB10120B8
:1025500000E0002070BDF0B50346002400260025F1
:10256000002040F66A17B94200D100BF1846C1F3F7
:10257000421401F01F06012707FA06F5012C01D1CC
:102580000C3004E0022C01D1103000E014301AB1FC
:1025900007682F43076002E00768AF430760F0BD9C
:1025A0002DE9F04786B005460E460024A24600BF3E
:1025B000A1460027B08900B100BF2F462C8A4CF6F7
:1025C000FF700440F08804432C82AC894EF6F3106F
:1025D0000440B08831890843718908430443AC81C1
:1025E000AC8A4FF6FF400440B0890443AC8201A896
:1025F000FFF75CFC1F48874202D1DDF810A001E024
:10260000DDF80CA0A88900F4004040B10AEBCA0034
:1026100000EB0A1031684900B0FBF1F807E00AEB63
:10262000CA0000EB0A1031688900B0FBF1F86420A1
:10263000B8FBF0F004012009642101FB1089A8898E
:1026400000F4004040B1322000EBC900B0FBF1F0D3
:1026500000F00700044308E0322000EB0910642179
:10266000B0FBF1F000F00F0004432C8106B0BDE890
:10267000F08700000038014001468888C0F3080058
:102680007047C1F308028280704700BFFEE749002F
:1026900050EAC12018BF04204A0D18BF40F00100C5
:1026A00040F2FF72B2EB515F08BF40F00200012818
:1026B00008BF0520704730380A2801D20120704732
:1026C00000207047014600BF704700002DE9F04F21
:1026D00087B000270024D14B0FCB03AD0FC540F2CC
:1026E000E735A046A14610E000F0A0FCC822CCA12E
:1026F000CCA000F0D3FCCFA0FDF712FE4FF4487041
:1027000000F08EFDD0A0FDF70BFE1422C4A1D3A0D3
:1027100000F0C4FC0028E7D100BF1422C0A1D0A063
:1027200000F0BCFC0028F8D1CFA0FDF7F9FDD5A042
:10273000FDF7F6FD00221146104600F043FB6CE168
:102740000A2000F06DFD012000F0B8FAD0A0FDF7DE
:10275000E7FDD5A0FDF7E4FD2021002000F0C8FE34
:10276000834600BF04F0020000281BD0C8A0FDF77C
:10277000D7FDD7A0FDF7D4FDDD4803AADDA103688E
:102780005846FDF7D9FD6422A5A1E1A000F086FC22
:1027900000BF4FF4FA72A2A1584600F07FFC002857
:1027A000F7D146E004F0010000282CD0B8A0FDF7D6
:1027B000B7FDC7A0FDF7B4FD142299A1D4A000F085
:1027C0006DFCCB4803AAD5A103685846FDF7B4FDBC
:1027D0000CE0D9A0FDF7A4FDDBA0FDF7A1FD0020D2
:1027E000FFF752FA0646042E00D1BBE7C8228CA19F
:1027F000584600F053FC0028EBD1C82288A1D9A08C
:1028000000F04CFC15E0A2A0FDF78AFDB0A0FDF79A
:1028100087FD142282A1D7A000F040FCB448D8A1C3
:1028200002685846FDF788FD14227DA1584600F045
:1028300035FCD8A0FDF774FDC82000F0F1FCDBA04A
:10284000FDF76EFD03A800F093FAA94803AADFA1E3
:1028500003685846FDF770FD5946E1A0FDF760FD9D
:10286000E1480068E1490968CDE90010E048E1A2CB
:10287000B42103681E2000F079FCE44850F82410CD
:10288000E3A0FDF74DFD0020E4490880C4E00020EE
:10289000FFF7FAF90646042E0DD100F0C7FB14220B
:1028A0005FA160A000F0FAFB5946002000F00EFE88
:1028B00007B0BDE8F08F012E5CD1032C01D0022CB3
:1028C0001DD10A2095FBF0FAD04850F82420534639
:1028D000D3A15846FDF730FD5946D7A0FDF720FD9E
:1028E000C8224FA1D8A000F0D9FBC82000F098FC66
:1028F00064224BA1584600F00BFC64273AE0012CFF
:102900001BD100F093FB142245A1D3A000F0C6FB1D
:102910000A2095FBF0FABD4850F824205346C0A188
:102920005846FDF709FD5946C3A0FDF7F9FC594685
:10293000CCA000F059FF64271CE00A2095FBF0FAB8
:10294000B24850F824205346B5A15846FDF7F4FC90
:102950005946B9A0FDF7E4FCC82231A1C2A000F09D
:102960009DFBC82000F05CFC64222DA1584600F0BD
:10297000CFFB64270FB1781EC7B2681C85B2052053
:1029800000F04EFCA548008800F4004000B3A348C6
:102990000088C0F30E080020B74901F8080042463D
:1029A000B6A15846FDF7C8FC59468DA0FDF7B8FC06
:1029B000B149B7A0FDF7B4FC002098490880AE49A2
:1029C000204600F0B7FDB9F12B0F02D04FF47A7515
:1029D00000E00025B5F57A7F0DD100F0A7F981461A
:1029E000B9F12B0F03D1AEA0FDF79AFC02E0AFA026
:1029F000FDF796FC0025142095FBF0F100FB11502B
:102A000038B9AD48006808B9012000E00020AA49A3
:102A10000860012000F052F939E791E6FC4A00080D
:102A20004F4B000041542B4349504D4F44453D30DE
:102A300000000000CEB4BCECB2E2B5BDC4A3BFE957
:102A40002121210D0A000000B3A2CAD4C1ACBDD31C
:102A5000C4A3BFE92E2E2E0D0A0000004154000031
:102A6000415445300000000041544B5F45535038FD
:102A70003236362057494649C4A3BFE9B2E2CAD428
:102A80000D0A0000574946492041500D0A00000038
:102A900041544B2D45535020574946492D41502014
:102AA000B2E2CAD40D0A0000D5FDD4DAC5E4D6C31B
:102AB00041544B2D45535038323636C4A3BFE9A399
:102AC000ACC7EBC9D4B5C82E2E2E0D0A00000000ED
:102AD000D5FDD4DAC5E4D6C341544B2D455350C47B
:102AE000A3BFE92CC7EBC9D4B5C82E2E2E0D0A0002
:102AF0008801002041542B43495053544152543DC6
:102B000022554450222C222573222C2573000000CC
:102B100041542B4349504D55583D300041542B43AF
:102B2000495053544152543D22544350222C2225A3
:102B300073222C2573000000574B5F55503AB7B5F0
:102B4000BBD8D6D8D1A1000041544B2D45535020BD
:102B5000C1ACBDD354435020536572766572CAA789
:102B6000B0DC000041542B4349504D4F44453D31AA
:102B70000000000041542B4349504D55583D310051
:102B800041542B4349505345525645523D312C2513
:102B900073000000C5E4D6C341544B2D455350C4C7
:102BA000A3BFE9B3C9B9A6210D0A0000574B5F5571
:102BB000503ACDCBB3F6B2E2CAD420204B455930BF
:102BC0003AB7A2CBCDCAFDBEDD0D0A004950B5D83B
:102BD000D6B73A257320B6CBBFDA3A25730000008A
:102BE00025730D0A00000000A00100209C010020B8
:102BF00098010020C7EBD3C3C9E8B1B8C1ACBDD3BD
:102C000057494649C8C8B5E33A000000B001002062
:102C1000D7B4CCAC3A25730D0A0000002400002084
:102C200041544B2D383236362573B2E2CAD42530A2
:102C300032640D0A00000000B7A2CBCDCAFDBEDD94
:102C40003A25730D0A00000041542B434950534567
:102C50004E443D323500000041542B43495053450A
:102C60004E4400002573000041542B434950534506
:102C70004E443D302C323500D4020020CAD5B5BDBB
:102C80002564D7D6BDDA2CC4DAC8DDC8E7CFC200C8
:102C9000BDD3CAD5CAFDBEDD3A25730D0A000000BA
:102CA000C1ACBDD3B3C9B9A60D0A0000C1ACBDD338
:102CB000CAA7B0DC0D0A00009481214210B5044679
:102CC0000A48008800F4004070B1002007490988D4
:102CD000C1F30E01064A5054114606A0FDF720FB31
:102CE00014B100200149088010BD0000240000201C
:102CF000D40200202573000070B504460025094861
:102D0000008800F4004058B1002006490988C1F34A
:102D10000E01054A505421461046FDF7BDFC0546FC
:102D2000284670BD24000020D402002070B500F0B9
:102D30007DF908B1002070BD322205A105A000F088
:102D4000ADF908A0FFF7D8FF05462C782046F2E73A
:102D50003A00000041542B434950535441545553B9
:102D6000000000002B4349505354415455533A003E
:102D700070B5054632220DA10DA000F08FF910B1FB
:102D80000020287070BD0DA0FFF7B6FF04460BA110
:102D9000601CFDF781FC064600203070621C08A113
:102DA0002846FDF7C9FA00BFECE700004F4B0000D2
:102DB00041542B43494653520000000022000000BA
:102DC000257300002DE9F0478046894617462021EB
:102DD000002000F08DFB04462021002000F088FB3D
:102DE00005462021002000F083FB06461F2059499C
:102DF0000880142258A159A000F050F9142256A1BD
:102E000059A000F04BF94FF47A7000F009FA4FF432
:102E10007A7000F005FA4FF47A7000F001FA4FF47E
:102E20007A7000F0FDF952480368524852A10268D6
:102E30002046FDF781FA4FF47A7247A1204600F050
:102E40002DF9002F77D1142243A151A000F026F9CB
:102E500051A0FFF751FF044653A104F10C00FDF708
:102E60001BFC05460020287050A153A0FDF758FA1E
:102E700004F10C0151A0FDF753FA142250A153A004
:102E800000F00CF94BA0FFF737FF044652A0FDF706
:102E900047FA60783138534A52F8201047A0FDF7BE
:102EA0003FFA142250A152A000F0F8F853A0FFF707
:102EB00023FF044651A1601CFDF7EEFB05462E469C
:102EC000002028704EA0FDF72BFA611C3BA0FDF7F7
:102ED00027FA4AA1701CFDF7DFFB044647A1601CDE
:102EE000FDF7DAFB05462E460020287046A0FDF7C8
:102EF00017FA611C31A0FDF713FA45A1701CFDF70C
:102F0000CBFB044642A1601CFDF7C6FB0546002032
:102F1000287040A0FDF704FA611C28A0FDF700FA14
:102F20003EA0FDF7FDF9687830383F4A52F820108E
:102F300022A0FDF7F5F92146002000F0C7FA294646
:102F4000002000F0C3FA3146002000F0BFFABDE8CF
:102F5000F0870000200000204F4B000041542B431D
:102F6000574D4F44453D320041542B5253540000BD
:102F7000A00100209801002041542B435753415099
:102F80003D222573222C222573222C312C34000063
:102F900041542B474D52000053444B2076657273C9
:102FA000696F6E3A0000000028000000B9CCBCFE3A
:102FB000B0E6B1BE3A0000002573000025730A0098
:102FC0002B43574D4F44453A0000000041542B43DA
:102FD000574D4F44453F0000CDF8C2E7C4A3CABDDA
:102FE0003A000000A40100202B43575341503A00FF
:102FF00041542B43575341503F0000002200000032
:1030000053534944BAC53A00C3DCC2EB3A0000004E
:103010002C000000CDA8B5C0BAC53A00BCD3C3DCB3
:10302000B7BDCABD3A000000BC01002010B500BF0A
:103030001748008800F040000028F9D02B201449E0
:10304000091D08800F2000F0EBF800BF1048008831
:1030500000F040000028F9D02B200D49091D088000
:103060000F2000F0DDF800BF0948008800F04000A4
:103070000028F9D02B200649091D08804FF4FA706A
:1030800000F0CEF8142203A103A000F007F810BD51
:10309000004800404F4B0000415400002DE9F04132
:1030A00006460D4614460027002013490880314685
:1030B00012A000F099FBE5B1DCB113E00A2000F0AA
:1030C000AFF80D48008800F4004058B12846FFF7DB
:1030D00013FE20B129460BA0FDF722F906E00020DF
:1030E00005490880601E80B2041EE7D100BF04B904
:1030F00001273846BDE8F0812400002025730D0A21
:103100000000000061636B3A25730D0A00000000A7
:103110002DE9F04106460D461446002700201149CE
:103120000880314610A000F05FFBC5B1BCB10FE0D4
:103130000A2000F075F80B48008800F4004038B110
:103140002846FFF7D9FD00B106E0002005490880B8
:10315000601E80B2041EEBD100BF04B901273846BF
:10316000BDE8F08124000020257300002DE9F04720
:103170008046894614461D46DDE9086721460DA0B4
:10318000FDF7CEF80CA0FDF7CBF829460CA0FDF713
:10319000C7F80DA0FDF7C4F8314609A0FDF7C0F847
:1031A0000CA0FDF7BDF8394605A0FDF7B9F8BDE85C
:1031B000F087000025730000535349443A00000093
:1031C00025730D0A00000000BCD3C3DCB7BDCABD27
:1031D0003A000000C3DCC2EB3A00000010B56FF00B
:1031E0000400FEF743FF0A4800680A49B0FBF1F00B
:1031F000094908700846007800EB4001C1EBC01097
:103200004FF6FF7101EAC0000449088010BD0000BC
:103210000000002000127A00140000201600002098
:103220000146114A12884A434FF0E0235A610022B6
:103230009A611A46126942F001021A6100BF4FF00A
:10324000E022106900F001021AB100F48032002A75
:10325000F5D04FF0E022126922F001024FF0E02396
:103260001A6100229A617047160000200146114A37
:1032700012784A434FF0E0235A6100229A611A46BD
:10328000126942F001021A6100BF4FF0E02210699A
:1032900000F001021AB100F48032002AF5D04FF09C
:1032A000E022126922F001024FF0E0231A610022AD
:1032B0009A6170471400002000BF054A128802F08E
:1032C0004002002AF9D0C2B2014B1B1D1A80704780
:1032D0000038014010B5FFF781FF4FF4A060FEF702
:1032E00099FD4FF4E13000F0A7FA0F4841684820FB
:1032F0008847FEF72DFDFEF7A9FCFEF739FB4FF4DA
:10330000E13000F0E9FA002000F04AF84FF47A705A
:10331000FFF786FF0020054908600549C1F89401C0
:10332000FFF7D4F9002010BD94000020A0812142B5
:10333000000023422DE9F04104460E461548005D89
:1033400038B9144818380168204688470120BDE87C
:10335000F081114850F82400B04219D90F4850F8B4
:103360002400B6FBF0F10B48083850F8240030F880
:103370001120002508E000230648083850F82400F2
:103380004F1920F817306D1C9542F4DB0020DEE762
:103390000220DCE7540000201C4B0008144B0008FE
:1033A00010B504460C4951F824104A000B4951F855
:1033B0002400002100F0B0F8094951F82420074901
:1033C000083951F82400002100F0A6F80121034833
:1033D0000830015510BD00000C4B00084C000020C7
:1033E0001C4B00082DE9F04704460F460025A9466E
:1033F0002348005D20B922481838016820468847D4
:103400001FB94FF0FF30BDE8F0871E4850F8240088
:10341000B7FBF0F61B4850F82400B7FBF0F100FBB7
:10342000117000B1761C184850F82400451E22E0A7
:103430001348083850F8240030F8150010B909F185
:10344000010901E04FF00009B14513D14FF0000828
:1034500009E00B48083850F8240005EB080220F872
:10346000126008F10108B045F3D3064850F8240073
:103470006843C8E76D1E002DDADA4FF0FF30C2E76F
:1034800054000020144B00080C4B000810B50146F6
:103490000023002207E00B4850F8210030F812000A
:1034A00000B15B1C521C084850F821009042F2D831
:1034B00064205843044C54F82140B0FBF4F0C0B2EF
:1034C00010BD00004C0000200C4B000870B50546F4
:1034D0000C4604B970BD054850F82500261A31463F
:1034E0002846FFF727FF00BFF4E700004400002054
:1034F00070B504460E4631462046FFF773FF054679
:10350000681C08B9002070BD024850F82400284407
:10351000F9E700004400002030B5034601E003F85D
:10352000011B141EA2F10102F9D130BD0146086849
:103530007047000070B59CB006460D46002464211B
:1035400003A8FDF7DAF80020029001904FF41671FD
:10355000FFF7CEFF0446012E05D12A4637A12046AB
:10356000FCF7EAFE0AE036A12846FDF795F8044686
:1035700024B1641C214633A0FCF7D2FE38A12046BA
:10358000FDF7E2F850B900203749086037A0FCF792
:10359000C7FE39A1304600F0C7F848E03AA12046FE
:1035A000FDF7D2F850B901202F49086039A0FCF787
:1035B000B7FE3BA1304600F0B7F838E03CA120460A
:1035C000FDF7C2F850B900203C4908603CA0FCF768
:1035D000A7FE3EA1304600F0A7F828E03FA1204614
:1035E000FDF7B2F850B90120344908603DA0FCF75E
:1035F00097FE3FA1304600F097F818E040A1204622
:10360000FDF7A2F898B901A902A8FEF736FA9DF8CD
:1036100004309DF808203CA103A8FCF78DFE03A907
:1036200006A0FCF77DFE03A9304600F07DF8214698
:103630000020FFF74BFF1CB070BD00002573000099
:103640003A000000BDE2CEF6BAF3B5C4C3FCC1EE49
:10365000CEAA283C3EC4DA293A3C25733E0D0A0026
:103660004C454431204F4E0094012342B4F2BFAA8E
:103670004C4544310D0A0000B4F2BFAA4C45443118
:10368000B3C9B9A60D0A00004C454431204F464647
:1036900000000000B9D8B1D54C4544310D0A0000F6
:1036A000B9D8B1D54C454431B3C9B9A60D0A00000B
:1036B00042454550204F464600000000A08121426F
:1036C000B9D8B1D5424545500D0A0000B9D8B1D599
:1036D00042454550B3C9B9A60D0A000042454550C0
:1036E000204F4E00BFAAC6F4424545500D0A0000C7
:1036F000BFAAC6F442454550B3C9B9A60D0A000099
:103700004745542054264800B6C1C8A1A3ACCEC238
:10371000B6C83A2564A1E620CAAAB6C83A256425E7
:103720002552480D0A00000070B586B004460D46CB
:103730000026142101A8FCF7E0FF2846FCF7BEFF95
:10374000C6B2032C01D0022C12D1324619A101A815
:10375000FCF7F2FDC8221BA101A8FFF79FFCC820BF
:10376000FFF75EFD642217A12846FFF7D1FC1FE09A
:10377000012C0BD1FFF75AFC142212A112A0FFF763
:103780008DFC294613A000F02FF811E0324612A15B
:1037900001A8FCF7D1FDC8220AA101A8FFF77EFC11
:1037A000C820FFF73DFD642206A12846FFF7B0FCC4
:1037B00006B070BD41542B43495053454E443D25FE
:1037C000640000004F4B000041542B4349505345C7
:1037D0004E4400002573000041542B43495053458B
:1037E0004E443D302C2564000FB438B505A8009038
:1037F0000F48009A0499FCF781FD002000900C48C6
:10380000FCF75CFF85B200240DE000BF40210948B1
:10381000FEF76AFE0028F9D00548015D0548FEF76D
:1038200030FF601C84B2AC42EFDB38BC5DF814FBA7
:103830002C0500200048004010B586B00446012148
:1038400044F20400FEF712FB4FF40070ADF81400D0
:1038500003208DF8160018208DF8170005A91C48C4
:10386000FEF759F94FF48060ADF8140004208DF88C
:10387000170005A91648FEF74EF925208DF800001F
:1038800003208DF801008DF8020001208DF803005F
:103890006846FEF787FA01940020ADF80800ADF8FD
:1038A0000A00ADF80C00ADF810000C20ADF80E00C9
:1038B00001A90848FEF774FE012240F2255105488F
:1038C000FEF749FE01210348FEF7B4FD06B010BD26
:1038D000000801400038014010B586B004460121BF
:1038E0000820FEF7C3FA01218804FEF79FFA2A4850
:1038F000FEF7ACFD4FF48060ADF8100003208DF8AA
:10390000120018208DF8130004A92448FEF703F9CB
:103910004FF40060ADF8100004208DF8130004A9E6
:103920001E48FEF7F8F800940020ADF80400ADF84A
:103930000600ADF80800ADF80C000C20ADF80A0048
:1039400069461548FEF72CFE01211348FEF772FD6B
:10395000012240F225511048FEF7FDFD27208DF889
:10396000140002208DF8150003208DF816000120A8
:103970008DF8170005A8FEF715FA41F61F4140F231
:10398000E730FEF7EFFB00200549088000210548DD
:10399000FEF71EFC06B010BD00480040000C0140C0
:1039A000240000200014004030B595B0054613AB4C
:1039B00012AA09A9284600F039FA044614B1204693
:1039C00015B030BD0020149026E0224909689DF80A
:1039D000502001EBC20113AB11AA486801A900F005
:1039E00025FA04460CB12046EAE709A901A800F02F
:1039F000BBFC60B99DF844009DF84810884201DD89
:103A00000220DDE79DF85000124988750AE09DF814
:103A10005000401CC0B214900E48007D9DF850101C
:103A20008842D2DC00BF0B48007D9DF850108842D0
:103A300001D10420C4E714A9284600F0D7FA0446AF
:103A40000CB12046BCE79DF85000024948750020A3
:103A5000B6E70000940000202DE9F0419AB09C48A0
:103A6000847D007DA04202DC1AB0BDE8F081984957
:103A7000096801EBC40106AB07AA486808A900F071
:103A8000D5F908A993A0FCF74BFC002644E0904828
:103A9000008B0121B1400840D8B122218FA0FCF752
:103AA0003FFC304600F028FB89492431471839464D
:103AB0008BA0FCF735FC222188A0FCF731FC3046B6
:103AC00000F01AFB82492431084410A941F826006D
:103AD00018E0304600F010FB7D492431085810A949
:103AE00041F826007A48C07D30B910A850F8261059
:103AF0007CA0FCF715FC05E010A850F826107AA071
:103B0000FCF70EFC9DF81C00401EB04202D078A0CD
:103B1000FCF706FC701CC6B29DF81C008642B6DBA2
:103B200074A0FCF7FDFB00F039FB6948407D0B28D1
:103B30000DD2DFE800F0060D151E27323F4E5F72F2
:103B400087006349096851F834008047054690E0D2
:103B50005F4A126852F8341010988847054688E08A
:103B60005B4B1B6853F83420DDE910019047054694
:103B70007FE0574F3F6857F8343010A807C8984780
:103B8000054676E0DFF848C1DCF800C05CF8347028
:103B900010A80FC8B84705466BE01498DFF830C18D
:103BA0000090DCF800C05CF8347010A80FC8B8476B
:103BB00005465EE0DDE91401DFF814C1CDE900013E
:103BC000DCF800C05CF8347010A80FC8B847054690
:103BD0004FE0DDE914121698DFF8F4C0CDE90012C9
:103BE0000290DCF800C05CF8347010A80FC8B84729
:103BF00005463EE0DDE91423DDE91610DFF8D0C00C
:103C0000CDE90023CDE90210DCF800C05CF8347087
:103C100010A80FC8B84705462BE0DDE91523DDE9FC
:103C20001710CDE90123CDE903101498DFF8A0C0E7
:103C30000090DCF800C05CF8347010A80FC8B847DA
:103C4000054616E0DDE91623DDE91810CDE902236B
:103C5000CDE90410DDE91401DFF874C0CDE90001FD
:103C6000DCF800C05CF8347010A80FC8B8470546EF
:103C700000BF00BF00F050FA9DF8180001280CD1D9
:103C80001348C07D20B929461BA0FCF749FB07E07B
:103C900029461BA0FCF744FB02E018A0FCF740FB00
:103CA0000B4890F8EC0088B10948D0F8F0000A21E0
:103CB000B0FBF1F201FB12070548D0F8F000B0FBB1
:103CC000F1F83A46414611A0FCF72AFB00BFCBE6CB
:103CD000940000200D0A25732800000025630000D1
:103CE00025730000256C7500305825580000000031
:103CF0002C000000290000003D256C753B0D0A00DA
:103D00003D305825583B0D0A0000000046756E6393
:103D100074696F6E2052756E2054696D653A256422
:103D20002E2531646D730D0A00000000F0B50346C6
:103D30001546002000220026002455E01F782C2F75
:103D400001D104B901221F78292F01D01F780FB9A2
:103D500004B94AE0002E34D11F78302F02DB1F78DF
:103D6000392F11DD1F78612F02DB1F78662F0BDDE5
:103D70001F78412F02DB1F78462F05DD1F78582F53
:103D800002D01F78782F0CD102B12EE01F78612F5E
:103D900003DB1F78203F0F7001E01F780F70491C74
:103DA0001FE01F78222F04D102B11EE0012601245A
:103DB00017E01F78202F14D01F782C2F11D0FF264A
:103DC00013E01F78222F00D1002402B10DE044B18E
:103DD0001F785C2F02D15B1C471CF8B21F780F7054
:103DE000491C471CF8B25B1CA8E700BF00270F70F6
:103DF0002E70F0BD10B50446002010700BE0207846
:103E00000870641C491C1078401C1070107898428F
:103E100001DB012010BD2078202802D02078002866
:103E2000EDD10020087000BFF4E700002DE9FF4F3E
:103E300085B0804689460027002004900390012029
:103E400002904FF0000B002544461DE0207820280A
:103E500016D005F07F00052812DA0DB945F080056F
:103E600005F07F00042803D120782A2800D00EE036
:103E7000207805F07F010DF80100681CC5B202E052
:103E8000852D00D103E0641C20780028DED100BF1E
:103E90008DB1002005F07F010DF8010051A16846A9
:103EA00000F062FA18B900210898017002E00121BF
:103EB0000898017000254FF0000A444614E0641C85
:103EC0000AF1010000F0FF0A2078202802D02078B3
:103ED0002A2809D1204600F0D7F90646282E03D01B
:103EE0002A2E01D0CDF810A02078282802D02078E2
:103EF0000028E4D14446049810B10498401C0444BE
:103F00004FF0000A002654E0207810B94FF0010A63
:103F100050E02078282803D116B9781CC7B213E0E6
:103F20002078292808D13EB917B1781EC7B201E020
:103F30004FF0010A47B93DE02078222804D10EB99C
:103F4000012000E00020064647B9207820282FD025
:103F5000207889F8000009F1010929E020782C284F
:103F600004D101200290681CC5B214E020782028FA
:103F700011D0207828280ED04DB9BBF1050F06DAF4
:103F800020780DF80B000BF1010000F0FF0B0298F8
:103F9000401CC0B20290012F0AD10298022807D11A
:103FA0000298401CC0B202900398401CC0B203901B
:103FB000641CA9E700BF0398012809D100200DF86F
:103FC0000B0008A1684600F0CFF908B90020039063
:103FD000079903980870002089F80000504609B03E
:103FE000BDE8F08F766F6964000000002DE9F043B2
:103FF000B5B005460F460024002604E000213D48E8
:104000008155701CC6B20A2EF8DB06E06D1C2878BC
:1040100018B9012035B0BDE8F08328782828F5D1FB
:104020006D1C61E034AA69462846FFF77FFE06460C
:1040300035449DF8D00020B1012827D0FF284CD16D
:1040400049E09DF8000000B333A9684600F027F965
:1040500006460EB10220DDE7204600F04DF8254966
:104060000A31339A0A50A1F12400008B0121A140AA
:10407000884320491A39088304211E480155601CD1
:10408000C4B20A2C01DD0320C4E726E0684600F034
:1040900087F9401C00F0FF08204600F02DF8154974
:1040A0000A3100EB01094946684600F06EF91148F3
:1040B0001A38018B0120A040014388B20D491A39FA
:1040C00008830C4800F80480601CC4B20A2C01DD8F
:1040D00003209FE701E002209CE700BF2878292801
:1040E00001D0287800B900E09CE700BF3C700020B8
:1040F00090E70000AE00002002460020002105E00D
:10410000044B5B5C0344D8B24B1CD9B29142F7DB41
:1041100070470000AE00002010B501210D48FEF7E9
:1041200066F8012808D10C48D0F8F0004FF6FF716E
:1041300008440949C1F8F0000648FEF755F8064959
:10414000D1F8F01008440449C1F8F0000846D0F84E
:10415000F00010BD000800409400002010B5044697
:1041600004EBC40000EB04100122C2EB800081B21A
:104170004FF47A70FEF7B4F801200149C87510BDFC
:104180009400002010B50246012000E050430B1EB1
:10419000A1F10104E1B2F9D110BD000010B5012177
:1041A0000848FEF70FF84FF6FF710648FEF742F891
:1041B00000210448FEF740F800200349C1F8F00050
:1041C00010BD0000000800409400002070B51D489C
:1041D000008800F40040002833D01A4805780020F9
:1041E00019494855194881681748884704461CB939
:1041F0001649C868804721E0134800F0DDF80546FD
:10420000012D00D02C46CCB1012C06D0022C08D0B8
:10421000032C0AD0042C10D10BE00DA0FCF780F881
:104220000BE00EA0FCF77CF807E00FA0FCF778F895
:1042300003E010A0FCF774F800BF00BF00200149A4
:10424000088070BD1C0000200C020020940000209B
:10425000BAAFCAFDB4EDCEF3210D0A00B2CECAFD4D
:10426000B4EDCEF3210D0A00B2CECAFDCCABB6E060
:10427000210D0A00CEB4D5D2B5BDC6A5C5E4B5C4DE
:10428000BAAFCAFD210D0A000146491C00E0491CD5
:104290000878202801D10029F9D1087870472DE944
:1042A000F04307460E4600254FF00A083C46002022
:1042B00030601FE02078392802DC207830280ADAC4
:1042C0002078462802DC2078412804DA2078582813
:1042D00009D1012D07D12078412801DB4FF01008CA
:1042E000681CC5B205E0207800B904E00120BDE8F3
:1042F000F083641CDEE700BF3C46B8F1100F0FD11D
:10430000032D01DA0220F2E72078302806D1607808
:10431000582803D1A41CA81EC5B204E00320E6E778
:104320000DB90420E3E71BE00DB1681EC5B220788B
:10433000392806DC2078302803DB2078A0F130090A
:1043400002E02078A0F1370929464046FFF71AFF1E
:10435000316809FB00103060641C207800B900E06F
:10436000E2E700BF0020C2E702460AE010780B78BF
:10437000984201D001207047107800B902E0521C29
:10438000491CF3E700BF0020F5E706E002780A7059
:10439000027802B902E0401C491CF7E700BF7047F1
:1043A0000146002005E00A7802B903E0421CD0B2C1
:1043B000491CF8E700BF704710B58CB004461E23B7
:1043C0000BAA03A92046FFF715FD0090009810B135
:1043D00001200CB010BD9DF82C00044400200B906F
:1043E0000EE040489DF82C2050F8221003A8FFF75B
:1043F000BBFF00B908E09DF82C00401CC0B20B9038
:104400009DF82C000728ECD300BF9DF82C0007284E
:1044100063D2DFE800F004053C5E6564630000BF22
:1044200031A0FBF77DFF31A0FBF77AFF3FA0FBF740
:1044300077FF4EA0FBF774FF5CA0FBF771FF6BA04A
:10444000FBF76EFF79A0FBF76BFF86A0FBF768FF19
:104450008BA0FBF765FF90A0FBF762FF94A0FBF732
:104460005FFF99A0FBF75CFF9EA0FBF759FFA4A09C
:10447000FBF756FFB0A0FBF753FFBDA0FBF750FFC3
:10448000C8A0FBF74DFFD4A0FBF74AFF9AE216A0A5
:10449000FBF746FFE0A0FBF743FF00200B900EE088
:1044A000ED4800689DF82C2000EBC2004168EBA0AD
:1044B000FBF736FF9DF82C00401CC0B20B90E6487D
:1044C000007D9DF82C108842EADC07A0FBF728FF4E
:1044D00078E205A0FBF724FFC4E171E245E219E2AE
:1044E000ECE10000580000200D0A00002D2D2D2DBC
:1044F0002D2D2D2D2D2D2D2D2D2D2D2D2D2D2D2DEC
:104500002D2D2D2D55534D4152542056332E312DE6
:104510002D2D2D2D2D2D2D2D2D2D2D2D2D2D2D2DCB
:104520002D2D2D2D2D2D2D200D0A00002020202099
:1045300055534D415254CAC7D3C9414C49454E54B5
:10454000454BBFAAB7A2B5C4D2BBB8F6C1E9C7C92B
:10455000B5C4B4AEBFDAB5F7CAD4BBA5BDBBD7E905
:10456000BCFE2CCDA8B9FD200D0A0000CBFC2CC44C
:10457000E3BFC9D2D4CDA8B9FDB4AEBFDAD6FACA6A
:10458000D6B5F7D3C3B3CCD0F2C0EFC3E6B5C4C839
:10459000CEBACEBAAFCAFD2CB2A2D6B4D0D02ED2EB
:1045A000F2B4CB2CC4E3BFC90D0A0000D2D4CBE6D1
:1045B000D2E2B8FCB8C4BAAFCAFDB5C4CAE4C8EB0D
:1045C000B2CECAFD28D6A7B3D6CAFDD7D628313079
:1045D0002F3136BDF8D6C629A1A2D7D6B7FBB4AEC7
:1045E000A1A2BAAFCAFDC8EB0D0A0000BFDAB5D868
:1045F000D6B7B5C8D7F7CEAAB2CECAFD292CB5A575
:10460000B8F6BAAFCAFDD7EEB6E0D6A7B3D631300A
:10461000B8F6CAE4C8EBB2CECAFD2CB2A2D6A7B394
:10462000D6BAAFCAFDB7B5200D0A0000BBD8D6B5C3
:10463000CFD4CABE2ED0C2D4F6B2CECAFDCFD4CA11
:10464000BEBDF8D6C6C9E8D6C3B9A6C4DC2CD0C254
:10465000D4F6BDF8D6C6D7AABBBBB9A6C4DC2E0D0E
:104660000A000000BCBCCAF5D6A7B3D63A77777764
:104670002E6F70656E6564762E636F6D0D0A000097
:1046800055534D415254D3D037B8F6CFB5CDB3C3FF
:10469000FCC1EE3A0D0A00003F3A202020202020E5
:1046A000BBF1C8A1B0EFD6FAD0C5CFA20D0A000069
:1046B00068656C703A202020BBF1C8A1B0EFD6FA33
:1046C000D0C5CFA20D0A00006C6973743A20202077
:1046D000BFC9D3C3B5C4BAAFCAFDC1D0B1ED0D0ACD
:1046E0000A00000069643A2020202020BFC9D3C3FB
:1046F000BAAFCAFDB5C44944C1D0B1ED0D0A0A0034
:104700006865783A20202020B2CECAFD3136BDF847
:10471000D6C6CFD4CABE2CBAF3B8FABFD5B8F12BDF
:10472000CAFDD7D6BCB4D6B4D0D0BDF8D6C6D7AAA9
:10473000BBBB0D0A0A0000006465633A20202020FC
:10474000B2CECAFD3130BDF8D6C6CFD4CABE2CBA5F
:10475000F3B8FABFD5B8F12BCAFDD7D6BCB4D6B4DE
:10476000D0D0BDF8D6C6D7AABBBB0D0A0A00000040
:1047700072756E74696D653A312CBFAAC6F4BAAF12
:10478000CAFDD4CBD0D0BCC6CAB13B302CB9D8B14D
:10479000D5BAAFCAFDD4CBD0D0BCC6CAB13B0D0A86
:1047A0000A000000C7EBB0B4D5D5B3CCD0F2B1E06D
:1047B000D0B4B8F1CABDCAE4C8EBBAAFCAFDC3FBF6
:1047C000BCB0B2CECAFDB2A2D2D4BBD8B3B5BCFC89
:1047D000BDE1CAF82E0D0A002D2D2D2D2D2D2D2DCC
:1047E0002D2D2D2D2D2D2D2D2D2D2D2D2D2D2D2DF9
:1047F0002D2D414C49454E54454B2D2D2D2D2D2D04
:104800002D2D2D2D2D2D2D2D2D2D2D2D2D2D2D2DD8
:104810002D2D2D200D0A00002D2D2D2D2D2D2D2D72
:104820002D2D2D2D2D2D2D2D2D2D2D2D2D2D2D2DB8
:104830002DBAAFCAFDC7E5B5A52D2D2D2D2D2D2DDA
:104840002D2D2D2D2D2D2D2D2D2D2D2D2D2D2D2D98
:104850002D2D2D2D200D0A009400002025730D0A0A
:104860000000000059A0FBF75BFD00200B901AE050
:10487000664909689DF82C2001EBC20101AB02AA30
:10488000486803A9FFF7D2FA604800689DF82C1029
:1048900050F8312003A95EA0FBF742FD9DF82C00E3
:1048A000401CC0B20B905948007D9DF82C108842E6
:1048B000DEDCAFF2CC30FBF733FD83E0AFF2D83073
:1048C000FBF72EFD0BAA03A92046FFF72FFA9DF850
:1048D0002C00C8B9694603A8FFF7E1FC0B909DF8CE
:1048E0002C0020B94FA00099FBF71AFD0EE09DF8AF
:1048F0002C00042801D002206BE54DA0FBF710FD31
:1049000001204249C87501E0022062E547A0FBF79B
:1049100007FD57E045A0FBF703FD0BAA03A92046BE
:10492000FFF704FA9DF82C00C8B9694603A8FFF701
:10493000B6FC0B909DF82C0020B942A00099FBF723
:10494000EFFC0EE09DF82C00042801D0022040E589
:104950003FA0FBF7E5FC00202C49C87501E00220D0
:1049600037E532A0FBF7DCFC2CE030A0FBF7D8FCED
:104970000BAA03A92046FFF7D9F99DF82C00C8B966
:10498000694603A8FFF78BFC0B909DF82C0078B9C3
:104990001E49009881F8EC00084690F8EC0018B128
:1049A00030A0FBF7BDFC07E035A0FBF7B9FC03E046
:1049B00002200EE502200CE51CA0FBF7B1FC01E093
:1049C000012006E500BF002003E500002D2D2D2D60
:1049D0002D2D2D2D2D2D2D2D2D2D2D2D2D2D2D2D07
:1049E0002D2D2D2D2DBAAFCAFD204944202D2D2D62
:1049F0002D2D2D2D2D2D2D2D2D2D2D2D2D2D2D2DE7
:104A00002D2D2D2D2D2D2D2D200D0A009400002053
:104A100025732069642069733A0D0A3058253038AF
:104A2000580D0A004845583A305825580D0A0000DC
:104A30003136BDF8D6C6B2CECAFDCFD4CABE210D1E
:104A40000A0000004445433A256C750D0A00000039
:104A50003130BDF8D6C6B2CECAFDCFD4CABE210D04
:104A60000A00000052756E2054696D652043616C28
:104A700063756C6174696F6E204F4E0D0A00000003
:104A800052756E2054696D652043616C63756C616D
:104A900074696F6E204F46460D0A00000160704732
:104AA00010B500290AD00878002807D005487844B6
:104AB000FBF74AFE002801D0002010BD02487844D0
:104AC00010BD000002030000FA02000010B500292A
:104AD0000AD00878002807D005487844FBF734FE50
:104AE000002801D0002010BD0248784410BD00000D
:104AF000F2020000EA020000FCF720B93139322E40
:104B00003136382E342E320000000000000500003F
:104B100000780000200000002000000000A000003D
:104B200000000F00303132333435363738394142E6
:104B300043444546403058003031323334353637FF
:104B400038396162636465664030780004000008AB
:104B50000000000000000002000100001000000042
:104B6000000000000000000002400000000000A063
:104B70000000000005400000000000C80000000028
:104B80000C4000000000409C0000000019400000A4
:104B90000020BCBE0000000034400000BFC91B8ED6
:104BA00000000004B5400000504BCFD06607E2CFB4
:104BB000010000006C4100003E8251AADFEEA734E4
:104BC00001000000D9420000DCB5A0E23A301F9796
:104BD000FFFFFFFFB4450000FD25A0C8E9A3C14FBA
:104BE000FFFFFFFFFF3F000000000080000000000B
:104BF000FF3F000000000080000000003F000000B8
:104C0000646563006964000072756E74696D6500A7
:104C100068656C70000000006C697374000000002F
:104C200068657800766F69642061746B5F726D30BF
:104C3000345F717569745F7472616E7328766F6921
:104C40006429000075382061746B5F383236365F36
:104C500073656E645F636D64287538202A636D64C4
:104C60002C7538202A61636B2C7531362077616989
:104C70007474696D65290000766F696420777269C4
:104C800074655F6164647228753332206164647294
:104C90002C7533322076616C290000007533322088
:104CA000726561645F616464722875333220616487
:104CB00064722900415026535441C4A3CABD200048
:104CC000535441C4A3CABD20000000004150C4A3F6
:104CD000CABD2000230000002E00000030000000AC
:104CE00031000000320000003300000034000000FA
:104CF0003500000041544B2D4553503832363600B4
:104D00003830383600000000360000003700000060
:104D100031323334353637380000000038000000B7
:104D200039000000575041325F50534B00000000E3
:104D30005750415F574150325F50534B00000000C5
:104D40005750415F50534B0044454C004F50454E27
:104D50000000000057455000777061777061325F46
:104D600061657300696B61726F7300002055445078
:104D700020C4A3CABD000000544350BFCDBBA7B69A
:104D8000CB000000544350B7FECEF1C6F700000040
:104D9000DC4E0008000000200C0200006C0100083E
:104DA000B04F00080C020020F4B50000C801000854
:104DB0001C00000043000000F8FFFFFF0C00000093
:104DC0000E0000000F0000002E0000001001000087
:104DD00043000000F8FFFFFF0040404040404040DB
:104DE00040404141414141404040404040404040BE
:104DF0004040404040404040400502020202020262
:104E000002020202020202020220202020202020B0
:104E100020202002020202020202909090909090C4
:104E20001010101010101010101010101010101082
:104E300010101010020202020202888888888888F6
:104E400008080808080808080808080808080808E2
:104E500008080808020202024000000000000000EA
:104E60000000000000000000000000000000000042
:104E70000000000000000000000000000000000032
:104E80000000000000000000000000000000000022
:104E90000000000000000000000000000000000012
:104EA0000000000000000000000000000000000002
:104EB00000000000000000000000000000000000F2
:104EC00000000000000000000000000000000000E2
:104ED0000000000000000000000000001184A24A51
:104EE00004A009010203040607080932018BFFFF31
:104EF0001E6922250204060813A13314088D3414F8
:104F000008A00732202C68A0A708430F6813FC4BA9
:104F10001408104C1B0818041A04041A2004111950
:104F2000041A0804132D351B089C08139D4A2B08EE
:104F3000780812302B08441819081A24082274140F
:104F4000205D411408A9391408593A1B08CD0C19E1
:104F5000A5298D01DA124D1B0864041A58041A1091
:104F6000048BF44C0C1AC00C1ACC041AB4041A8426
:104F7000101A78041A6C041A4C041A54041A4004C7
:104F80001A24041A30041AE0241AE4041AE8041A51
:104F9000EC041AF0041A08181A0C041A1C041A203B
:104FA000041AD8141ADC041AD4041A481081000018
:0400000508000131BD
:00000001FF
