Component: ARM Compiler 5.06 update 4 (build 422) Tool: armlink [4d35d2]

==============================================================================

Section Cross References

    main.o(i.ap_demo) refers to _printf_percent.o(.ARM.Collect$$_printf_percent$$00000000) for _printf_percent
    main.o(i.ap_demo) refers to _printf_s.o(.ARM.Collect$$_printf_percent$$00000014) for _printf_s
    main.o(i.ap_demo) refers to _printf_str.o(.text) for _printf_str
    main.o(i.ap_demo) refers to _printf_pad.o(.text) for _printf_pre_padding
    main.o(i.ap_demo) refers to _printf_d.o(.ARM.Collect$$_printf_percent$$00000009) for _printf_d
    main.o(i.ap_demo) refers to _printf_dec.o(.text) for _printf_int_dec
    main.o(i.ap_demo) refers to common.o(i.atk_8266_quit_trans) for atk_8266_quit_trans
    main.o(i.ap_demo) refers to common.o(i.atk_8266_send_cmd) for atk_8266_send_cmd
    main.o(i.ap_demo) refers to __2printf.o(.text) for __2printf
    main.o(i.ap_demo) refers to delay.o(i.delay_ms) for delay_ms
    main.o(i.ap_demo) refers to common.o(i.atk_8266_msg_show) for atk_8266_msg_show
    main.o(i.ap_demo) refers to common.o(i.atk_8266_at_response) for atk_8266_at_response
    main.o(i.ap_demo) refers to malloc.o(i.mymalloc) for mymalloc
    main.o(i.ap_demo) refers to __2sprintf.o(.text) for __2sprintf
    main.o(i.ap_demo) refers to key.o(i.KEY_Scan) for KEY_Scan
    main.o(i.ap_demo) refers to common.o(i.atk_8266_get_wanip) for atk_8266_get_wanip
    main.o(i.ap_demo) refers to common.o(i.atk_8266_wificonf_show) for atk_8266_wificonf_show
    main.o(i.ap_demo) refers to malloc.o(i.myfree) for myfree
==============================================================================

Removing Unused input sections from the image.

    Removing system_stm32f10x.o(i.SystemCoreClockUpdate), (164 bytes).
    Removing core_cm3.o(.emb_text), (32 bytes).
    Removing sys.o(.emb_text), (6 bytes).
    Removing sys.o(i.INTX_DISABLE), (4 bytes).
    Removing sys.o(i.INTX_ENABLE), (4 bytes).
    Removing sys.o(i.WFI_SET), (4 bytes).
    Removing lcd.o(i.LCD_BGR2RGB), (26 bytes).
    Removing lcd.o(i.LCD_Clear), (108 bytes).
    Removing lcd.o(i.LCD_Color_Fill), (96 bytes).
    Removing lcd.o(i.LCD_DisplayOff), (96 bytes).
    Removing lcd.o(i.LCD_DisplayOn), (96 bytes).
    Removing lcd.o(i.LCD_Display_Dir), (448 bytes).
    Removing lcd.o(i.LCD_DrawLine), (176 bytes).
    Removing lcd.o(i.LCD_DrawPoint), (36 bytes).
    Removing lcd.o(i.LCD_DrawRectangle), (60 bytes).
    Removing lcd.o(i.LCD_Draw_Circle), (152 bytes).
    Removing lcd.o(i.LCD_Fast_DrawPoint), (380 bytes).
    Removing lcd.o(i.LCD_Fill), (188 bytes).
==============================================================================

Image Symbol Table

    Local Symbols

    Symbol Name                              Value     Ov Type        Size  Object(Section)

    ../clib/angel/boardlib.s                 0x00000000   Number         0  boardinit2.o ABSOLUTE
    ../clib/angel/boardlib.s                 0x00000000   Number         0  boardinit3.o ABSOLUTE
    ../clib/angel/boardlib.s                 0x00000000   Number         0  boardshut.o ABSOLUTE
    ../clib/angel/boardlib.s                 0x00000000   Number         0  boardinit1.o ABSOLUTE
    ../clib/angel/dczerorl2.s                0x00000000   Number         0  __dczerorl2.o ABSOLUTE
    ../clib/angel/handlers.s                 0x00000000   Number         0  __scatter_zi.o ABSOLUTE
    ../clib/angel/kernel.s                   0x00000000   Number         0  __rtentry2.o ABSOLUTE
    ../clib/angel/kernel.s                   0x00000000   Number         0  rtexit.o ABSOLUTE
    ../clib/angel/kernel.s                   0x00000000   Number         0  rtexit2.o ABSOLUTE
    ../clib/angel/kernel.s                   0x00000000   Number         0  __rtentry.o ABSOLUTE
    ../clib/angel/kernel.s                   0x00000000   Number         0  __rtentry4.o ABSOLUTE
    ../clib/angel/rt.s                       0x00000000   Number         0  rt_raise.o ABSOLUTE
    ../clib/angel/rt.s                       0x00000000   Number         0  rt_locale_intlibspace.o ABSOLUTE
    ../clib/angel/rt.s                       0x00000000   Number         0  rt_ctype_table.o ABSOLUTE
    ../clib/angel/rt.s                       0x00000000   Number         0  rt_locale.o ABSOLUTE
    ../clib/angel/scatter.s                  0x00000000   Number         0  __scatter.o ABSOLUTE
    ../clib/angel/startup.s                  0x00000000   Number         0  __main.o ABSOLUTE
    ../clib/angel/sys.s                      0x00000000   Number         0  use_no_semi_2.o ABSOLUTE
    ../clib/angel/sys.s                      0x00000000   Number         0  indicate_semi.o ABSOLUTE
    ../clib/angel/sys.s                      0x00000000   Number         0  libspace.o ABSOLUTE
    ../clib/angel/sys.s                      0x00000000   Number         0  use_no_semi.o ABSOLUTE
    ../clib/angel/sys.s                      0x00000000   Number         0  sys_stackheap_outer.o ABSOLUTE
    ../clib/angel/sysapp.c                   0x00000000   Number         0  sys_wrch.o ABSOLUTE
    ../clib/angel/sysapp.c                   0x00000000   Number         0  sys_command.o ABSOLUTE
    ../clib/armsys.c                         0x00000000   Number         0  no_argv.o ABSOLUTE
    ../clib/armsys.c                         0x00000000   Number         0  _get_argv_nomalloc.o ABSOLUTE
    ../clib/armsys.c                         0x00000000   Number         0  argv_veneer.o ABSOLUTE
    ../clib/armsys.c                         0x00000000   Number         0  argv_veneer.o ABSOLUTE
    ../clib/bigflt.c                         0x00000000   Number         0  bigflt0.o ABSOLUTE
    ../clib/btod.s                           0x00000000   Number         0  btod.o ABSOLUTE
    ../clib/heapalloc.c                      0x00000000   Number         0  hrguard.o ABSOLUTE
    ../clib/heapaux.c                        0x00000000   Number         0  heapauxi.o ABSOLUTE
    ../clib/libinit.s                        0x00000000   Number         0  libshutdown2.o ABSOLUTE
    ../clib/libinit.s                        0x00000000   Number         0  libinit.o ABSOLUTE
    ../clib/libinit.s                        0x00000000   Number         0  libinit2.o ABSOLUTE
    ../clib/libinit.s                        0x00000000   Number         0  libshutdown.o ABSOLUTE
    ../clib/locale.c                         0x00000000   Number         0  _wcrtomb.o ABSOLUTE
    ../clib/locale.s                         0x00000000   Number         0  lc_numeric_c.o ABSOLUTE
    ../clib/locale.s                         0x00000000   Number         0  lc_ctype_c.o ABSOLUTE
    ../clib/longlong.s                       0x00000000   Number         0  lludiv10.o ABSOLUTE
    ../clib/memcpset.s                       0x00000000   Number         0  strcmpv7m.o ABSOLUTE
    ../clib/memcpset.s                       0x00000000   Number         0  rt_memclr_w.o ABSOLUTE
    ../clib/misc.s                           0x00000000   Number         0  printf_stubs.o ABSOLUTE
    ../clib/printf.c                         0x00000000   Number         0  __printf_flags_ss_wp.o ABSOLUTE
    ../clib/printf.c                         0x00000000   Number         0  _printf_fp_infnan.o ABSOLUTE
    ../clib/printf.c                         0x00000000   Number         0  c89vsprintf.o ABSOLUTE
    ../clib/printf.c                         0x00000000   Number         0  _printf_oct_int_ll.o ABSOLUTE
    ../clib/printf.c                         0x00000000   Number         0  __2printf.o ABSOLUTE
    ../clib/printf.c                         0x00000000   Number         0  __2sprintf.o ABSOLUTE
    ../clib/printf.c                         0x00000000   Number         0  _printf_oct_ll.o ABSOLUTE
    ../clib/printf.c                         0x00000000   Number         0  noretval__2printf.o ABSOLUTE
    ../clib/printf.c                         0x00000000   Number         0  noretval__2sprintf.o ABSOLUTE
    ../clib/printf.c                         0x00000000   Number         0  __printf.o ABSOLUTE
    ../clib/printf.c                         0x00000000   Number         0  _printf_pad.o ABSOLUTE
    ../clib/printf.c                         0x00000000   Number         0  _printf_longlong_dec.o ABSOLUTE
    ../clib/printf.c                         0x00000000   Number         0  _printf_str.o ABSOLUTE
    ../clib/printf.c                         0x00000000   Number         0  _printf_wctomb.o ABSOLUTE
    ../clib/printf.c                         0x00000000   Number         0  __printf_flags_wp.o ABSOLUTE
    ../clib/printf.c                         0x00000000   Number         0  _printf_truncate.o ABSOLUTE
    ../clib/printf.c                         0x00000000   Number         0  __printf_wp.o ABSOLUTE
    ../clib/printf.c                         0x00000000   Number         0  __printf_flags_ss.o ABSOLUTE
    ../clib/printf.c                         0x00000000   Number         0  _printf_charcount.o ABSOLUTE
    ../clib/printf.c                         0x00000000   Number         0  __printf_ss.o ABSOLUTE
    ../clib/printf.c                         0x00000000   Number         0  _printf_char_common.o ABSOLUTE
    ../clib/printf.c                         0x00000000   Number         0  _sputc.o ABSOLUTE
    ../clib/printf.c                         0x00000000   Number         0  _printf_hex_int_ll_ptr.o ABSOLUTE
    ../clib/printf.c                         0x00000000   Number         0  _printf_char.o ABSOLUTE
    ../clib/printf.c                         0x00000000   Number         0  __printf_flags.o ABSOLUTE
    ../clib/printf.c                         0x00000000   Number         0  __printf_ss_wp.o ABSOLUTE
    ../clib/printf.c                         0x00000000   Number         0  _printf_hex_ll_ptr.o ABSOLUTE
    ../clib/printf.c                         0x00000000   Number         0  _printf_hex_int_ptr.o ABSOLUTE
    ../clib/printf.c                         0x00000000   Number         0  _printf_intcommon.o ABSOLUTE
    ../clib/printf.c                         0x00000000   Number         0  _printf_hex_int_ll.o ABSOLUTE
    ../clib/printf.c                         0x00000000   Number         0  _printf_hex_int.o ABSOLUTE
    ../clib/printf.c                         0x00000000   Number         0  _printf_hex_ll.o ABSOLUTE
    ../clib/printf.c                         0x00000000   Number         0  _printf_char_file.o ABSOLUTE
    ../clib/printf.c                         0x00000000   Number         0  _printf_hex_ptr.o ABSOLUTE
    ../clib/printf.c                         0x00000000   Number         0  _printf_wchar.o ABSOLUTE
    ../clib/printf.c                         0x00000000   Number         0  __printf_nopercent.o ABSOLUTE
    ../clib/printf.c                         0x00000000   Number         0  _printf_fp_dec.o ABSOLUTE
    ../clib/printf.c                         0x00000000   Number         0  _printf_dec.o ABSOLUTE
    ../clib/printf.c                         0x00000000   Number         0  _printf_oct_int.o ABSOLUTE
    ../clib/printf_percent.s                 0x00000000   Number         0  _printf_s.o ABSOLUTE
    ../clib/printf_percent.s                 0x00000000   Number         0  _printf_f.o ABSOLUTE
    ../clib/printf_percent.s                 0x00000000   Number         0  _printf_percent.o ABSOLUTE
    ../clib/printf_percent.s                 0x00000000   Number         0  _printf_i.o ABSOLUTE
    ../clib/printf_percent.s                 0x00000000   Number         0  _printf_o.o ABSOLUTE
    ../clib/printf_percent.s                 0x00000000   Number         0  _printf_p.o ABSOLUTE
    ../clib/printf_percent.s                 0x00000000   Number         0  _printf_n.o ABSOLUTE
    ../clib/printf_percent.s                 0x00000000   Number         0  _printf_c.o ABSOLUTE
    ../clib/printf_percent.s                 0x00000000   Number         0  _printf_u.o ABSOLUTE
    ../clib/printf_percent.s                 0x00000000   Number         0  _printf_x.o ABSOLUTE
    ../clib/printf_percent.s                 0x00000000   Number         0  _printf_d.o ABSOLUTE
    ../clib/printf_percent.s                 0x00000000   Number         0  _printf_llx.o ABSOLUTE
    ../clib/printf_percent.s                 0x00000000   Number         0  _printf_llo.o ABSOLUTE
    ../clib/printf_percent.s                 0x00000000   Number         0  _printf_ls.o ABSOLUTE
    ../clib/printf_percent.s                 0x00000000   Number         0  _printf_lc.o ABSOLUTE
    ../clib/printf_percent.s                 0x00000000   Number         0  _printf_l.o ABSOLUTE
    ../clib/printf_percent.s                 0x00000000   Number         0  _printf_ll.o ABSOLUTE
    ../clib/printf_percent.s                 0x00000000   Number         0  _printf_llu.o ABSOLUTE
    ../clib/printf_percent.s                 0x00000000   Number         0  _printf_lld.o ABSOLUTE
    ../clib/printf_percent.s                 0x00000000   Number         0  _printf_lli.o ABSOLUTE
    ../clib/printf_percent.s                 0x00000000   Number         0  _printf_percent_end.o ABSOLUTE
    ../clib/printf_percent.s                 0x00000000   Number         0  _printf_a.o ABSOLUTE
    ../clib/printf_percent.s                 0x00000000   Number         0  _printf_g.o ABSOLUTE
    ../clib/printf_percent.s                 0x00000000   Number         0  _printf_e.o ABSOLUTE
    ../clib/signal.c                         0x00000000   Number         0  defsig_abrt_inner.o ABSOLUTE
    ../clib/signal.c                         0x00000000   Number         0  defsig_general.o ABSOLUTE
    ../clib/signal.c                         0x00000000   Number         0  __raise.o ABSOLUTE
    ../clib/signal.c                         0x00000000   Number         0  defsig_rtmem_inner.o ABSOLUTE
    ../clib/signal.c                         0x00000000   Number         0  defsig_exit.o ABSOLUTE
    ../clib/signal.c                         0x00000000   Number         0  defsig_rtmem_outer.o ABSOLUTE
    ../clib/signal.c                         0x00000000   Number         0  defsig_other.o ABSOLUTE
    ../clib/signal.c                         0x00000000   Number         0  defsig_rtmem_formal.o ABSOLUTE
    ../clib/signal.c                         0x00000000   Number         0  defsig_segv_inner.o ABSOLUTE
    ../clib/signal.c                         0x00000000   Number         0  defsig_cppl_inner.o ABSOLUTE
    ../clib/signal.c                         0x00000000   Number         0  defsig_pvfn_inner.o ABSOLUTE
    ../clib/signal.c                         0x00000000   Number         0  defsig_stak_inner.o ABSOLUTE
    ../clib/signal.c                         0x00000000   Number         0  defsig_rtred_inner.o ABSOLUTE
    ../clib/signal.c                         0x00000000   Number         0  defsig_fpe_inner.o ABSOLUTE
    ../clib/signal.s                         0x00000000   Number         0  defsig.o ABSOLUTE
    ../clib/stdio.c                          0x00000000   Number         0  ferror_locked.o ABSOLUTE
    ../clib/stdio.c                          0x00000000   Number         0  ferror.o ABSOLUTE
    ../clib/stdlib.c                         0x00000000   Number         0  exit.o ABSOLUTE
    ../clib/string.c                         0x00000000   Number         0  strlen.o ABSOLUTE
    ../clib/string.c                         0x00000000   Number         0  strstr.o ABSOLUTE
    ../fplib/dfixu.s                         0x00000000   Number         0  dfixu.o ABSOLUTE
    ../fplib/dflt.s                          0x00000000   Number         0  dflt_clz.o ABSOLUTE
    ../fplib/dmul.s                          0x00000000   Number         0  dmul.o ABSOLUTE
    ../fplib/dnaninf.s                       0x00000000   Number         0  dnaninf.o ABSOLUTE
    ../fplib/dretinf.s                       0x00000000   Number         0  dretinf.o ABSOLUTE
    ../fplib/fpinit.s                        0x00000000   Number         0  fpinit.o ABSOLUTE
    ../fplib/istatus.s                       0x00000000   Number         0  istatus.o ABSOLUTE
    ../fplib/printf1.s                       0x00000000   Number         0  printf1.o ABSOLUTE
    ../fplib/usenofp.s                       0x00000000   Number         0  usenofp.o ABSOLUTE
    ../mathlib/fpclassify.c                  0x00000000   Number         0  fpclassify.o ABSOLUTE
    ..\ATK-ESP8266\apsta.c                   0x00000000   Number         0  apsta.o ABSOLUTE
    ..\ATK-ESP8266\common.c                  0x00000000   Number         0  common.o ABSOLUTE
    ..\ATK-ESP8266\wifiap.c                  0x00000000   Number         0  wifiap.o ABSOLUTE
    ..\ATK-ESP8266\wifista.c                 0x00000000   Number         0  wifista.o ABSOLUTE
    ..\CORE\core_cm3.c                       0x00000000   Number         0  core_cm3.o ABSOLUTE
    ..\CORE\startup_stm32f10x_hd.s           0x00000000   Number         0  startup_stm32f10x_hd.o ABSOLUTE
    ..\HARDWARE\BEEP\beep.c                  0x00000000   Number         0  beep.o ABSOLUTE
    ..\HARDWARE\DHT11\dht11.c                0x00000000   Number         0  dht11.o ABSOLUTE
    ..\HARDWARE\KEY\key.c                    0x00000000   Number         0  key.o ABSOLUTE
    ..\HARDWARE\LCD\lcd.c                    0x00000000   Number         0  lcd.o ABSOLUTE
    ..\HARDWARE\LED\led.c                    0x00000000   Number         0  led.o ABSOLUTE
    ..\HARDWARE\SPI\spi.c                    0x00000000   Number         0  spi.o ABSOLUTE
    ..\HARDWARE\TIMER\timer.c                0x00000000   Number         0  timer.o ABSOLUTE
    ..\HARDWARE\USART3\usart3.c              0x00000000   Number         0  usart3.o ABSOLUTE
    ..\MALLOC\malloc.c                       0x00000000   Number         0  malloc.o ABSOLUTE
    ..\STM32F10x_FWLib\src\misc.c            0x00000000   Number         0  misc.o ABSOLUTE
    ..\STM32F10x_FWLib\src\stm32f10x_dma.c   0x00000000   Number         0  stm32f10x_dma.o ABSOLUTE
    ..\STM32F10x_FWLib\src\stm32f10x_exti.c  0x00000000   Number         0  stm32f10x_exti.o ABSOLUTE
    ..\STM32F10x_FWLib\src\stm32f10x_fsmc.c  0x00000000   Number         0  stm32f10x_fsmc.o ABSOLUTE
    ..\STM32F10x_FWLib\src\stm32f10x_gpio.c  0x00000000   Number         0  stm32f10x_gpio.o ABSOLUTE
    ..\STM32F10x_FWLib\src\stm32f10x_rcc.c   0x00000000   Number         0  stm32f10x_rcc.o ABSOLUTE
    ..\STM32F10x_FWLib\src\stm32f10x_sdio.c  0x00000000   Number         0  stm32f10x_sdio.o ABSOLUTE
    ..\STM32F10x_FWLib\src\stm32f10x_spi.c   0x00000000   Number         0  stm32f10x_spi.o ABSOLUTE
    ..\STM32F10x_FWLib\src\stm32f10x_tim.c   0x00000000   Number         0  stm32f10x_tim.o ABSOLUTE
    ..\STM32F10x_FWLib\src\stm32f10x_usart.c 0x00000000   Number         0  stm32f10x_usart.o ABSOLUTE
    ..\SYSTEM\delay\delay.c                  0x00000000   Number         0  delay.o ABSOLUTE
    ..\SYSTEM\sys\sys.c                      0x00000000   Number         0  sys.o ABSOLUTE
    ..\SYSTEM\usart\usart.c                  0x00000000   Number         0  usart.o ABSOLUTE
    ..\USMART\usmart.c                       0x00000000   Number         0  usmart.o ABSOLUTE
    ..\USMART\usmart_config.c                0x00000000   Number         0  usmart_config.o ABSOLUTE
    ..\USMART\usmart_str.c                   0x00000000   Number         0  usmart_str.o ABSOLUTE
    ..\\CORE\\core_cm3.c                     0x00000000   Number         0  core_cm3.o ABSOLUTE
    ..\\SYSTEM\\sys\\sys.c                   0x00000000   Number         0  sys.o ABSOLUTE
    dc.s                                     0x00000000   Number         0  dc.o ABSOLUTE
    main.c                                   0x00000000   Number         0  main.o ABSOLUTE
    stm32f10x_it.c                           0x00000000   Number         0  stm32f10x_it.o ABSOLUTE
    system_stm32f10x.c                       0x00000000   Number         0  system_stm32f10x.o ABSOLUTE
    RESET                                    0x08000000   Section      304  startup_stm32f10x_hd.o(RESET)
    !!!main                                  0x08000130   Section        8  __main.o(!!!main)
    !!!scatter                               0x08000138   Section       52  __scatter.o(!!!scatter)
    !!dczerorl2                              0x0800016c   Section       90  __dczerorl2.o(!!dczerorl2)
    !!handler_zi                             0x080001c8   Section       28  __scatter_zi.o(!!handler_zi)
    .ARM.Collect$$_printf_percent$$00000000  0x080001e4   Section        0  _printf_percent.o(.ARM.Collect$$_printf_percent$$00000000)
    .ARM.Collect$$_printf_percent$$00000001  0x080001e4   Section        6  _printf_n.o(.ARM.Collect$$_printf_percent$$00000001)
    .ARM.Collect$$_printf_percent$$00000002  0x080001ea   Section        6  _printf_p.o(.ARM.Collect$$_printf_percent$$00000002)
    .ARM.Collect$$_printf_percent$$00000003  0x080001f0   Section        6  _printf_f.o(.ARM.Collect$$_printf_percent$$00000003)
    .ARM.Collect$$_printf_percent$$00000004  0x080001f6   Section        6  _printf_e.o(.ARM.Collect$$_printf_percent$$00000004)
    .ARM.Collect$$_printf_percent$$00000005  0x080001fc   Section        6  _printf_g.o(.ARM.Collect$$_printf_percent$$00000005)
    .ARM.Collect$$_printf_percent$$00000006  0x08000202   Section        6  _printf_a.o(.ARM.Collect$$_printf_percent$$00000006)
    .ARM.Collect$$_printf_percent$$00000007  0x08000208   Section       10  _printf_ll.o(.ARM.Collect$$_printf_percent$$00000007)
    .ARM.Collect$$_printf_percent$$00000008  0x08000212   Section        6  _printf_i.o(.ARM.Collect$$_printf_percent$$00000008)
    .ARM.Collect$$_printf_percent$$00000009  0x08000218   Section        6  _printf_d.o(.ARM.Collect$$_printf_percent$$00000009)
    .ARM.Collect$$_printf_percent$$0000000A  0x0800021e   Section        6  _printf_u.o(.ARM.Collect$$_printf_percent$$0000000A)
    .ARM.Collect$$_printf_percent$$0000000B  0x08000224   Section        6  _printf_o.o(.ARM.Collect$$_printf_percent$$0000000B)
    .ARM.Collect$$_printf_percent$$0000000C  0x0800022a   Section        6  _printf_x.o(.ARM.Collect$$_printf_percent$$0000000C)
    .ARM.Collect$$_printf_percent$$0000000D  0x08000230   Section        6  _printf_lli.o(.ARM.Collect$$_printf_percent$$0000000D)
    .ARM.Collect$$_printf_percent$$0000000E  0x08000236   Section        6  _printf_lld.o(.ARM.Collect$$_printf_percent$$0000000E)
    .ARM.Collect$$_printf_percent$$0000000F  0x0800023c   Section        6  _printf_llu.o(.ARM.Collect$$_printf_percent$$0000000F)
    .ARM.Collect$$_printf_percent$$00000010  0x08000242   Section        6  _printf_llo.o(.ARM.Collect$$_printf_percent$$00000010)
    .ARM.Collect$$_printf_percent$$00000011  0x08000248   Section        6  _printf_llx.o(.ARM.Collect$$_printf_percent$$00000011)
    .ARM.Collect$$_printf_percent$$00000012  0x0800024e   Section       10  _printf_l.o(.ARM.Collect$$_printf_percent$$00000012)
    .ARM.Collect$$_printf_percent$$00000013  0x08000258   Section        6  _printf_c.o(.ARM.Collect$$_printf_percent$$00000013)
    .ARM.Collect$$_printf_percent$$00000014  0x0800025e   Section        6  _printf_s.o(.ARM.Collect$$_printf_percent$$00000014)
    .ARM.Collect$$_printf_percent$$00000015  0x08000264   Section        6  _printf_lc.o(.ARM.Collect$$_printf_percent$$00000015)
    .ARM.Collect$$_printf_percent$$00000016  0x0800026a   Section        6  _printf_ls.o(.ARM.Collect$$_printf_percent$$00000016)
    .ARM.Collect$$_printf_percent$$00000017  0x08000270   Section        4  _printf_percent_end.o(.ARM.Collect$$_printf_percent$$00000017)
    .ARM.Collect$$libinit$$00000000          0x08000274   Section        2  libinit.o(.ARM.Collect$$libinit$$00000000)
    .ARM.Collect$$libinit$$00000002          0x08000276   Section        0  libinit2.o(.ARM.Collect$$libinit$$00000002)
    .ARM.Collect$$libinit$$00000004          0x08000276   Section        0  libinit2.o(.ARM.Collect$$libinit$$00000004)
    .ARM.Collect$$libinit$$0000000A          0x08000276   Section        0  libinit2.o(.ARM.Collect$$libinit$$0000000A)
    .ARM.Collect$$libinit$$0000000C          0x08000276   Section        0  libinit2.o(.ARM.Collect$$libinit$$0000000C)
    .ARM.Collect$$libinit$$0000000E          0x08000276   Section        0  libinit2.o(.ARM.Collect$$libinit$$0000000E)
    .ARM.Collect$$libinit$$0000000F          0x08000276   Section        6  libinit2.o(.ARM.Collect$$libinit$$0000000F)
    .ARM.Collect$$libinit$$00000011          0x0800027c   Section        0  libinit2.o(.ARM.Collect$$libinit$$00000011)
    .ARM.Collect$$libinit$$00000012          0x0800027c   Section       12  libinit2.o(.ARM.Collect$$libinit$$00000012)
    .ARM.Collect$$libinit$$00000013          0x08000288   Section        0  libinit2.o(.ARM.Collect$$libinit$$00000013)
    .ARM.Collect$$libinit$$00000015          0x08000288   Section        0  libinit2.o(.ARM.Collect$$libinit$$00000015)
    .ARM.Collect$$libinit$$00000016          0x08000288   Section       10  libinit2.o(.ARM.Collect$$libinit$$00000016)
    .ARM.Collect$$libinit$$00000017          0x08000292   Section        0  libinit2.o(.ARM.Collect$$libinit$$00000017)
    .ARM.Collect$$libinit$$00000019          0x08000292   Section        0  libinit2.o(.ARM.Collect$$libinit$$00000019)
    .ARM.Collect$$libinit$$0000001B          0x08000292   Section        0  libinit2.o(.ARM.Collect$$libinit$$0000001B)
    .ARM.Collect$$libinit$$0000001D          0x08000292   Section        0  libinit2.o(.ARM.Collect$$libinit$$0000001D)
    .ARM.Collect$$libinit$$0000001F          0x08000292   Section        0  libinit2.o(.ARM.Collect$$libinit$$0000001F)
    .ARM.Collect$$libinit$$00000021          0x08000292   Section        0  libinit2.o(.ARM.Collect$$libinit$$00000021)
    .ARM.Collect$$libinit$$00000023          0x08000292   Section        0  libinit2.o(.ARM.Collect$$libinit$$00000023)
    .ARM.Collect$$libinit$$00000025          0x08000292   Section        0  libinit2.o(.ARM.Collect$$libinit$$00000025)
    .ARM.Collect$$libinit$$0000002C          0x08000292   Section        0  libinit2.o(.ARM.Collect$$libinit$$0000002C)
    .ARM.Collect$$libinit$$0000002E          0x08000292   Section        0  libinit2.o(.ARM.Collect$$libinit$$0000002E)
    .ARM.Collect$$libinit$$00000030          0x08000292   Section        0  libinit2.o(.ARM.Collect$$libinit$$00000030)
    .ARM.Collect$$libinit$$00000032          0x08000292   Section        0  libinit2.o(.ARM.Collect$$libinit$$00000032)
    .ARM.Collect$$libinit$$00000033          0x08000292   Section        2  libinit2.o(.ARM.Collect$$libinit$$00000033)
    .ARM.Collect$$libshutdown$$00000000      0x08000294   Section        2  libshutdown.o(.ARM.Collect$$libshutdown$$00000000)
    .ARM.Collect$$libshutdown$$00000002      0x08000296   Section        0  libshutdown2.o(.ARM.Collect$$libshutdown$$00000002)
    .ARM.Collect$$libshutdown$$00000004      0x08000296   Section        0  libshutdown2.o(.ARM.Collect$$libshutdown$$00000004)
    .ARM.Collect$$libshutdown$$00000007      0x08000296   Section        0  libshutdown2.o(.ARM.Collect$$libshutdown$$00000007)
    .ARM.Collect$$libshutdown$$0000000A      0x08000296   Section        0  libshutdown2.o(.ARM.Collect$$libshutdown$$0000000A)
    .ARM.Collect$$libshutdown$$0000000C      0x08000296   Section        0  libshutdown2.o(.ARM.Collect$$libshutdown$$0000000C)
    .ARM.Collect$$libshutdown$$0000000F      0x08000296   Section        0  libshutdown2.o(.ARM.Collect$$libshutdown$$0000000F)
    .ARM.Collect$$libshutdown$$00000010      0x08000296   Section        2  libshutdown2.o(.ARM.Collect$$libshutdown$$00000010)
    .ARM.Collect$$rtentry$$00000000          0x08000298   Section        0  __rtentry.o(.ARM.Collect$$rtentry$$00000000)
    .ARM.Collect$$rtentry$$00000002          0x08000298   Section        0  __rtentry2.o(.ARM.Collect$$rtentry$$00000002)
    .ARM.Collect$$rtentry$$00000004          0x08000298   Section        6  __rtentry4.o(.ARM.Collect$$rtentry$$00000004)
    .ARM.Collect$$rtentry$$00000009          0x0800029e   Section        0  __rtentry2.o(.ARM.Collect$$rtentry$$00000009)
    .ARM.Collect$$rtentry$$0000000A          0x0800029e   Section        4  __rtentry2.o(.ARM.Collect$$rtentry$$0000000A)
    .ARM.Collect$$rtentry$$0000000C          0x080002a2   Section        0  __rtentry2.o(.ARM.Collect$$rtentry$$0000000C)
    .ARM.Collect$$rtentry$$0000000D          0x080002a2   Section        8  __rtentry2.o(.ARM.Collect$$rtentry$$0000000D)
    .ARM.Collect$$rtexit$$00000000           0x080002aa   Section        2  rtexit.o(.ARM.Collect$$rtexit$$00000000)
    .ARM.Collect$$rtexit$$00000002           0x080002ac   Section        0  rtexit2.o(.ARM.Collect$$rtexit$$00000002)
    .ARM.Collect$$rtexit$$00000003           0x080002ac   Section        4  rtexit2.o(.ARM.Collect$$rtexit$$00000003)
    .ARM.Collect$$rtexit$$00000004           0x080002b0   Section        6  rtexit2.o(.ARM.Collect$$rtexit$$00000004)
    .text                                    0x080002b8   Section       64  startup_stm32f10x_hd.o(.text)
    .text                                    0x080002f8   Section        2  use_no_semi_2.o(.text)
    .text                                    0x080002fc   Section        0  c89vsprintf.o(.text)
    .text                                    0x08000320   Section        0  __2printf.o(.text)
    .text                                    0x08000338   Section        0  __2sprintf.o(.text)
    .text                                    0x08000364   Section        0  _printf_pad.o(.text)
    .text                                    0x080003b2   Section        0  _printf_str.o(.text)
    .text                                    0x08000404   Section        0  _printf_dec.o(.text)
    .text                                    0x0800047c   Section        0  _printf_hex_int_ll_ptr.o(.text)
    _printf_hex_common                       0x0800047d   Thumb Code     0  _printf_hex_int_ll_ptr.o(.text)
    .text                                    0x08000510   Section        0  __printf_flags_ss_wp.o(.text)
    .text                                    0x08000698   Section        0  strstr.o(.text)
    .text                                    0x080006bc   Section        0  strlen.o(.text)
    .text                                    0x080006fa   Section       78  rt_memclr_w.o(.text)
    .text                                    0x08000748   Section      128  strcmpv7m.o(.text)
    .text                                    0x080007c8   Section        0  heapauxi.o(.text)
    .text                                    0x080007ce   Section        2  use_no_semi.o(.text)
    .text                                    0x080007d0   Section        0  _printf_truncate.o(.text)
    .text                                    0x080007f4   Section        0  _printf_intcommon.o(.text)
    .text                                    0x080008a6   Section        0  _printf_charcount.o(.text)
    .text                                    0x080008d0   Section        0  _printf_char_common.o(.text)
    _printf_input_char                       0x080008d1   Thumb Code    10  _printf_char_common.o(.text)
    .text                                    0x08000900   Section        0  _sputc.o(.text)
    .text                                    0x0800090a   Section        0  _printf_char.o(.text)
    .text                                    0x08000938   Section        0  _printf_char_file.o(.text)
    .text                                    0x0800095c   Section        0  _printf_wctomb.o(.text)
    .text                                    0x08000a18   Section        0  _printf_longlong_dec.o(.text)
    .text                                    0x08000a94   Section        0  _printf_oct_int_ll.o(.text)
    _printf_longlong_oct_internal            0x08000a95   Thumb Code     0  _printf_oct_int_ll.o(.text)
    .text                                    0x08000b04   Section      138  lludiv10.o(.text)
    .text                                    0x08000b8e   Section        0  _printf_fp_dec.o(.text)
    _fp_digits                               0x08000b91   Thumb Code   428  _printf_fp_dec.o(.text)
    .text                                    0x08000fa8   Section        0  _printf_wchar.o(.text)
    .text                                    0x08000fd4   Section        0  ferror.o(.text)
    .text                                    0x08000fdc   Section        0  _wcrtomb.o(.text)
    .text                                    0x0800101c   Section       74  sys_stackheap_outer.o(.text)
    .text                                    0x08001068   Section       16  rt_ctype_table.o(.text)
    .text                                    0x08001078   Section        8  rt_locale_intlibspace.o(.text)
    .text                                    0x08001080   Section        0  _printf_fp_infnan.o(.text)
    .text                                    0x08001100   Section        0  bigflt0.o(.text)
    .text                                    0x080011dc   Section        0  exit.o(.text)
    .text                                    0x080011f0   Section        8  libspace.o(.text)
    CL$$btod_d2e                             0x080011f8   Section       62  btod.o(CL$$btod_d2e)
    CL$$btod_d2e_denorm_low                  0x08001236   Section       70  btod.o(CL$$btod_d2e_denorm_low)
    CL$$btod_d2e_norm_op1                    0x0800127c   Section       96  btod.o(CL$$btod_d2e_norm_op1)
    CL$$btod_div_common                      0x080012dc   Section      824  btod.o(CL$$btod_div_common)
    CL$$btod_e2e                             0x08001614   Section      198  btod.o(CL$$btod_e2e)
    CL$$btod_ediv                            0x080016da   Section       40  btod.o(CL$$btod_ediv)
    CL$$btod_emul                            0x08001702   Section       40  btod.o(CL$$btod_emul)
    CL$$btod_mult_common                     0x0800172a   Section      580  btod.o(CL$$btod_mult_common)
    i.BEEP_Init                              0x08001970   Section        0  beep.o(i.BEEP_Init)
    i.BusFault_Handler                       0x080019a8   Section        0  stm32f10x_it.o(i.BusFault_Handler)
    i.DHT11_Check                            0x080019ac   Section        0  dht11.o(i.DHT11_Check)
    i.DHT11_Read_Bit                         0x08001a10   Section        0  dht11.o(i.DHT11_Read_Bit)
    i.DHT11_Read_Byte                        0x08001a5c   Section        0  dht11.o(i.DHT11_Read_Byte)
    i.DHT11_Read_Data                        0x08001a7a   Section        0  dht11.o(i.DHT11_Read_Data)
    i.DHT11_Rst                              0x08001ad4   Section        0  dht11.o(i.DHT11_Rst)
    i.DebugMon_Handler                       0x08001b14   Section        0  stm32f10x_it.o(i.DebugMon_Handler)
    i.GPIO_Init                              0x08001b16   Section        0  stm32f10x_gpio.o(i.GPIO_Init)
    i.GPIO_ReadInputDataBit                  0x08001c2c   Section        0  stm32f10x_gpio.o(i.GPIO_ReadInputDataBit)
    i.GPIO_ResetBits                         0x08001c3e   Section        0  stm32f10x_gpio.o(i.GPIO_ResetBits)
    i.GPIO_SetBits                           0x08001c42   Section        0  stm32f10x_gpio.o(i.GPIO_SetBits)
    i.HardFault_Handler                      0x08001c46   Section        0  stm32f10x_it.o(i.HardFault_Handler)
    i.KEY_Init                               0x08001c4c   Section        0  key.o(i.KEY_Init)
    i.KEY_Scan                               0x08001c88   Section        0  key.o(i.KEY_Scan)
    i.LED_Init                               0x08001d50   Section        0  led.o(i.LED_Init)
    i.MemManage_Handler                      0x08001d9c   Section        0  stm32f10x_it.o(i.MemManage_Handler)
    i.NMI_Handler                            0x08001da0   Section        0  stm32f10x_it.o(i.NMI_Handler)
    i.NVIC_Init                              0x08001da4   Section        0  misc.o(i.NVIC_Init)
    i.NVIC_PriorityGroupConfig               0x08001e14   Section        0  misc.o(i.NVIC_PriorityGroupConfig)
    i.PendSV_Handler                         0x08001e28   Section        0  stm32f10x_it.o(i.PendSV_Handler)
    i.RCC_APB1PeriphClockCmd                 0x08001e2c   Section        0  stm32f10x_rcc.o(i.RCC_APB1PeriphClockCmd)
    i.RCC_APB1PeriphResetCmd                 0x08001e4c   Section        0  stm32f10x_rcc.o(i.RCC_APB1PeriphResetCmd)
    i.RCC_APB2PeriphClockCmd                 0x08001e6c   Section        0  stm32f10x_rcc.o(i.RCC_APB2PeriphClockCmd)
    i.RCC_APB2PeriphResetCmd                 0x08001e8c   Section        0  stm32f10x_rcc.o(i.RCC_APB2PeriphResetCmd)
    i.RCC_GetClocksFreq                      0x08001eac   Section        0  stm32f10x_rcc.o(i.RCC_GetClocksFreq)
    i.SVC_Handler                            0x08001f80   Section        0  stm32f10x_it.o(i.SVC_Handler)
    i.SetSysClock                            0x08001f82   Section        0  system_stm32f10x.o(i.SetSysClock)
    SetSysClock                              0x08001f83   Thumb Code     8  system_stm32f10x.o(i.SetSysClock)
    i.SetSysClockTo72                        0x08001f8c   Section        0  system_stm32f10x.o(i.SetSysClockTo72)
    SetSysClockTo72                          0x08001f8d   Thumb Code   214  system_stm32f10x.o(i.SetSysClockTo72)
    i.SysTick_CLKSourceConfig                0x0800206c   Section        0  misc.o(i.SysTick_CLKSourceConfig)
    i.SysTick_Handler                        0x08002094   Section        0  stm32f10x_it.o(i.SysTick_Handler)
    i.SystemInit                             0x08002098   Section        0  system_stm32f10x.o(i.SystemInit)
    i.TIM4_IRQHandler                        0x080020f8   Section        0  usmart.o(i.TIM4_IRQHandler)
    i.TIM7_IRQHandler                        0x08002130   Section        0  timer.o(i.TIM7_IRQHandler)
    i.TIM7_Int_Init                          0x08002164   Section        0  timer.o(i.TIM7_Int_Init)
    i.TIM_ClearFlag                          0x080021c4   Section        0  stm32f10x_tim.o(i.TIM_ClearFlag)
    i.TIM_ClearITPendingBit                  0x080021ca   Section        0  stm32f10x_tim.o(i.TIM_ClearITPendingBit)
    i.TIM_Cmd                                0x080021d0   Section        0  stm32f10x_tim.o(i.TIM_Cmd)
    i.TIM_GetCounter                         0x080021e8   Section        0  stm32f10x_tim.o(i.TIM_GetCounter)
    i.TIM_GetFlagStatus                      0x080021ee   Section        0  stm32f10x_tim.o(i.TIM_GetFlagStatus)
    i.TIM_GetITStatus                        0x08002200   Section        0  stm32f10x_tim.o(i.TIM_GetITStatus)
    i.TIM_ITConfig                           0x08002222   Section        0  stm32f10x_tim.o(i.TIM_ITConfig)
    i.TIM_SetAutoreload                      0x08002234   Section        0  stm32f10x_tim.o(i.TIM_SetAutoreload)
    i.TIM_SetCounter                         0x08002238   Section        0  stm32f10x_tim.o(i.TIM_SetCounter)
    i.TIM_TimeBaseInit                       0x0800223c   Section        0  stm32f10x_tim.o(i.TIM_TimeBaseInit)
    i.Timer4_Init                            0x080022e0   Section        0  usmart.o(i.Timer4_Init)
    i.USART1_IRQHandler                      0x0800233c   Section        0  usart.o(i.USART1_IRQHandler)
    i.USART3_IRQHandler                      0x080023c4   Section        0  usart3.o(i.USART3_IRQHandler)
    i.USART_Cmd                              0x08002434   Section        0  stm32f10x_usart.o(i.USART_Cmd)
    i.USART_DeInit                           0x0800244c   Section        0  stm32f10x_usart.o(i.USART_DeInit)
    i.USART_GetFlagStatus                    0x080024e8   Section        0  stm32f10x_usart.o(i.USART_GetFlagStatus)
    i.USART_GetITStatus                      0x08002502   Section        0  stm32f10x_usart.o(i.USART_GetITStatus)
    i.USART_ITConfig                         0x08002556   Section        0  stm32f10x_usart.o(i.USART_ITConfig)
    i.USART_Init                             0x080025a0   Section        0  stm32f10x_usart.o(i.USART_Init)
    i.USART_ReceiveData                      0x08002678   Section        0  stm32f10x_usart.o(i.USART_ReceiveData)
    i.USART_SendData                         0x08002682   Section        0  stm32f10x_usart.o(i.USART_SendData)
    i.UsageFault_Handler                     0x0800268a   Section        0  stm32f10x_it.o(i.UsageFault_Handler)
    i.__ARM_fpclassify                       0x0800268e   Section        0  fpclassify.o(i.__ARM_fpclassify)
    i._is_digit                              0x080026b6   Section        0  __printf_wp.o(i._is_digit)
    i._sys_exit                              0x080026c4   Section        0  usart.o(i._sys_exit)
    i.ap_demo                                0x080026cc   Section        0  main.o(i.ap_demo)
    i.atk_8266_at_response                   0x08002cbc   Section        0  common.o(i.atk_8266_at_response)
    i.atk_8266_check_cmd                     0x08002cf8   Section        0  common.o(i.atk_8266_check_cmd)
    i.atk_8266_consta_check                  0x08002d2c   Section        0  common.o(i.atk_8266_consta_check)
    i.atk_8266_get_wanip                     0x08002d70   Section        0  common.o(i.atk_8266_get_wanip)
    i.atk_8266_msg_show                      0x08002dc4   Section        0  common.o(i.atk_8266_msg_show)
    i.atk_8266_quit_trans                    0x0800302c   Section        0  common.o(i.atk_8266_quit_trans)
    i.atk_8266_send_cmd                      0x0800309c   Section        0  common.o(i.atk_8266_send_cmd)
    i.atk_8266_send_data                     0x08003110   Section        0  common.o(i.atk_8266_send_data)
    i.atk_8266_wificonf_show                 0x0800316c   Section        0  common.o(i.atk_8266_wificonf_show)
    i.delay_init                             0x080031dc   Section        0  delay.o(i.delay_init)
    i.delay_ms                               0x08003220   Section        0  delay.o(i.delay_ms)
    i.delay_us                               0x0800326c   Section        0  delay.o(i.delay_us)
    i.fputc                                  0x080032b8   Section        0  usart.o(i.fputc)
    i.main                                   0x080032d4   Section        0  main.o(i.main)
    i.my_mem_free                            0x08003334   Section        0  malloc.o(i.my_mem_free)
    i.my_mem_init                            0x080033a0   Section        0  malloc.o(i.my_mem_init)
    i.my_mem_malloc                          0x080033e4   Section        0  malloc.o(i.my_mem_malloc)
    i.my_mem_perused                         0x0800348c   Section        0  malloc.o(i.my_mem_perused)
    i.myfree                                 0x080034cc   Section        0  malloc.o(i.myfree)
    i.mymalloc                               0x080034f0   Section        0  malloc.o(i.mymalloc)
    i.mymemset                               0x08003518   Section        0  malloc.o(i.mymemset)
    i.read_addr                              0x0800352c   Section        0  usmart.o(i.read_addr)
    i.recv_data_analysis                     0x08003534   Section        0  common.o(i.recv_data_analysis)
    i.send_data_to_usart3                    0x08003728   Section        0  common.o(i.send_data_to_usart3)
    i.u3_printf                              0x080037e8   Section        0  usart3.o(i.u3_printf)
    i.uart_init                              0x08003838   Section        0  usart.o(i.uart_init)
    i.usart3_init                            0x080038d8   Section        0  usart3.o(i.usart3_init)
    i.usmart_cmd_rec                         0x080039a8   Section        0  usmart.o(i.usmart_cmd_rec)
    i.usmart_exe                             0x08003a58   Section        0  usmart.o(i.usmart_exe)
    i.usmart_get_aparm                       0x08003d2c   Section        0  usmart_str.o(i.usmart_get_aparm)
    i.usmart_get_cmdname                     0x08003df4   Section        0  usmart_str.o(i.usmart_get_cmdname)
    i.usmart_get_fname                       0x08003e2c   Section        0  usmart_str.o(i.usmart_get_fname)
    i.usmart_get_fparam                      0x08003fec   Section        0  usmart_str.o(i.usmart_get_fparam)
    i.usmart_get_parmpos                     0x080040f8   Section        0  usmart_str.o(i.usmart_get_parmpos)
    i.usmart_get_runtime                     0x08004118   Section        0  usmart.o(i.usmart_get_runtime)
    i.usmart_init                            0x0800415c   Section        0  usmart.o(i.usmart_init)
    i.usmart_pow                             0x08004184   Section        0  usmart_str.o(i.usmart_pow)
    i.usmart_reset_runtime                   0x0800419c   Section        0  usmart.o(i.usmart_reset_runtime)
    i.usmart_scan                            0x080041cc   Section        0  usmart.o(i.usmart_scan)
    i.usmart_search_nextc                    0x08004288   Section        0  usmart_str.o(i.usmart_search_nextc)
    i.usmart_str2num                         0x0800429e   Section        0  usmart_str.o(i.usmart_str2num)
    i.usmart_strcmp                          0x08004368   Section        0  usmart_str.o(i.usmart_strcmp)
    i.usmart_strcopy                         0x0800438a   Section        0  usmart_str.o(i.usmart_strcopy)
    i.usmart_strlen                          0x080043a0   Section        0  usmart_str.o(i.usmart_strlen)
    i.usmart_sys_cmd_exe                     0x080043b8   Section        0  usmart.o(i.usmart_sys_cmd_exe)
    i.write_addr                             0x08004a9c   Section        0  usmart.o(i.write_addr)
    locale$$code                             0x08004aa0   Section       44  lc_numeric_c.o(locale$$code)
    locale$$code                             0x08004acc   Section       44  lc_ctype_c.o(locale$$code)
    x$fpl$printf1                            0x08004af8   Section        4  printf1.o(x$fpl$printf1)
    .constdata                               0x08004afc   Section       16  main.o(.constdata)
    x$fpl$usenofp                            0x08004afc   Section        0  usenofp.o(x$fpl$usenofp)
    .constdata                               0x08004b0c   Section       24  malloc.o(.constdata)
    .constdata                               0x08004b24   Section       40  _printf_hex_int_ll_ptr.o(.constdata)
    uc_hextab                                0x08004b24   Data          20  _printf_hex_int_ll_ptr.o(.constdata)
    lc_hextab                                0x08004b38   Data          20  _printf_hex_int_ll_ptr.o(.constdata)
    .constdata                               0x08004b4c   Section       17  __printf_flags_ss_wp.o(.constdata)
    maptable                                 0x08004b4c   Data          17  __printf_flags_ss_wp.o(.constdata)
    .constdata                               0x08004b60   Section        8  _printf_wctomb.o(.constdata)
    initial_mbstate                          0x08004b60   Data           8  _printf_wctomb.o(.constdata)
    .constdata                               0x08004b68   Section      148  bigflt0.o(.constdata)
    tenpwrs_x                                0x08004b68   Data          60  bigflt0.o(.constdata)
    tenpwrs_i                                0x08004ba4   Data          64  bigflt0.o(.constdata)
    .conststring                             0x08004bfc   Section       40  usmart.o(.conststring)
    .conststring                             0x08004c24   Section      144  usmart_config.o(.conststring)
    .conststring                             0x08004cb4   Section      218  common.o(.conststring)
    locale$$data                             0x08004db0   Section       28  lc_numeric_c.o(locale$$data)
    __lcnum_c_name                           0x08004db4   Data           2  lc_numeric_c.o(locale$$data)
    __lcnum_c_start                          0x08004dbc   Data           0  lc_numeric_c.o(locale$$data)
    __lcnum_c_point                          0x08004dc8   Data           0  lc_numeric_c.o(locale$$data)
    __lcnum_c_thousands                      0x08004dca   Data           0  lc_numeric_c.o(locale$$data)
    __lcnum_c_grouping                       0x08004dcb   Data           0  lc_numeric_c.o(locale$$data)
    locale$$data                             0x08004dcc   Section      272  lc_ctype_c.o(locale$$data)
    __lcnum_c_end                            0x08004dcc   Data           0  lc_numeric_c.o(locale$$data)
    __lcctype_c_name                         0x08004dd0   Data           2  lc_ctype_c.o(locale$$data)
    __lcctype_c_start                        0x08004dd8   Data           0  lc_ctype_c.o(locale$$data)
    __lcctype_c_end                          0x08004edc   Data           0  lc_ctype_c.o(locale$$data)
    .data                                    0x20000000   Section       20  system_stm32f10x.o(.data)
    .data                                    0x20000014   Section        4  delay.o(.data)
    fac_us                                   0x20000014   Data           1  delay.o(.data)
    fac_ms                                   0x20000016   Data           2  delay.o(.data)
    .data                                    0x20000018   Section        6  usart.o(.data)
    .data                                    0x2000001e   Section        1  key.o(.data)
    key_up                                   0x2000001e   Data           1  key.o(.data)
    .data                                    0x20000020   Section        4  lcd.o(.data)
    .data                                    0x20000024   Section        2  usart3.o(.data)
    .data                                    0x20000026   Section       20  stm32f10x_rcc.o(.data)
    APBAHBPrescTable                         0x20000026   Data          16  stm32f10x_rcc.o(.data)
    ADCPrescTable                            0x20000036   Data           4  stm32f10x_rcc.o(.data)
    .data                                    0x2000003c   Section       28  malloc.o(.data)
    .data                                    0x20000058   Section       28  usmart.o(.data)
    .data                                    0x20000074   Section      276  usmart_config.o(.data)
    .data                                    0x20000188   Section      132  common.o(.data)
    .bss                                     0x2000020c   Section      200  usart.o(.bss)
    .bss                                     0x200002d4   Section     1200  usart3.o(.bss)
    .bss                                     0x200007a0   Section    43520  malloc.o(.bss)
    .bss                                     0x2000b1a0   Section       96  libspace.o(.bss)
    HEAP                                     0x2000b200   Section      512  startup_stm32f10x_hd.o(HEAP)
    Heap_Mem                                 0x2000b200   Data         512  startup_stm32f10x_hd.o(HEAP)
    STACK                                    0x2000b400   Section     1024  startup_stm32f10x_hd.o(STACK)
    Stack_Mem                                0x2000b400   Data        1024  startup_stm32f10x_hd.o(STACK)
    __initial_sp                             0x2000b800   Data           0  startup_stm32f10x_hd.o(STACK)
    .ARM.__AT_0x68000000                     0x68000000   Section    983040  malloc.o(.ARM.__AT_0x68000000)
    .ARM.__AT_0x680F0000                     0x680f0000   Section    61440  malloc.o(.ARM.__AT_0x680F0000)

    Global Symbols

    Symbol Name                              Value     Ov Type        Size  Object(Section)

    BuildAttributes$$THM_ISAv4$P$D$K$B$S$PE$A:L22UL41UL21$X:L11$S22US41US21$IEEE1$IW$USESV6$~STKCKD$USESV7$~SHL$OTIME$ROPI$IEEEJ$EBA8$UX$STANDARDLIB$REQ8$PRES8$EABIv2 0x00000000   Number         0  anon$$obj.o ABSOLUTE
    __ARM_use_no_argv                        0x00000000   Number         0  main.o ABSOLUTE
    _printf_flags                            0x00000000   Number         0  printf_stubs.o ABSOLUTE
    _printf_return_value                     0x00000000   Number         0  printf_stubs.o ABSOLUTE
    _printf_sizespec                         0x00000000   Number         0  printf_stubs.o ABSOLUTE
    _printf_widthprec                        0x00000000   Number         0  printf_stubs.o ABSOLUTE
    __ARM_exceptions_init                     - Undefined Weak Reference
    __alloca_initialize                       - Undefined Weak Reference
    __arm_preinit_                            - Undefined Weak Reference
    __cpp_initialize__aeabi_                  - Undefined Weak Reference
    __cxa_finalize                            - Undefined Weak Reference
    __sigvec_lookup                           - Undefined Weak Reference
    _atexit_init                              - Undefined Weak Reference
    _call_atexit_fns                          - Undefined Weak Reference
    _clock_init                               - Undefined Weak Reference
    _fp_trap_init                             - Undefined Weak Reference
    _fp_trap_shutdown                         - Undefined Weak Reference
    _get_lc_collate                           - Undefined Weak Reference
    _get_lc_monetary                          - Undefined Weak Reference
    _get_lc_time                              - Undefined Weak Reference
    _getenv_init                              - Undefined Weak Reference
    _handle_redirection                       - Undefined Weak Reference
    _init_alloc                               - Undefined Weak Reference
    _init_user_alloc                          - Undefined Weak Reference
    _initio                                   - Undefined Weak Reference
    _mutex_acquire                            - Undefined Weak Reference
    _mutex_release                            - Undefined Weak Reference
    _printf_fp_hex                            - Undefined Weak Reference
    _printf_mbtowc                            - Undefined Weak Reference
    _printf_wc                                - Undefined Weak Reference
    _rand_init                                - Undefined Weak Reference
    _signal_finish                            - Undefined Weak Reference
    _signal_init                              - Undefined Weak Reference
    _terminate_alloc                          - Undefined Weak Reference
    _terminate_user_alloc                     - Undefined Weak Reference
    _terminateio                              - Undefined Weak Reference
    __Vectors_Size                           0x00000130   Number         0  startup_stm32f10x_hd.o ABSOLUTE
    __Vectors                                0x08000000   Data           4  startup_stm32f10x_hd.o(RESET)
    __Vectors_End                            0x08000130   Data           0  startup_stm32f10x_hd.o(RESET)
    __main                                   0x08000131   Thumb Code     8  __main.o(!!!main)
    __scatterload                            0x08000139   Thumb Code     0  __scatter.o(!!!scatter)
    __scatterload_rt2                        0x08000139   Thumb Code    44  __scatter.o(!!!scatter)
    __scatterload_rt2_thumb_only             0x08000139   Thumb Code     0  __scatter.o(!!!scatter)
    __scatterload_null                       0x08000147   Thumb Code     0  __scatter.o(!!!scatter)
    __decompress                             0x0800016d   Thumb Code    90  __dczerorl2.o(!!dczerorl2)
    __decompress1                            0x0800016d   Thumb Code     0  __dczerorl2.o(!!dczerorl2)
    __scatterload_zeroinit                   0x080001c9   Thumb Code    28  __scatter_zi.o(!!handler_zi)
    _printf_n                                0x080001e5   Thumb Code     0  _printf_n.o(.ARM.Collect$$_printf_percent$$00000001)
    _printf_percent                          0x080001e5   Thumb Code     0  _printf_percent.o(.ARM.Collect$$_printf_percent$$00000000)
    _printf_p                                0x080001eb   Thumb Code     0  _printf_p.o(.ARM.Collect$$_printf_percent$$00000002)
    _printf_f                                0x080001f1   Thumb Code     0  _printf_f.o(.ARM.Collect$$_printf_percent$$00000003)
    _printf_e                                0x080001f7   Thumb Code     0  _printf_e.o(.ARM.Collect$$_printf_percent$$00000004)
    _printf_g                                0x080001fd   Thumb Code     0  _printf_g.o(.ARM.Collect$$_printf_percent$$00000005)
    _printf_a                                0x08000203   Thumb Code     0  _printf_a.o(.ARM.Collect$$_printf_percent$$00000006)
    _printf_ll                               0x08000209   Thumb Code     0  _printf_ll.o(.ARM.Collect$$_printf_percent$$00000007)
    _printf_i                                0x08000213   Thumb Code     0  _printf_i.o(.ARM.Collect$$_printf_percent$$00000008)
    _printf_d                                0x08000219   Thumb Code     0  _printf_d.o(.ARM.Collect$$_printf_percent$$00000009)
    _printf_u                                0x0800021f   Thumb Code     0  _printf_u.o(.ARM.Collect$$_printf_percent$$0000000A)
    _printf_o                                0x08000225   Thumb Code     0  _printf_o.o(.ARM.Collect$$_printf_percent$$0000000B)
    _printf_x                                0x0800022b   Thumb Code     0  _printf_x.o(.ARM.Collect$$_printf_percent$$0000000C)
    _printf_lli                              0x08000231   Thumb Code     0  _printf_lli.o(.ARM.Collect$$_printf_percent$$0000000D)
    _printf_lld                              0x08000237   Thumb Code     0  _printf_lld.o(.ARM.Collect$$_printf_percent$$0000000E)
    _printf_llu                              0x0800023d   Thumb Code     0  _printf_llu.o(.ARM.Collect$$_printf_percent$$0000000F)
    _printf_llo                              0x08000243   Thumb Code     0  _printf_llo.o(.ARM.Collect$$_printf_percent$$00000010)
    _printf_llx                              0x08000249   Thumb Code     0  _printf_llx.o(.ARM.Collect$$_printf_percent$$00000011)
    _printf_l                                0x0800024f   Thumb Code     0  _printf_l.o(.ARM.Collect$$_printf_percent$$00000012)
    _printf_c                                0x08000259   Thumb Code     0  _printf_c.o(.ARM.Collect$$_printf_percent$$00000013)
    _printf_s                                0x0800025f   Thumb Code     0  _printf_s.o(.ARM.Collect$$_printf_percent$$00000014)
    _printf_lc                               0x08000265   Thumb Code     0  _printf_lc.o(.ARM.Collect$$_printf_percent$$00000015)
    _printf_ls                               0x0800026b   Thumb Code     0  _printf_ls.o(.ARM.Collect$$_printf_percent$$00000016)
    _printf_percent_end                      0x08000271   Thumb Code     0  _printf_percent_end.o(.ARM.Collect$$_printf_percent$$00000017)
    __rt_lib_init                            0x08000275   Thumb Code     0  libinit.o(.ARM.Collect$$libinit$$00000000)
    __rt_lib_init_fp_1                       0x08000277   Thumb Code     0  libinit2.o(.ARM.Collect$$libinit$$00000002)
    __rt_lib_init_heap_1                     0x08000277   Thumb Code     0  libinit2.o(.ARM.Collect$$libinit$$0000000A)
    __rt_lib_init_lc_common                  0x08000277   Thumb Code     0  libinit2.o(.ARM.Collect$$libinit$$0000000F)
    __rt_lib_init_preinit_1                  0x08000277   Thumb Code     0  libinit2.o(.ARM.Collect$$libinit$$00000004)
    __rt_lib_init_rand_1                     0x08000277   Thumb Code     0  libinit2.o(.ARM.Collect$$libinit$$0000000E)
    __rt_lib_init_user_alloc_1               0x08000277   Thumb Code     0  libinit2.o(.ARM.Collect$$libinit$$0000000C)
    __rt_lib_init_lc_collate_1               0x0800027d   Thumb Code     0  libinit2.o(.ARM.Collect$$libinit$$00000011)
    __rt_lib_init_lc_ctype_2                 0x0800027d   Thumb Code     0  libinit2.o(.ARM.Collect$$libinit$$00000012)
    __rt_lib_init_lc_ctype_1                 0x08000289   Thumb Code     0  libinit2.o(.ARM.Collect$$libinit$$00000013)
    __rt_lib_init_lc_monetary_1              0x08000289   Thumb Code     0  libinit2.o(.ARM.Collect$$libinit$$00000015)
    __rt_lib_init_lc_numeric_2               0x08000289   Thumb Code     0  libinit2.o(.ARM.Collect$$libinit$$00000016)
    __rt_lib_init_alloca_1                   0x08000293   Thumb Code     0  libinit2.o(.ARM.Collect$$libinit$$0000002E)
    __rt_lib_init_argv_1                     0x08000293   Thumb Code     0  libinit2.o(.ARM.Collect$$libinit$$0000002C)
    __rt_lib_init_atexit_1                   0x08000293   Thumb Code     0  libinit2.o(.ARM.Collect$$libinit$$0000001B)
    __rt_lib_init_clock_1                    0x08000293   Thumb Code     0  libinit2.o(.ARM.Collect$$libinit$$00000021)
    __rt_lib_init_cpp_1                      0x08000293   Thumb Code     0  libinit2.o(.ARM.Collect$$libinit$$00000032)
    __rt_lib_init_exceptions_1               0x08000293   Thumb Code     0  libinit2.o(.ARM.Collect$$libinit$$00000030)
    __rt_lib_init_fp_trap_1                  0x08000293   Thumb Code     0  libinit2.o(.ARM.Collect$$libinit$$0000001F)
    __rt_lib_init_getenv_1                   0x08000293   Thumb Code     0  libinit2.o(.ARM.Collect$$libinit$$00000023)
    __rt_lib_init_lc_numeric_1               0x08000293   Thumb Code     0  libinit2.o(.ARM.Collect$$libinit$$00000017)
    __rt_lib_init_lc_time_1                  0x08000293   Thumb Code     0  libinit2.o(.ARM.Collect$$libinit$$00000019)
    __rt_lib_init_return                     0x08000293   Thumb Code     0  libinit2.o(.ARM.Collect$$libinit$$00000033)
    __rt_lib_init_signal_1                   0x08000293   Thumb Code     0  libinit2.o(.ARM.Collect$$libinit$$0000001D)
    __rt_lib_init_stdio_1                    0x08000293   Thumb Code     0  libinit2.o(.ARM.Collect$$libinit$$00000025)
    __rt_lib_shutdown                        0x08000295   Thumb Code     0  libshutdown.o(.ARM.Collect$$libshutdown$$00000000)
    __rt_lib_shutdown_cpp_1                  0x08000297   Thumb Code     0  libshutdown2.o(.ARM.Collect$$libshutdown$$00000002)
    __rt_lib_shutdown_fp_trap_1              0x08000297   Thumb Code     0  libshutdown2.o(.ARM.Collect$$libshutdown$$00000007)
    __rt_lib_shutdown_heap_1                 0x08000297   Thumb Code     0  libshutdown2.o(.ARM.Collect$$libshutdown$$0000000F)
    __rt_lib_shutdown_return                 0x08000297   Thumb Code     0  libshutdown2.o(.ARM.Collect$$libshutdown$$00000010)
    __rt_lib_shutdown_signal_1               0x08000297   Thumb Code     0  libshutdown2.o(.ARM.Collect$$libshutdown$$0000000A)
    __rt_lib_shutdown_stdio_1                0x08000297   Thumb Code     0  libshutdown2.o(.ARM.Collect$$libshutdown$$00000004)
    __rt_lib_shutdown_user_alloc_1           0x08000297   Thumb Code     0  libshutdown2.o(.ARM.Collect$$libshutdown$$0000000C)
    __rt_entry                               0x08000299   Thumb Code     0  __rtentry.o(.ARM.Collect$$rtentry$$00000000)
    __rt_entry_presh_1                       0x08000299   Thumb Code     0  __rtentry2.o(.ARM.Collect$$rtentry$$00000002)
    __rt_entry_sh                            0x08000299   Thumb Code     0  __rtentry4.o(.ARM.Collect$$rtentry$$00000004)
    __rt_entry_li                            0x0800029f   Thumb Code     0  __rtentry2.o(.ARM.Collect$$rtentry$$0000000A)
    __rt_entry_postsh_1                      0x0800029f   Thumb Code     0  __rtentry2.o(.ARM.Collect$$rtentry$$00000009)
    __rt_entry_main                          0x080002a3   Thumb Code     0  __rtentry2.o(.ARM.Collect$$rtentry$$0000000D)
    __rt_entry_postli_1                      0x080002a3   Thumb Code     0  __rtentry2.o(.ARM.Collect$$rtentry$$0000000C)
    __rt_exit                                0x080002ab   Thumb Code     0  rtexit.o(.ARM.Collect$$rtexit$$00000000)
    __rt_exit_ls                             0x080002ad   Thumb Code     0  rtexit2.o(.ARM.Collect$$rtexit$$00000003)
    __rt_exit_prels_1                        0x080002ad   Thumb Code     0  rtexit2.o(.ARM.Collect$$rtexit$$00000002)
    __rt_exit_exit                           0x080002b1   Thumb Code     0  rtexit2.o(.ARM.Collect$$rtexit$$00000004)
    Reset_Handler                            0x080002b9   Thumb Code     8  startup_stm32f10x_hd.o(.text)
    ADC1_2_IRQHandler                        0x080002d3   Thumb Code     0  startup_stm32f10x_hd.o(.text)
    ADC3_IRQHandler                          0x080002d3   Thumb Code     0  startup_stm32f10x_hd.o(.text)
    CAN1_RX1_IRQHandler                      0x080002d3   Thumb Code     0  startup_stm32f10x_hd.o(.text)
    CAN1_SCE_IRQHandler                      0x080002d3   Thumb Code     0  startup_stm32f10x_hd.o(.text)
    DMA1_Channel1_IRQHandler                 0x080002d3   Thumb Code     0  startup_stm32f10x_hd.o(.text)
    DMA1_Channel2_IRQHandler                 0x080002d3   Thumb Code     0  startup_stm32f10x_hd.o(.text)
    DMA1_Channel3_IRQHandler                 0x080002d3   Thumb Code     0  startup_stm32f10x_hd.o(.text)
    DMA1_Channel4_IRQHandler                 0x080002d3   Thumb Code     0  startup_stm32f10x_hd.o(.text)
    DMA1_Channel5_IRQHandler                 0x080002d3   Thumb Code     0  startup_stm32f10x_hd.o(.text)
    DMA1_Channel6_IRQHandler                 0x080002d3   Thumb Code     0  startup_stm32f10x_hd.o(.text)
    DMA1_Channel7_IRQHandler                 0x080002d3   Thumb Code     0  startup_stm32f10x_hd.o(.text)
    DMA2_Channel1_IRQHandler                 0x080002d3   Thumb Code     0  startup_stm32f10x_hd.o(.text)
    DMA2_Channel2_IRQHandler                 0x080002d3   Thumb Code     0  startup_stm32f10x_hd.o(.text)
    DMA2_Channel3_IRQHandler                 0x080002d3   Thumb Code     0  startup_stm32f10x_hd.o(.text)
    DMA2_Channel4_5_IRQHandler               0x080002d3   Thumb Code     0  startup_stm32f10x_hd.o(.text)
    EXTI0_IRQHandler                         0x080002d3   Thumb Code     0  startup_stm32f10x_hd.o(.text)
    EXTI15_10_IRQHandler                     0x080002d3   Thumb Code     0  startup_stm32f10x_hd.o(.text)
    EXTI1_IRQHandler                         0x080002d3   Thumb Code     0  startup_stm32f10x_hd.o(.text)
    EXTI2_IRQHandler                         0x080002d3   Thumb Code     0  startup_stm32f10x_hd.o(.text)
    EXTI3_IRQHandler                         0x080002d3   Thumb Code     0  startup_stm32f10x_hd.o(.text)
    EXTI4_IRQHandler                         0x080002d3   Thumb Code     0  startup_stm32f10x_hd.o(.text)
    EXTI9_5_IRQHandler                       0x080002d3   Thumb Code     0  startup_stm32f10x_hd.o(.text)
    FLASH_IRQHandler                         0x080002d3   Thumb Code     0  startup_stm32f10x_hd.o(.text)
    FSMC_IRQHandler                          0x080002d3   Thumb Code     0  startup_stm32f10x_hd.o(.text)
    I2C1_ER_IRQHandler                       0x080002d3   Thumb Code     0  startup_stm32f10x_hd.o(.text)
    I2C1_EV_IRQHandler                       0x080002d3   Thumb Code     0  startup_stm32f10x_hd.o(.text)
    I2C2_ER_IRQHandler                       0x080002d3   Thumb Code     0  startup_stm32f10x_hd.o(.text)
    I2C2_EV_IRQHandler                       0x080002d3   Thumb Code     0  startup_stm32f10x_hd.o(.text)
    PVD_IRQHandler                           0x080002d3   Thumb Code     0  startup_stm32f10x_hd.o(.text)
    RCC_IRQHandler                           0x080002d3   Thumb Code     0  startup_stm32f10x_hd.o(.text)
    RTCAlarm_IRQHandler                      0x080002d3   Thumb Code     0  startup_stm32f10x_hd.o(.text)
    RTC_IRQHandler                           0x080002d3   Thumb Code     0  startup_stm32f10x_hd.o(.text)
    SDIO_IRQHandler                          0x080002d3   Thumb Code     0  startup_stm32f10x_hd.o(.text)
    SPI1_IRQHandler                          0x080002d3   Thumb Code     0  startup_stm32f10x_hd.o(.text)
    SPI2_IRQHandler                          0x080002d3   Thumb Code     0  startup_stm32f10x_hd.o(.text)
    SPI3_IRQHandler                          0x080002d3   Thumb Code     0  startup_stm32f10x_hd.o(.text)
    TAMPER_IRQHandler                        0x080002d3   Thumb Code     0  startup_stm32f10x_hd.o(.text)
    TIM1_BRK_IRQHandler                      0x080002d3   Thumb Code     0  startup_stm32f10x_hd.o(.text)
    TIM1_CC_IRQHandler                       0x080002d3   Thumb Code     0  startup_stm32f10x_hd.o(.text)
    TIM1_TRG_COM_IRQHandler                  0x080002d3   Thumb Code     0  startup_stm32f10x_hd.o(.text)
    TIM1_UP_IRQHandler                       0x080002d3   Thumb Code     0  startup_stm32f10x_hd.o(.text)
    TIM2_IRQHandler                          0x080002d3   Thumb Code     0  startup_stm32f10x_hd.o(.text)
    TIM3_IRQHandler                          0x080002d3   Thumb Code     0  startup_stm32f10x_hd.o(.text)
    TIM5_IRQHandler                          0x080002d3   Thumb Code     0  startup_stm32f10x_hd.o(.text)
    TIM6_IRQHandler                          0x080002d3   Thumb Code     0  startup_stm32f10x_hd.o(.text)
    TIM8_BRK_IRQHandler                      0x080002d3   Thumb Code     0  startup_stm32f10x_hd.o(.text)
    TIM8_CC_IRQHandler                       0x080002d3   Thumb Code     0  startup_stm32f10x_hd.o(.text)
    TIM8_TRG_COM_IRQHandler                  0x080002d3   Thumb Code     0  startup_stm32f10x_hd.o(.text)
    TIM8_UP_IRQHandler                       0x080002d3   Thumb Code     0  startup_stm32f10x_hd.o(.text)
    UART4_IRQHandler                         0x080002d3   Thumb Code     0  startup_stm32f10x_hd.o(.text)
    UART5_IRQHandler                         0x080002d3   Thumb Code     0  startup_stm32f10x_hd.o(.text)
    USART2_IRQHandler                        0x080002d3   Thumb Code     0  startup_stm32f10x_hd.o(.text)
    USBWakeUp_IRQHandler                     0x080002d3   Thumb Code     0  startup_stm32f10x_hd.o(.text)
    USB_HP_CAN1_TX_IRQHandler                0x080002d3   Thumb Code     0  startup_stm32f10x_hd.o(.text)
    USB_LP_CAN1_RX0_IRQHandler               0x080002d3   Thumb Code     0  startup_stm32f10x_hd.o(.text)
    WWDG_IRQHandler                          0x080002d3   Thumb Code     0  startup_stm32f10x_hd.o(.text)
    __user_initial_stackheap                 0x080002d5   Thumb Code     0  startup_stm32f10x_hd.o(.text)
    __use_no_semihosting                     0x080002f9   Thumb Code     2  use_no_semi_2.o(.text)
    __c89vsprintf                            0x080002fd   Thumb Code    32  c89vsprintf.o(.text)
    __2printf                                0x08000321   Thumb Code    20  __2printf.o(.text)
    __2sprintf                               0x08000339   Thumb Code    38  __2sprintf.o(.text)
    _printf_pre_padding                      0x08000365   Thumb Code    44  _printf_pad.o(.text)
    _printf_post_padding                     0x08000391   Thumb Code    34  _printf_pad.o(.text)
    _printf_str                              0x080003b3   Thumb Code    82  _printf_str.o(.text)
    _printf_int_dec                          0x08000405   Thumb Code   104  _printf_dec.o(.text)
    _printf_longlong_hex                     0x0800047d   Thumb Code    86  _printf_hex_int_ll_ptr.o(.text)
    _printf_int_hex                          0x080004d3   Thumb Code    28  _printf_hex_int_ll_ptr.o(.text)
    _printf_ll_hex                           0x080004ef   Thumb Code    12  _printf_hex_int_ll_ptr.o(.text)
    _printf_hex_ptr                          0x080004fb   Thumb Code    18  _printf_hex_int_ll_ptr.o(.text)
    __printf                                 0x08000511   Thumb Code   388  __printf_flags_ss_wp.o(.text)
    strstr                                   0x08000699   Thumb Code    36  strstr.o(.text)
    strlen                                   0x080006bd   Thumb Code    62  strlen.o(.text)
    __aeabi_memclr4                          0x080006fb   Thumb Code     0  rt_memclr_w.o(.text)
    __aeabi_memclr8                          0x080006fb   Thumb Code     0  rt_memclr_w.o(.text)
    __rt_memclr_w                            0x080006fb   Thumb Code    78  rt_memclr_w.o(.text)
    _memset_w                                0x080006ff   Thumb Code     0  rt_memclr_w.o(.text)
    strcmp                                   0x08000749   Thumb Code   128  strcmpv7m.o(.text)
    __use_two_region_memory                  0x080007c9   Thumb Code     2  heapauxi.o(.text)
    __rt_heap_escrow$2region                 0x080007cb   Thumb Code     2  heapauxi.o(.text)
    __rt_heap_expand$2region                 0x080007cd   Thumb Code     2  heapauxi.o(.text)
    __I$use$semihosting                      0x080007cf   Thumb Code     0  use_no_semi.o(.text)
    __use_no_semihosting_swi                 0x080007cf   Thumb Code     2  use_no_semi.o(.text)
    _printf_truncate_signed                  0x080007d1   Thumb Code    18  _printf_truncate.o(.text)
    _printf_truncate_unsigned                0x080007e3   Thumb Code    18  _printf_truncate.o(.text)
    _printf_int_common                       0x080007f5   Thumb Code   178  _printf_intcommon.o(.text)
    _printf_charcount                        0x080008a7   Thumb Code    40  _printf_charcount.o(.text)
    _printf_char_common                      0x080008db   Thumb Code    32  _printf_char_common.o(.text)
    _sputc                                   0x08000901   Thumb Code    10  _sputc.o(.text)
    _printf_cs_common                        0x0800090b   Thumb Code    20  _printf_char.o(.text)
    _printf_char                             0x0800091f   Thumb Code    16  _printf_char.o(.text)
    _printf_string                           0x0800092f   Thumb Code     8  _printf_char.o(.text)
    _printf_char_file                        0x08000939   Thumb Code    32  _printf_char_file.o(.text)
    _printf_wctomb                           0x0800095d   Thumb Code   182  _printf_wctomb.o(.text)
    _printf_longlong_dec                     0x08000a19   Thumb Code   108  _printf_longlong_dec.o(.text)
    _printf_longlong_oct                     0x08000a95   Thumb Code    66  _printf_oct_int_ll.o(.text)
    _printf_int_oct                          0x08000ad7   Thumb Code    24  _printf_oct_int_ll.o(.text)
    _printf_ll_oct                           0x08000aef   Thumb Code    12  _printf_oct_int_ll.o(.text)
    _ll_udiv10                               0x08000b05   Thumb Code   138  lludiv10.o(.text)
    __lib_sel_fp_printf                      0x08000b8f   Thumb Code     2  _printf_fp_dec.o(.text)
    _printf_fp_dec_real                      0x08000d3d   Thumb Code   620  _printf_fp_dec.o(.text)
    _printf_lcs_common                       0x08000fa9   Thumb Code    20  _printf_wchar.o(.text)
    _printf_wchar                            0x08000fbd   Thumb Code    16  _printf_wchar.o(.text)
    _printf_wstring                          0x08000fcd   Thumb Code     8  _printf_wchar.o(.text)
    ferror                                   0x08000fd5   Thumb Code     8  ferror.o(.text)
    _wcrtomb                                 0x08000fdd   Thumb Code    64  _wcrtomb.o(.text)
    __user_setup_stackheap                   0x0800101d   Thumb Code    74  sys_stackheap_outer.o(.text)
    __rt_ctype_table                         0x08001069   Thumb Code    16  rt_ctype_table.o(.text)
    __rt_locale                              0x08001079   Thumb Code     8  rt_locale_intlibspace.o(.text)
    _printf_fp_infnan                        0x08001081   Thumb Code   112  _printf_fp_infnan.o(.text)
    _btod_etento                             0x08001101   Thumb Code   216  bigflt0.o(.text)
    exit                                     0x080011dd   Thumb Code    18  exit.o(.text)
    __user_libspace                          0x080011f1   Thumb Code     8  libspace.o(.text)
    __user_perproc_libspace                  0x080011f1   Thumb Code     0  libspace.o(.text)
    __user_perthread_libspace                0x080011f1   Thumb Code     0  libspace.o(.text)
    _btod_d2e                                0x080011f9   Thumb Code    62  btod.o(CL$$btod_d2e)
    _d2e_denorm_low                          0x08001237   Thumb Code    70  btod.o(CL$$btod_d2e_denorm_low)
    _d2e_norm_op1                            0x0800127d   Thumb Code    96  btod.o(CL$$btod_d2e_norm_op1)
    __btod_div_common                        0x080012dd   Thumb Code   696  btod.o(CL$$btod_div_common)
    _e2e                                     0x08001615   Thumb Code   198  btod.o(CL$$btod_e2e)
    _btod_ediv                               0x080016db   Thumb Code    40  btod.o(CL$$btod_ediv)
    _btod_emul                               0x08001703   Thumb Code    40  btod.o(CL$$btod_emul)
    __btod_mult_common                       0x0800172b   Thumb Code   580  btod.o(CL$$btod_mult_common)
    BEEP_Init                                0x08001971   Thumb Code    50  beep.o(i.BEEP_Init)
    BusFault_Handler                         0x080019a9   Thumb Code     4  stm32f10x_it.o(i.BusFault_Handler)
    DHT11_Check                              0x080019ad   Thumb Code    92  dht11.o(i.DHT11_Check)
    DHT11_Read_Bit                           0x08001a11   Thumb Code    70  dht11.o(i.DHT11_Read_Bit)
    DHT11_Read_Byte                          0x08001a5d   Thumb Code    30  dht11.o(i.DHT11_Read_Byte)
    DHT11_Read_Data                          0x08001a7b   Thumb Code    88  dht11.o(i.DHT11_Read_Data)
    DHT11_Rst                                0x08001ad5   Thumb Code    52  dht11.o(i.DHT11_Rst)
    DebugMon_Handler                         0x08001b15   Thumb Code     2  stm32f10x_it.o(i.DebugMon_Handler)
    GPIO_Init                                0x08001b17   Thumb Code   278  stm32f10x_gpio.o(i.GPIO_Init)
    GPIO_ReadInputDataBit                    0x08001c2d   Thumb Code    18  stm32f10x_gpio.o(i.GPIO_ReadInputDataBit)
    GPIO_ResetBits                           0x08001c3f   Thumb Code     4  stm32f10x_gpio.o(i.GPIO_ResetBits)
    GPIO_SetBits                             0x08001c43   Thumb Code     4  stm32f10x_gpio.o(i.GPIO_SetBits)
    HardFault_Handler                        0x08001c47   Thumb Code     4  stm32f10x_it.o(i.HardFault_Handler)
    KEY_Init                                 0x08001c4d   Thumb Code    52  key.o(i.KEY_Init)
    KEY_Scan                                 0x08001c89   Thumb Code   188  key.o(i.KEY_Scan)
    LED_Init                                 0x08001d51   Thumb Code    68  led.o(i.LED_Init)
    MemManage_Handler                        0x08001d9d   Thumb Code     4  stm32f10x_it.o(i.MemManage_Handler)
    NMI_Handler                              0x08001da1   Thumb Code     2  stm32f10x_it.o(i.NMI_Handler)
    NVIC_Init                                0x08001da5   Thumb Code   100  misc.o(i.NVIC_Init)
    NVIC_PriorityGroupConfig                 0x08001e15   Thumb Code    10  misc.o(i.NVIC_PriorityGroupConfig)
    PendSV_Handler                           0x08001e29   Thumb Code     2  stm32f10x_it.o(i.PendSV_Handler)
    RCC_APB1PeriphClockCmd                   0x08001e2d   Thumb Code    26  stm32f10x_rcc.o(i.RCC_APB1PeriphClockCmd)
    RCC_APB1PeriphResetCmd                   0x08001e4d   Thumb Code    26  stm32f10x_rcc.o(i.RCC_APB1PeriphResetCmd)
    RCC_APB2PeriphClockCmd                   0x08001e6d   Thumb Code    26  stm32f10x_rcc.o(i.RCC_APB2PeriphClockCmd)
    RCC_APB2PeriphResetCmd                   0x08001e8d   Thumb Code    26  stm32f10x_rcc.o(i.RCC_APB2PeriphResetCmd)
    RCC_GetClocksFreq                        0x08001ead   Thumb Code   192  stm32f10x_rcc.o(i.RCC_GetClocksFreq)
    SVC_Handler                              0x08001f81   Thumb Code     2  stm32f10x_it.o(i.SVC_Handler)
    SysTick_CLKSourceConfig                  0x0800206d   Thumb Code    40  misc.o(i.SysTick_CLKSourceConfig)
    SysTick_Handler                          0x08002095   Thumb Code     2  stm32f10x_it.o(i.SysTick_Handler)
    SystemInit                               0x08002099   Thumb Code    78  system_stm32f10x.o(i.SystemInit)
    TIM4_IRQHandler                          0x080020f9   Thumb Code    46  usmart.o(i.TIM4_IRQHandler)
    TIM7_IRQHandler                          0x08002131   Thumb Code    42  timer.o(i.TIM7_IRQHandler)
    TIM7_Int_Init                            0x08002165   Thumb Code    90  timer.o(i.TIM7_Int_Init)
    TIM_ClearFlag                            0x080021c5   Thumb Code     6  stm32f10x_tim.o(i.TIM_ClearFlag)
    TIM_ClearITPendingBit                    0x080021cb   Thumb Code     6  stm32f10x_tim.o(i.TIM_ClearITPendingBit)
    TIM_Cmd                                  0x080021d1   Thumb Code    24  stm32f10x_tim.o(i.TIM_Cmd)
    TIM_GetCounter                           0x080021e9   Thumb Code     6  stm32f10x_tim.o(i.TIM_GetCounter)
    TIM_GetFlagStatus                        0x080021ef   Thumb Code    18  stm32f10x_tim.o(i.TIM_GetFlagStatus)
    TIM_GetITStatus                          0x08002201   Thumb Code    34  stm32f10x_tim.o(i.TIM_GetITStatus)
    TIM_ITConfig                             0x08002223   Thumb Code    18  stm32f10x_tim.o(i.TIM_ITConfig)
    TIM_SetAutoreload                        0x08002235   Thumb Code     4  stm32f10x_tim.o(i.TIM_SetAutoreload)
    TIM_SetCounter                           0x08002239   Thumb Code     4  stm32f10x_tim.o(i.TIM_SetCounter)
    TIM_TimeBaseInit                         0x0800223d   Thumb Code   122  stm32f10x_tim.o(i.TIM_TimeBaseInit)
    Timer4_Init                              0x080022e1   Thumb Code    88  usmart.o(i.Timer4_Init)
    USART1_IRQHandler                        0x0800233d   Thumb Code   122  usart.o(i.USART1_IRQHandler)
    USART3_IRQHandler                        0x080023c5   Thumb Code    94  usart3.o(i.USART3_IRQHandler)
    USART_Cmd                                0x08002435   Thumb Code    24  stm32f10x_usart.o(i.USART_Cmd)
    USART_DeInit                             0x0800244d   Thumb Code   134  stm32f10x_usart.o(i.USART_DeInit)
    USART_GetFlagStatus                      0x080024e9   Thumb Code    26  stm32f10x_usart.o(i.USART_GetFlagStatus)
    USART_GetITStatus                        0x08002503   Thumb Code    84  stm32f10x_usart.o(i.USART_GetITStatus)
    USART_ITConfig                           0x08002557   Thumb Code    74  stm32f10x_usart.o(i.USART_ITConfig)
    USART_Init                               0x080025a1   Thumb Code   210  stm32f10x_usart.o(i.USART_Init)
    USART_ReceiveData                        0x08002679   Thumb Code    10  stm32f10x_usart.o(i.USART_ReceiveData)
    USART_SendData                           0x08002683   Thumb Code     8  stm32f10x_usart.o(i.USART_SendData)
    UsageFault_Handler                       0x0800268b   Thumb Code     4  stm32f10x_it.o(i.UsageFault_Handler)
    __ARM_fpclassify                         0x0800268f   Thumb Code    40  fpclassify.o(i.__ARM_fpclassify)
    _is_digit                                0x080026b7   Thumb Code    14  __printf_wp.o(i._is_digit)
    _sys_exit                                0x080026c5   Thumb Code     6  usart.o(i._sys_exit)
    ap_demo                                  0x080026cd   Thumb Code   848  main.o(i.ap_demo)
    atk_8266_at_response                     0x08002cbd   Thumb Code    46  common.o(i.atk_8266_at_response)
    atk_8266_check_cmd                       0x08002cf9   Thumb Code    44  common.o(i.atk_8266_check_cmd)
    atk_8266_consta_check                    0x08002d2d   Thumb Code    36  common.o(i.atk_8266_consta_check)
    atk_8266_get_wanip                       0x08002d71   Thumb Code    58  common.o(i.atk_8266_get_wanip)
    atk_8266_msg_show                        0x08002dc5   Thumb Code   398  common.o(i.atk_8266_msg_show)
    atk_8266_quit_trans                      0x0800302d   Thumb Code   100  common.o(i.atk_8266_quit_trans)
    atk_8266_send_cmd                        0x0800309d   Thumb Code    92  common.o(i.atk_8266_send_cmd)
    atk_8266_send_data                       0x08003111   Thumb Code    84  common.o(i.atk_8266_send_data)
    atk_8266_wificonf_show                   0x0800316d   Thumb Code    70  common.o(i.atk_8266_wificonf_show)
    delay_init                               0x080031dd   Thumb Code    50  delay.o(i.delay_init)
    delay_ms                                 0x08003221   Thumb Code    72  delay.o(i.delay_ms)
    delay_us                                 0x0800326d   Thumb Code    72  delay.o(i.delay_us)
    fputc                                    0x080032b9   Thumb Code    24  usart.o(i.fputc)
    main                                     0x080032d5   Thumb Code    84  main.o(i.main)
    my_mem_free                              0x08003335   Thumb Code    96  malloc.o(i.my_mem_free)
    my_mem_init                              0x080033a1   Thumb Code    54  malloc.o(i.my_mem_init)
    my_mem_malloc                            0x080033e5   Thumb Code   156  malloc.o(i.my_mem_malloc)
    my_mem_perused                           0x0800348d   Thumb Code    54  malloc.o(i.my_mem_perused)
    myfree                                   0x080034cd   Thumb Code    30  malloc.o(i.myfree)
    mymalloc                                 0x080034f1   Thumb Code    34  malloc.o(i.mymalloc)
    mymemset                                 0x08003519   Thumb Code    20  malloc.o(i.mymemset)
    read_addr                                0x0800352d   Thumb Code     6  usmart.o(i.read_addr)
    recv_data_analysis                       0x08003535   Thumb Code   262  common.o(i.recv_data_analysis)
    send_data_to_usart3                      0x08003729   Thumb Code   140  common.o(i.send_data_to_usart3)
    u3_printf                                0x080037e9   Thumb Code    72  usart3.o(i.u3_printf)
    uart_init                                0x08003839   Thumb Code   152  usart.o(i.uart_init)
    usart3_init                              0x080038d9   Thumb Code   192  usart3.o(i.usart3_init)
    usmart_cmd_rec                           0x080039a9   Thumb Code   170  usmart.o(i.usmart_cmd_rec)
    usmart_exe                               0x08003a59   Thumb Code   632  usmart.o(i.usmart_exe)
    usmart_get_aparm                         0x08003d2d   Thumb Code   200  usmart_str.o(i.usmart_get_aparm)
    usmart_get_cmdname                       0x08003df5   Thumb Code    54  usmart_str.o(i.usmart_get_cmdname)
    usmart_get_fname                         0x08003e2d   Thumb Code   440  usmart_str.o(i.usmart_get_fname)
    usmart_get_fparam                        0x08003fed   Thumb Code   262  usmart_str.o(i.usmart_get_fparam)
    usmart_get_parmpos                       0x080040f9   Thumb Code    26  usmart_str.o(i.usmart_get_parmpos)
    usmart_get_runtime                       0x08004119   Thumb Code    60  usmart.o(i.usmart_get_runtime)
    usmart_init                              0x0800415d   Thumb Code    36  usmart.o(i.usmart_init)
    usmart_pow                               0x08004185   Thumb Code    22  usmart_str.o(i.usmart_pow)
    usmart_reset_runtime                     0x0800419d   Thumb Code    38  usmart.o(i.usmart_reset_runtime)
    usmart_scan                              0x080041cd   Thumb Code   120  usmart.o(i.usmart_scan)
    usmart_search_nextc                      0x08004289   Thumb Code    22  usmart_str.o(i.usmart_search_nextc)
    usmart_str2num                           0x0800429f   Thumb Code   202  usmart_str.o(i.usmart_str2num)
    usmart_strcmp                            0x08004369   Thumb Code    34  usmart_str.o(i.usmart_strcmp)
    usmart_strcopy                           0x0800438b   Thumb Code    22  usmart_str.o(i.usmart_strcopy)
    usmart_strlen                            0x080043a1   Thumb Code    24  usmart_str.o(i.usmart_strlen)
    usmart_sys_cmd_exe                       0x080043b9   Thumb Code  1554  usmart.o(i.usmart_sys_cmd_exe)
    write_addr                               0x08004a9d   Thumb Code     4  usmart.o(i.write_addr)
    _get_lc_numeric                          0x08004aa1   Thumb Code    44  lc_numeric_c.o(locale$$code)
    _get_lc_ctype                            0x08004acd   Thumb Code    44  lc_ctype_c.o(locale$$code)
    _printf_fp_dec                           0x08004af9   Thumb Code     4  printf1.o(x$fpl$printf1)
    __I$use$fp                               0x08004afc   Number         0  usenofp.o(x$fpl$usenofp)
    memtblsize                               0x08004b0c   Data           8  malloc.o(.constdata)
    memblksize                               0x08004b14   Data           8  malloc.o(.constdata)
    memsize                                  0x08004b1c   Data           8  malloc.o(.constdata)
    Region$$Table$$Base                      0x08004d90   Number         0  anon$$obj.o(Region$$Table)
    Region$$Table$$Limit                     0x08004db0   Number         0  anon$$obj.o(Region$$Table)
    __ctype                                  0x08004dd9   Data           0  lc_ctype_c.o(locale$$data)
    SystemCoreClock                          0x20000000   Data           4  system_stm32f10x.o(.data)
    AHBPrescTable                            0x20000004   Data          16  system_stm32f10x.o(.data)
    __stdout                                 0x20000018   Data           4  usart.o(.data)
    USART_RX_STA                             0x2000001c   Data           2  usart.o(.data)
    POINT_COLOR                              0x20000020   Data           2  lcd.o(.data)
    BACK_COLOR                               0x20000022   Data           2  lcd.o(.data)
    USART3_RX_STA                            0x20000024   Data           2  usart3.o(.data)
    mallco_dev                               0x2000003c   Data          28  malloc.o(.data)
    sys_cmd_tab                              0x20000058   Data          28  usmart.o(.data)
    usmart_nametab                           0x20000074   Data          32  usmart_config.o(.data)
    usmart_dev                               0x20000094   Data         244  usmart_config.o(.data)
    portnum                                  0x20000188   Data           4  common.o(.data)
    wifista_ssid                             0x2000018c   Data           4  common.o(.data)
    wifista_encryption                       0x20000190   Data           4  common.o(.data)
    wifista_password                         0x20000194   Data           4  common.o(.data)
    wifiap_ssid                              0x20000198   Data           4  common.o(.data)
    wifiap_encryption                        0x2000019c   Data           4  common.o(.data)
    wifiap_password                          0x200001a0   Data           4  common.o(.data)
    ATK_ESP8266_CWMODE_TBL                   0x200001a4   Data          12  common.o(.data)
    ATK_ESP8266_WORKMODE_TBL                 0x200001b0   Data          12  common.o(.data)
    ATK_ESP8266_ECN_TBL                      0x200001bc   Data          20  common.o(.data)
    kbd_tbl                                  0x200001d0   Data          52  common.o(.data)
    kbd_fn_tbl                               0x20000204   Data           8  common.o(.data)
    USART_RX_BUF                             0x2000020c   Data         200  usart.o(.bss)
    USART3_RX_BUF                            0x200002d4   Data         600  usart3.o(.bss)
    USART3_TX_BUF                            0x2000052c   Data         600  usart3.o(.bss)
    mem1base                                 0x200007a0   Data       40960  malloc.o(.bss)
    mem1mapbase                              0x2000a7a0   Data        2560  malloc.o(.bss)
    __libspace_start                         0x2000b1a0   Data          96  libspace.o(.bss)
    __temporary_stack_top$libspace           0x2000b200   Data           0  libspace.o(.bss)
    mem2base                                 0x68000000   Data       983040  malloc.o(.ARM.__AT_0x68000000)
    mem2mapbase                              0x680f0000   Data       61440  malloc.o(.ARM.__AT_0x680F0000)



==============================================================================

Memory Map of the image

  Image Entry point : 0x08000131

  Load Region LR_IROM1 (Base: 0x08000000, Size: 0x000050e8, Max: 0x00080000, ABSOLUTE, COMPRESSED[0x00004fb0])

    Execution Region ER_IROM1 (Base: 0x08000000, Size: 0x00004edc, Max: 0x00080000, ABSOLUTE)

    Base Addr    Size         Type   Attr      Idx    E Section Name        Object

    0x08000000   0x00000130   Data   RO          299    RESET               startup_stm32f10x_hd.o
    0x08000130   0x00000008   Code   RO         2915  * !!!main             c_w.l(__main.o)
    0x08000138   0x00000034   Code   RO         3192    !!!scatter          c_w.l(__scatter.o)
    0x0800016c   0x0000005a   Code   RO         3190    !!dczerorl2         c_w.l(__dczerorl2.o)
    0x080001c6   0x00000002   PAD
    0x080001c8   0x0000001c   Code   RO         3194    !!handler_zi        c_w.l(__scatter_zi.o)
    0x080001e4   0x00000000   Code   RO         2904    .ARM.Collect$$_printf_percent$$00000000  c_w.l(_printf_percent.o)
    0x080001e4   0x00000006   Code   RO         2957    .ARM.Collect$$_printf_percent$$00000001  c_w.l(_printf_n.o)
    0x080001ea   0x00000006   Code   RO         2958    .ARM.Collect$$_printf_percent$$00000002  c_w.l(_printf_p.o)
    0x080001f0   0x00000006   Code   RO         2961    .ARM.Collect$$_printf_percent$$00000003  c_w.l(_printf_f.o)
    0x080001f6   0x00000006   Code   RO         2962    .ARM.Collect$$_printf_percent$$00000004  c_w.l(_printf_e.o)
    0x080001fc   0x00000006   Code   RO         2963    .ARM.Collect$$_printf_percent$$00000005  c_w.l(_printf_g.o)
    0x08000202   0x00000006   Code   RO         2964    .ARM.Collect$$_printf_percent$$00000006  c_w.l(_printf_a.o)
    0x08000208   0x0000000a   Code   RO         2969    .ARM.Collect$$_printf_percent$$00000007  c_w.l(_printf_ll.o)
    0x08000212   0x00000006   Code   RO         2960    .ARM.Collect$$_printf_percent$$00000008  c_w.l(_printf_i.o)
    0x08000218   0x00000006   Code   RO         2902    .ARM.Collect$$_printf_percent$$00000009  c_w.l(_printf_d.o)
    0x0800021e   0x00000006   Code   RO         2903    .ARM.Collect$$_printf_percent$$0000000A  c_w.l(_printf_u.o)
    0x08000224   0x00000006   Code   RO         2959    .ARM.Collect$$_printf_percent$$0000000B  c_w.l(_printf_o.o)
    0x0800022a   0x00000006   Code   RO         2901    .ARM.Collect$$_printf_percent$$0000000C  c_w.l(_printf_x.o)
    0x08000230   0x00000006   Code   RO         2966    .ARM.Collect$$_printf_percent$$0000000D  c_w.l(_printf_lli.o)
    0x08000236   0x00000006   Code   RO         2967    .ARM.Collect$$_printf_percent$$0000000E  c_w.l(_printf_lld.o)
    0x0800023c   0x00000006   Code   RO         2968    .ARM.Collect$$_printf_percent$$0000000F  c_w.l(_printf_llu.o)
    0x08000242   0x00000006   Code   RO         2973    .ARM.Collect$$_printf_percent$$00000010  c_w.l(_printf_llo.o)
    0x08000248   0x00000006   Code   RO         2974    .ARM.Collect$$_printf_percent$$00000011  c_w.l(_printf_llx.o)
    0x0800024e   0x0000000a   Code   RO         2970    .ARM.Collect$$_printf_percent$$00000012  c_w.l(_printf_l.o)
    0x08000258   0x00000006   Code   RO         2899    .ARM.Collect$$_printf_percent$$00000013  c_w.l(_printf_c.o)
    0x0800025e   0x00000006   Code   RO         2900    .ARM.Collect$$_printf_percent$$00000014  c_w.l(_printf_s.o)
    0x08000264   0x00000006   Code   RO         2971    .ARM.Collect$$_printf_percent$$00000015  c_w.l(_printf_lc.o)
    0x0800026a   0x00000006   Code   RO         2972    .ARM.Collect$$_printf_percent$$00000016  c_w.l(_printf_ls.o)
    0x08000270   0x00000004   Code   RO         2965    .ARM.Collect$$_printf_percent$$00000017  c_w.l(_printf_percent_end.o)
    0x08000274   0x00000002   Code   RO         3057    .ARM.Collect$$libinit$$00000000  c_w.l(libinit.o)
    0x08000276   0x00000000   Code   RO         3071    .ARM.Collect$$libinit$$00000002  c_w.l(libinit2.o)
    0x08000276   0x00000000   Code   RO         3073    .ARM.Collect$$libinit$$00000004  c_w.l(libinit2.o)
    0x08000276   0x00000000   Code   RO         3076    .ARM.Collect$$libinit$$0000000A  c_w.l(libinit2.o)
    0x08000276   0x00000000   Code   RO         3078    .ARM.Collect$$libinit$$0000000C  c_w.l(libinit2.o)
    0x08000276   0x00000000   Code   RO         3080    .ARM.Collect$$libinit$$0000000E  c_w.l(libinit2.o)
    0x08000276   0x00000006   Code   RO         3081    .ARM.Collect$$libinit$$0000000F  c_w.l(libinit2.o)
    0x0800027c   0x00000000   Code   RO         3083    .ARM.Collect$$libinit$$00000011  c_w.l(libinit2.o)
    0x0800027c   0x0000000c   Code   RO         3084    .ARM.Collect$$libinit$$00000012  c_w.l(libinit2.o)
    0x08000288   0x00000000   Code   RO         3085    .ARM.Collect$$libinit$$00000013  c_w.l(libinit2.o)
    0x08000288   0x00000000   Code   RO         3087    .ARM.Collect$$libinit$$00000015  c_w.l(libinit2.o)
    0x08000288   0x0000000a   Code   RO         3088    .ARM.Collect$$libinit$$00000016  c_w.l(libinit2.o)
    0x08000292   0x00000000   Code   RO         3089    .ARM.Collect$$libinit$$00000017  c_w.l(libinit2.o)
    0x08000292   0x00000000   Code   RO         3091    .ARM.Collect$$libinit$$00000019  c_w.l(libinit2.o)
    0x08000292   0x00000000   Code   RO         3093    .ARM.Collect$$libinit$$0000001B  c_w.l(libinit2.o)
    0x08000292   0x00000000   Code   RO         3095    .ARM.Collect$$libinit$$0000001D  c_w.l(libinit2.o)
    0x08000292   0x00000000   Code   RO         3097    .ARM.Collect$$libinit$$0000001F  c_w.l(libinit2.o)
    0x08000292   0x00000000   Code   RO         3099    .ARM.Collect$$libinit$$00000021  c_w.l(libinit2.o)
    0x08000292   0x00000000   Code   RO         3101    .ARM.Collect$$libinit$$00000023  c_w.l(libinit2.o)
    0x08000292   0x00000000   Code   RO         3103    .ARM.Collect$$libinit$$00000025  c_w.l(libinit2.o)
    0x08000292   0x00000000   Code   RO         3107    .ARM.Collect$$libinit$$0000002C  c_w.l(libinit2.o)
    0x08000292   0x00000000   Code   RO         3109    .ARM.Collect$$libinit$$0000002E  c_w.l(libinit2.o)
    0x08000292   0x00000000   Code   RO         3111    .ARM.Collect$$libinit$$00000030  c_w.l(libinit2.o)
    0x08000292   0x00000000   Code   RO         3113    .ARM.Collect$$libinit$$00000032  c_w.l(libinit2.o)
    0x08000292   0x00000002   Code   RO         3114    .ARM.Collect$$libinit$$00000033  c_w.l(libinit2.o)
    0x08000294   0x00000002   Code   RO         3132    .ARM.Collect$$libshutdown$$00000000  c_w.l(libshutdown.o)
    0x08000296   0x00000000   Code   RO         3142    .ARM.Collect$$libshutdown$$00000002  c_w.l(libshutdown2.o)
    0x08000296   0x00000000   Code   RO         3144    .ARM.Collect$$libshutdown$$00000004  c_w.l(libshutdown2.o)
    0x08000296   0x00000000   Code   RO         3147    .ARM.Collect$$libshutdown$$00000007  c_w.l(libshutdown2.o)
    0x08000296   0x00000000   Code   RO         3150    .ARM.Collect$$libshutdown$$0000000A  c_w.l(libshutdown2.o)
    0x08000296   0x00000000   Code   RO         3152    .ARM.Collect$$libshutdown$$0000000C  c_w.l(libshutdown2.o)
    0x08000296   0x00000000   Code   RO         3155    .ARM.Collect$$libshutdown$$0000000F  c_w.l(libshutdown2.o)
    0x08000296   0x00000002   Code   RO         3156    .ARM.Collect$$libshutdown$$00000010  c_w.l(libshutdown2.o)
    0x08000298   0x00000000   Code   RO         2931    .ARM.Collect$$rtentry$$00000000  c_w.l(__rtentry.o)
    0x08000298   0x00000000   Code   RO         2983    .ARM.Collect$$rtentry$$00000002  c_w.l(__rtentry2.o)
    0x08000298   0x00000006   Code   RO         2995    .ARM.Collect$$rtentry$$00000004  c_w.l(__rtentry4.o)
    0x0800029e   0x00000000   Code   RO         2985    .ARM.Collect$$rtentry$$00000009  c_w.l(__rtentry2.o)
    0x0800029e   0x00000004   Code   RO         2986    .ARM.Collect$$rtentry$$0000000A  c_w.l(__rtentry2.o)
    0x080002a2   0x00000000   Code   RO         2988    .ARM.Collect$$rtentry$$0000000C  c_w.l(__rtentry2.o)
    0x080002a2   0x00000008   Code   RO         2989    .ARM.Collect$$rtentry$$0000000D  c_w.l(__rtentry2.o)
    0x080002aa   0x00000002   Code   RO         3065    .ARM.Collect$$rtexit$$00000000  c_w.l(rtexit.o)
    0x080002ac   0x00000000   Code   RO         3116    .ARM.Collect$$rtexit$$00000002  c_w.l(rtexit2.o)
    0x080002ac   0x00000004   Code   RO         3117    .ARM.Collect$$rtexit$$00000003  c_w.l(rtexit2.o)
    0x080002b0   0x00000006   Code   RO         3118    .ARM.Collect$$rtexit$$00000004  c_w.l(rtexit2.o)
    0x080002b6   0x00000002   PAD
    0x080002b8   0x00000040   Code   RO          300    .text               startup_stm32f10x_hd.o
    0x080002f8   0x00000002   Code   RO         2838    .text               c_w.l(use_no_semi_2.o)
    0x080002fa   0x00000002   PAD
    0x080002fc   0x00000024   Code   RO         2840    .text               c_w.l(c89vsprintf.o)
    0x08000320   0x00000018   Code   RO         2842    .text               c_w.l(__2printf.o)
    0x08000338   0x0000002c   Code   RO         2844    .text               c_w.l(__2sprintf.o)
    0x08000364   0x0000004e   Code   RO         2852    .text               c_w.l(_printf_pad.o)
    0x080003b2   0x00000052   Code   RO         2854    .text               c_w.l(_printf_str.o)
    0x08000404   0x00000078   Code   RO         2856    .text               c_w.l(_printf_dec.o)
    0x0800047c   0x00000094   Code   RO         2876    .text               c_w.l(_printf_hex_int_ll_ptr.o)
    0x08000510   0x00000188   Code   RO         2896    .text               c_w.l(__printf_flags_ss_wp.o)
    0x08000698   0x00000024   Code   RO         2905    .text               c_w.l(strstr.o)
    0x080006bc   0x0000003e   Code   RO         2907    .text               c_w.l(strlen.o)
    0x080006fa   0x0000004e   Code   RO         2909    .text               c_w.l(rt_memclr_w.o)
    0x08000748   0x00000080   Code   RO         2911    .text               c_w.l(strcmpv7m.o)
    0x080007c8   0x00000006   Code   RO         2913    .text               c_w.l(heapauxi.o)
    0x080007ce   0x00000002   Code   RO         2929    .text               c_w.l(use_no_semi.o)
    0x080007d0   0x00000024   Code   RO         2932    .text               c_w.l(_printf_truncate.o)
    0x080007f4   0x000000b2   Code   RO         2934    .text               c_w.l(_printf_intcommon.o)
    0x080008a6   0x00000028   Code   RO         2936    .text               c_w.l(_printf_charcount.o)
    0x080008ce   0x00000002   PAD
    0x080008d0   0x00000030   Code   RO         2938    .text               c_w.l(_printf_char_common.o)
    0x08000900   0x0000000a   Code   RO         2940    .text               c_w.l(_sputc.o)
    0x0800090a   0x0000002c   Code   RO         2942    .text               c_w.l(_printf_char.o)
    0x08000936   0x00000002   PAD
    0x08000938   0x00000024   Code   RO         2944    .text               c_w.l(_printf_char_file.o)
    0x0800095c   0x000000bc   Code   RO         2946    .text               c_w.l(_printf_wctomb.o)
    0x08000a18   0x0000007c   Code   RO         2949    .text               c_w.l(_printf_longlong_dec.o)
    0x08000a94   0x00000070   Code   RO         2955    .text               c_w.l(_printf_oct_int_ll.o)
    0x08000b04   0x0000008a   Code   RO         2997    .text               c_w.l(lludiv10.o)
    0x08000b8e   0x0000041a   Code   RO         2999    .text               c_w.l(_printf_fp_dec.o)
    0x08000fa8   0x0000002c   Code   RO         3003    .text               c_w.l(_printf_wchar.o)
    0x08000fd4   0x00000008   Code   RO         3005    .text               c_w.l(ferror.o)
    0x08000fdc   0x00000040   Code   RO         3009    .text               c_w.l(_wcrtomb.o)
    0x0800101c   0x0000004a   Code   RO         3011    .text               c_w.l(sys_stackheap_outer.o)
    0x08001066   0x00000002   PAD
    0x08001068   0x00000010   Code   RO         3013    .text               c_w.l(rt_ctype_table.o)
    0x08001078   0x00000008   Code   RO         3018    .text               c_w.l(rt_locale_intlibspace.o)
    0x08001080   0x00000080   Code   RO         3020    .text               c_w.l(_printf_fp_infnan.o)
    0x08001100   0x000000dc   Code   RO         3022    .text               c_w.l(bigflt0.o)
    0x080011dc   0x00000012   Code   RO         3050    .text               c_w.l(exit.o)
    0x080011ee   0x00000002   PAD
    0x080011f0   0x00000008   Code   RO         3062    .text               c_w.l(libspace.o)
    0x080011f8   0x0000003e   Code   RO         3025    CL$$btod_d2e        c_w.l(btod.o)
    0x08001236   0x00000046   Code   RO         3027    CL$$btod_d2e_denorm_low  c_w.l(btod.o)
    0x0800127c   0x00000060   Code   RO         3026    CL$$btod_d2e_norm_op1  c_w.l(btod.o)
    0x080012dc   0x00000338   Code   RO         3035    CL$$btod_div_common  c_w.l(btod.o)
    0x08001614   0x000000c6   Code   RO         3032    CL$$btod_e2e        c_w.l(btod.o)
    0x080016da   0x00000028   Code   RO         3029    CL$$btod_ediv       c_w.l(btod.o)
    0x08001702   0x00000028   Code   RO         3028    CL$$btod_emul       c_w.l(btod.o)
    0x0800172a   0x00000244   Code   RO         3034    CL$$btod_mult_common  c_w.l(btod.o)
    0x0800196e   0x00000002   PAD
    0x08001970   0x00000038   Code   RO          727    i.BEEP_Init         beep.o
    0x080019a8   0x00000004   Code   RO          163    i.BusFault_Handler  stm32f10x_it.o
    0x080019ac   0x00000064   Code   RO          739    i.DHT11_Check       dht11.o
    0x08001a10   0x0000004c   Code   RO          741    i.DHT11_Read_Bit    dht11.o
    0x08001a5c   0x0000001e   Code   RO          742    i.DHT11_Read_Byte   dht11.o
    0x08001a7a   0x00000058   Code   RO          743    i.DHT11_Read_Data   dht11.o
    0x08001ad2   0x00000002   PAD
    0x08001ad4   0x00000040   Code   RO          744    i.DHT11_Rst         dht11.o
    0x08001b14   0x00000002   Code   RO          164    i.DebugMon_Handler  stm32f10x_it.o
    0x08001b16   0x00000116   Code   RO         1069    i.GPIO_Init         stm32f10x_gpio.o
    0x08001c2c   0x00000012   Code   RO         1073    i.GPIO_ReadInputDataBit  stm32f10x_gpio.o
    0x08001c3e   0x00000004   Code   RO         1076    i.GPIO_ResetBits    stm32f10x_gpio.o
    0x08001c42   0x00000004   Code   RO         1077    i.GPIO_SetBits      stm32f10x_gpio.o
    0x08001c46   0x00000004   Code   RO          165    i.HardFault_Handler  stm32f10x_it.o
    0x08001c4a   0x00000002   PAD
    0x08001c4c   0x0000003c   Code   RO          399    i.KEY_Init          key.o
    0x08001c88   0x000000c8   Code   RO          400    i.KEY_Scan          key.o
    0x08001d50   0x0000004c   Code   RO          628    i.LED_Init          led.o
    0x08001d9c   0x00000004   Code   RO          166    i.MemManage_Handler  stm32f10x_it.o
    0x08001da0   0x00000002   Code   RO          167    i.NMI_Handler       stm32f10x_it.o
    0x08001da2   0x00000002   PAD
    0x08001da4   0x00000070   Code   RO          781    i.NVIC_Init         misc.o
    0x08001e14   0x00000014   Code   RO          782    i.NVIC_PriorityGroupConfig  misc.o
    0x08001e28   0x00000002   Code   RO          168    i.PendSV_Handler    stm32f10x_it.o
    0x08001e2a   0x00000002   PAD
    0x08001e2c   0x00000020   Code   RO         1179    i.RCC_APB1PeriphClockCmd  stm32f10x_rcc.o
    0x08001e4c   0x00000020   Code   RO         1180    i.RCC_APB1PeriphResetCmd  stm32f10x_rcc.o
    0x08001e6c   0x00000020   Code   RO         1181    i.RCC_APB2PeriphClockCmd  stm32f10x_rcc.o
    0x08001e8c   0x00000020   Code   RO         1182    i.RCC_APB2PeriphResetCmd  stm32f10x_rcc.o
    0x08001eac   0x000000d4   Code   RO         1189    i.RCC_GetClocksFreq  stm32f10x_rcc.o
    0x08001f80   0x00000002   Code   RO          169    i.SVC_Handler       stm32f10x_it.o
    0x08001f82   0x00000008   Code   RO          252    i.SetSysClock       system_stm32f10x.o
    0x08001f8a   0x00000002   PAD
    0x08001f8c   0x000000e0   Code   RO          253    i.SetSysClockTo72   system_stm32f10x.o
    0x0800206c   0x00000028   Code   RO          785    i.SysTick_CLKSourceConfig  misc.o
    0x08002094   0x00000002   Code   RO          170    i.SysTick_Handler   stm32f10x_it.o
    0x08002096   0x00000002   PAD
    0x08002098   0x00000060   Code   RO          255    i.SystemInit        system_stm32f10x.o
    0x080020f8   0x00000038   Code   RO         2505    i.TIM4_IRQHandler   usmart.o
    0x08002130   0x00000034   Code   RO          667    i.TIM7_IRQHandler   timer.o
    0x08002164   0x00000060   Code   RO          668    i.TIM7_Int_Init     timer.o
    0x080021c4   0x00000006   Code   RO         1717    i.TIM_ClearFlag     stm32f10x_tim.o
    0x080021ca   0x00000006   Code   RO         1718    i.TIM_ClearITPendingBit  stm32f10x_tim.o
    0x080021d0   0x00000018   Code   RO         1723    i.TIM_Cmd           stm32f10x_tim.o
    0x080021e8   0x00000006   Code   RO         1742    i.TIM_GetCounter    stm32f10x_tim.o
    0x080021ee   0x00000012   Code   RO         1743    i.TIM_GetFlagStatus  stm32f10x_tim.o
    0x08002200   0x00000022   Code   RO         1744    i.TIM_GetITStatus   stm32f10x_tim.o
    0x08002222   0x00000012   Code   RO         1748    i.TIM_ITConfig      stm32f10x_tim.o
    0x08002234   0x00000004   Code   RO         1782    i.TIM_SetAutoreload  stm32f10x_tim.o
    0x08002238   0x00000004   Code   RO         1788    i.TIM_SetCounter    stm32f10x_tim.o
    0x0800223c   0x000000a4   Code   RO         1794    i.TIM_TimeBaseInit  stm32f10x_tim.o
    0x080022e0   0x0000005c   Code   RO         2506    i.Timer4_Init       usmart.o
    0x0800233c   0x00000088   Code   RO          358    i.USART1_IRQHandler  usart.o
    0x080023c4   0x00000070   Code   RO          689    i.USART3_IRQHandler  usart3.o
    0x08002434   0x00000018   Code   RO         2259    i.USART_Cmd         stm32f10x_usart.o
    0x0800244c   0x0000009c   Code   RO         2261    i.USART_DeInit      stm32f10x_usart.o
    0x080024e8   0x0000001a   Code   RO         2262    i.USART_GetFlagStatus  stm32f10x_usart.o
    0x08002502   0x00000054   Code   RO         2263    i.USART_GetITStatus  stm32f10x_usart.o
    0x08002556   0x0000004a   Code   RO         2265    i.USART_ITConfig    stm32f10x_usart.o
    0x080025a0   0x000000d8   Code   RO         2266    i.USART_Init        stm32f10x_usart.o
    0x08002678   0x0000000a   Code   RO         2273    i.USART_ReceiveData  stm32f10x_usart.o
    0x08002682   0x00000008   Code   RO         2276    i.USART_SendData    stm32f10x_usart.o
    0x0800268a   0x00000004   Code   RO          171    i.UsageFault_Handler  stm32f10x_it.o
    0x0800268e   0x00000028   Code   RO         3060    i.__ARM_fpclassify  m_ws.l(fpclassify.o)
    0x080026b6   0x0000000e   Code   RO         2889    i._is_digit         c_w.l(__printf_wp.o)
    0x080026c4   0x00000006   Code   RO          359    i._sys_exit         usart.o
    0x080026ca   0x00000002   PAD
    0x080026cc   0x000005f0   Code   RO            1    i.ap_demo           main.o
    0x08002cbc   0x0000003c   Code   RO         2680    i.atk_8266_at_response  common.o
    0x08002cf8   0x00000034   Code   RO         2681    i.atk_8266_check_cmd  common.o
    0x08002d2c   0x00000044   Code   RO         2682    i.atk_8266_consta_check  common.o
    0x08002d70   0x00000054   Code   RO         2684    i.atk_8266_get_wanip  common.o
    0x08002dc4   0x00000268   Code   RO         2688    i.atk_8266_msg_show  common.o
    0x0800302c   0x00000070   Code   RO         2691    i.atk_8266_quit_trans  common.o
    0x0800309c   0x00000074   Code   RO         2692    i.atk_8266_send_cmd  common.o
    0x08003110   0x0000005c   Code   RO         2693    i.atk_8266_send_data  common.o
    0x0800316c   0x00000070   Code   RO         2695    i.atk_8266_wificonf_show  common.o
    0x080031dc   0x00000044   Code   RO          304    i.delay_init        delay.o
    0x08003220   0x0000004c   Code   RO          305    i.delay_ms          delay.o
    0x0800326c   0x0000004c   Code   RO          306    i.delay_us          delay.o
    0x080032b8   0x0000001c   Code   RO          360    i.fputc             usart.o
    0x080032d4   0x00000060   Code   RO            2    i.main              main.o
    0x08003334   0x0000006c   Code   RO         2435    i.my_mem_free       malloc.o
    0x080033a0   0x00000044   Code   RO         2436    i.my_mem_init       malloc.o
    0x080033e4   0x000000a8   Code   RO         2437    i.my_mem_malloc     malloc.o
    0x0800348c   0x00000040   Code   RO         2438    i.my_mem_perused    malloc.o
    0x080034cc   0x00000024   Code   RO         2439    i.myfree            malloc.o
    0x080034f0   0x00000028   Code   RO         2440    i.mymalloc          malloc.o
    0x08003518   0x00000014   Code   RO         2442    i.mymemset          malloc.o
    0x0800352c   0x00000006   Code   RO         2507    i.read_addr         usmart.o
    0x08003532   0x00000002   PAD
    0x08003534   0x000001f4   Code   RO         2696    i.recv_data_analysis  common.o
    0x08003728   0x000000c0   Code   RO         2697    i.send_data_to_usart3  common.o
    0x080037e8   0x00000050   Code   RO          690    i.u3_printf         usart3.o
    0x08003838   0x000000a0   Code   RO          361    i.uart_init         usart.o
    0x080038d8   0x000000d0   Code   RO          691    i.usart3_init       usart3.o
    0x080039a8   0x000000b0   Code   RO         2508    i.usmart_cmd_rec    usmart.o
    0x08003a58   0x000002d4   Code   RO         2509    i.usmart_exe        usmart.o
    0x08003d2c   0x000000c8   Code   RO         2594    i.usmart_get_aparm  usmart_str.o
    0x08003df4   0x00000036   Code   RO         2595    i.usmart_get_cmdname  usmart_str.o
    0x08003e2a   0x00000002   PAD
    0x08003e2c   0x000001c0   Code   RO         2596    i.usmart_get_fname  usmart_str.o
    0x08003fec   0x0000010c   Code   RO         2597    i.usmart_get_fparam  usmart_str.o
    0x080040f8   0x00000020   Code   RO         2598    i.usmart_get_parmpos  usmart_str.o
    0x08004118   0x00000044   Code   RO         2510    i.usmart_get_runtime  usmart.o
    0x0800415c   0x00000028   Code   RO         2511    i.usmart_init       usmart.o
    0x08004184   0x00000016   Code   RO         2599    i.usmart_pow        usmart_str.o
    0x0800419a   0x00000002   PAD
    0x0800419c   0x00000030   Code   RO         2512    i.usmart_reset_runtime  usmart.o
    0x080041cc   0x000000bc   Code   RO         2513    i.usmart_scan       usmart.o
    0x08004288   0x00000016   Code   RO         2600    i.usmart_search_nextc  usmart_str.o
    0x0800429e   0x000000ca   Code   RO         2601    i.usmart_str2num    usmart_str.o
    0x08004368   0x00000022   Code   RO         2602    i.usmart_strcmp     usmart_str.o
    0x0800438a   0x00000016   Code   RO         2603    i.usmart_strcopy    usmart_str.o
    0x080043a0   0x00000018   Code   RO         2604    i.usmart_strlen     usmart_str.o
    0x080043b8   0x000006e4   Code   RO         2514    i.usmart_sys_cmd_exe  usmart.o
    0x08004a9c   0x00000004   Code   RO         2515    i.write_addr        usmart.o
    0x08004aa0   0x0000002c   Code   RO         3048    locale$$code        c_w.l(lc_numeric_c.o)
    0x08004acc   0x0000002c   Code   RO         3068    locale$$code        c_w.l(lc_ctype_c.o)
    0x08004af8   0x00000004   Code   RO         2979    x$fpl$printf1       fz_ws.l(printf1.o)
    0x08004afc   0x00000000   Code   RO         2981    x$fpl$usenofp       fz_ws.l(usenofp.o)
    0x08004afc   0x00000010   Data   RO            3    .constdata          main.o
    0x08004b0c   0x00000018   Data   RO         2447    .constdata          malloc.o
    0x08004b24   0x00000028   Data   RO         2877    .constdata          c_w.l(_printf_hex_int_ll_ptr.o)
    0x08004b4c   0x00000011   Data   RO         2897    .constdata          c_w.l(__printf_flags_ss_wp.o)
    0x08004b5d   0x00000003   PAD
    0x08004b60   0x00000008   Data   RO         2947    .constdata          c_w.l(_printf_wctomb.o)
    0x08004b68   0x00000094   Data   RO         3023    .constdata          c_w.l(bigflt0.o)
    0x08004bfc   0x00000028   Data   RO         2516    .conststring        usmart.o
    0x08004c24   0x00000090   Data   RO         2581    .conststring        usmart_config.o
    0x08004cb4   0x000000da   Data   RO         2699    .conststring        common.o
    0x08004d8e   0x00000002   PAD
    0x08004d90   0x00000020   Data   RO         3188    Region$$Table       anon$$obj.o
    0x08004db0   0x0000001c   Data   RO         3047    locale$$data        c_w.l(lc_numeric_c.o)
    0x08004dcc   0x00000110   Data   RO         3067    locale$$data        c_w.l(lc_ctype_c.o)


    Execution Region RW_IRAM1 (Base: 0x20000000, Size: 0x0000b800, Max: 0x00010000, ABSOLUTE, COMPRESSED[0x000000d4])

    Base Addr    Size         Type   Attr      Idx    E Section Name        Object

    0x20000000   0x00000014   Data   RW          256    .data               system_stm32f10x.o
    0x20000014   0x00000004   Data   RW          307    .data               delay.o
    0x20000018   0x00000006   Data   RW          363    .data               usart.o
    0x2000001e   0x00000001   Data   RW          401    .data               key.o
    0x2000001f   0x00000001   PAD
    0x20000020   0x00000004   Data   RW          451    .data               lcd.o
    0x20000024   0x00000002   Data   RW          693    .data               usart3.o
    0x20000026   0x00000014   Data   RW         1209    .data               stm32f10x_rcc.o
    0x2000003a   0x00000002   PAD
    0x2000003c   0x0000001c   Data   RW         2448    .data               malloc.o
    0x20000058   0x0000001c   Data   RW         2517    .data               usmart.o
    0x20000074   0x00000114   Data   RW         2582    .data               usmart_config.o
    0x20000188   0x00000084   Data   RW         2700    .data               common.o
    0x2000020c   0x000000c8   Zero   RW          362    .bss                usart.o
    0x200002d4   0x000004b0   Zero   RW          692    .bss                usart3.o
    0x20000784   0x0000001c   PAD
    0x200007a0   0x0000aa00   Zero   RW         2446    .bss                malloc.o
    0x2000b1a0   0x00000060   Zero   RW         3063    .bss                c_w.l(libspace.o)
    0x2000b200   0x00000200   Zero   RW          298    HEAP                startup_stm32f10x_hd.o
    0x2000b400   0x00000400   Zero   RW          297    STACK               startup_stm32f10x_hd.o



  Load Region LR$$.ARM.__AT_0x68000000 (Base: 0x68000000, Size: 0x00000000, Max: 0x000f0000, ABSOLUTE)

    Execution Region ER$$.ARM.__AT_0x68000000 (Base: 0x68000000, Size: 0x000f0000, Max: 0x000f0000, ABSOLUTE, UNINIT)

    Base Addr    Size         Type   Attr      Idx    E Section Name        Object

    0x68000000   0x000f0000   Zero   RW         2444    .ARM.__AT_0x68000000  malloc.o



  Load Region LR$$.ARM.__AT_0x680F0000 (Base: 0x680f0000, Size: 0x00000000, Max: 0x0000f000, ABSOLUTE)

    Execution Region ER$$.ARM.__AT_0x680F0000 (Base: 0x680f0000, Size: 0x0000f000, Max: 0x0000f000, ABSOLUTE, UNINIT)

    Base Addr    Size         Type   Attr      Idx    E Section Name        Object

    0x680f0000   0x0000f000   Zero   RW         2445    .ARM.__AT_0x680F0000  malloc.o


==============================================================================

Image component sizes


      Code (inc. data)   RO Data    RW Data    ZI Data      Debug   Object Name

        56          6          0          0          0        664   beep.o
      2004        674        218        132          0      10864   common.o
         0          0          0          0          0         32   core_cm3.o
       220         26          0          4          0       2411   delay.o
       358         26          0          0          0       4347   dht11.o
       260         20          0          1          0       1522   key.o
         0          0          0          4          0       2774   lcd.o
        76          8          0          0          0        675   led.o
      1616        684         16          0          0     256577   main.o
       504         60         24         28    1088000       7789   malloc.o
       172         22          0          0          0       2749   misc.o
        64         26        304          0       1536        928   startup_stm32f10x_hd.o
       304          0          0          0          0       4524   stm32f10x_gpio.o
        26          0          0          0          0       5262   stm32f10x_it.o
       340         44          0         20          0       6796   stm32f10x_rcc.o
       284         42          0          0          0       8212   stm32f10x_tim.o
       598         28          0          0          0       8340   stm32f10x_usart.o
       328         28          0         20          0       2957   system_stm32f10x.o
       148         16          0          0          0       1482   timer.o
       330         26          0          6        200       5184   usart.o
       400         42          0          2       1200       4118   usart3.o
      3166       1330         40         28          0       9822   usmart.o
         0          0        144        276          0       2036   usmart_config.o
      1328         20          0          0          0      10545   usmart_str.o

    ----------------------------------------------------------------------
     12602       3128        780        524    1090964     360610   Object Totals
         0          0         32          0          0          0   (incl. Generated)
        20          0          2          3         28          0   (incl. Padding)

    ----------------------------------------------------------------------

      Code (inc. data)   RO Data    RW Data    ZI Data      Debug   Library Member Name

        24          4          0          0          0         84   __2printf.o
        44          6          0          0          0         84   __2sprintf.o
        90          0          0          0          0          0   __dczerorl2.o
         8          0          0          0          0         68   __main.o
       392          4         17          0          0         92   __printf_flags_ss_wp.o
        14          0          0          0          0         68   __printf_wp.o
         0          0          0          0          0          0   __rtentry.o
        12          0          0          0          0          0   __rtentry2.o
         6          0          0          0          0          0   __rtentry4.o
        52          8          0          0          0          0   __scatter.o
        28          0          0          0          0          0   __scatter_zi.o
         6          0          0          0          0          0   _printf_a.o
         6          0          0          0          0          0   _printf_c.o
        44          0          0          0          0        108   _printf_char.o
        48          6          0          0          0         96   _printf_char_common.o
        36          4          0          0          0         80   _printf_char_file.o
        40          0          0          0          0         68   _printf_charcount.o
         6          0          0          0          0          0   _printf_d.o
       120         16          0          0          0         92   _printf_dec.o
         6          0          0          0          0          0   _printf_e.o
         6          0          0          0          0          0   _printf_f.o
      1050          0          0          0          0        216   _printf_fp_dec.o
       128         16          0          0          0         84   _printf_fp_infnan.o
         6          0          0          0          0          0   _printf_g.o
       148          4         40          0          0        160   _printf_hex_int_ll_ptr.o
         6          0          0          0          0          0   _printf_i.o
       178          0          0          0          0         88   _printf_intcommon.o
        10          0          0          0          0          0   _printf_l.o
         6          0          0          0          0          0   _printf_lc.o
        10          0          0          0          0          0   _printf_ll.o
         6          0          0          0          0          0   _printf_lld.o
         6          0          0          0          0          0   _printf_lli.o
         6          0          0          0          0          0   _printf_llo.o
         6          0          0          0          0          0   _printf_llu.o
         6          0          0          0          0          0   _printf_llx.o
       124         16          0          0          0         92   _printf_longlong_dec.o
         6          0          0          0          0          0   _printf_ls.o
         6          0          0          0          0          0   _printf_n.o
         6          0          0          0          0          0   _printf_o.o
       112         10          0          0          0        124   _printf_oct_int_ll.o
         6          0          0          0          0          0   _printf_p.o
        78          0          0          0          0        108   _printf_pad.o
         0          0          0          0          0          0   _printf_percent.o
         4          0          0          0          0          0   _printf_percent_end.o
         6          0          0          0          0          0   _printf_s.o
        82          0          0          0          0         80   _printf_str.o
        36          0          0          0          0         84   _printf_truncate.o
         6          0          0          0          0          0   _printf_u.o
        44          0          0          0          0        108   _printf_wchar.o
       188          6          8          0          0         92   _printf_wctomb.o
         6          0          0          0          0          0   _printf_x.o
        10          0          0          0          0         68   _sputc.o
        64          0          0          0          0         92   _wcrtomb.o
       220          4        148          0          0         96   bigflt0.o
      1910        128          0          0          0        672   btod.o
        36          4          0          0          0         76   c89vsprintf.o
        18          0          0          0          0         80   exit.o
         8          0          0          0          0         68   ferror.o
         6          0          0          0          0        152   heapauxi.o
        44         10        272          0          0         76   lc_ctype_c.o
        44         10         28          0          0         76   lc_numeric_c.o
         2          0          0          0          0          0   libinit.o
        30          0          0          0          0          0   libinit2.o
         2          0          0          0          0          0   libshutdown.o
         2          0          0          0          0          0   libshutdown2.o
         8          4          0          0         96         68   libspace.o
       138          0          0          0          0         80   lludiv10.o
        16          4          0          0          0         76   rt_ctype_table.o
         8          4          0          0          0         68   rt_locale_intlibspace.o
        78          0          0          0          0         80   rt_memclr_w.o
         2          0          0          0          0          0   rtexit.o
        10          0          0          0          0          0   rtexit2.o
       128          0          0          0          0         68   strcmpv7m.o
        62          0          0          0          0         76   strlen.o
        36          0          0          0          0         80   strstr.o
        74          0          0          0          0         80   sys_stackheap_outer.o
         2          0          0          0          0         68   use_no_semi.o
         2          0          0          0          0         68   use_no_semi_2.o
         4          0          0          0          0         68   printf1.o
         0          0          0          0          0          0   usenofp.o
        40          0          0          0          0         68   fpclassify.o

    ----------------------------------------------------------------------
      6290        268        516          0         96       4480   Library Totals
        16          0          3          0          0          0   (incl. Padding)

    ----------------------------------------------------------------------

      Code (inc. data)   RO Data    RW Data    ZI Data      Debug   Library Name

      6230        268        513          0         96       4344   c_w.l
         4          0          0          0          0         68   fz_ws.l
        40          0          0          0          0         68   m_ws.l

    ----------------------------------------------------------------------
      6290        268        516          0         96       4480   Library Totals

    ----------------------------------------------------------------------

==============================================================================


      Code (inc. data)   RO Data    RW Data    ZI Data      Debug   

     18892       3396       1296        524    1091060     357338   Grand Totals
     18892       3396       1296        212    1091060     357338   ELF Image Totals (compressed)
     18892       3396       1296        212          0          0   ROM Totals

==============================================================================

    Total RO  Size (Code + RO Data)                20188 (  19.71kB)
    Total RW  Size (RW Data + ZI Data)           1091584 (1066.00kB)
    Total ROM Size (Code + RO Data + RW Data)      20400 (  19.92kB)

==============================================================================

